:020000040800F2
:10000000000002200D1700086512000867120008A2
:10001000691200086B1200086D1200080000000051
:10002000000000000000000000000000F144000893
:100030006F1200080000000091450008B74000085A
:100040005D1700085D1700085D1700085D170008C0
:100050005D1700085D1700085D1700085D170008B0
:100060005D1700085D1700085D1700085D170008A0
:10007000711200085D1700085D1700085D17000881
:1000800081120008911200085D1700085D17000832
:10009000A11200085D1700085D1700085D17000831
:1000A0005D1700085D1700085D1700085D17000860
:1000B0005D1700085D1700085D1700085D17000850
:1000C0005D1700085D1700085D1700085D17000840
:1000D0005D1700085D170008B1120008C112000882
:1000E0005D1700085D1700085D1700085D17000820
:1000F0005D1700085D1700085D1700085D17000810
:100100005D1700085D1700085D1700085D170008FF
:100110005D1700085D1700085D170008D112000880
:100120005D1700085D1700085D1700085D170008DF
:100130005D1700085D1700085D1700085D170008CF
:100140005D1700085D1700085D1700085D170008BF
:100150005D1700085D1700085D1700085D170008AF
:100160005D1700085D1700085D1700085D1700089F
:100170005D1700085D1700085D170008000000000B
:080180005D1700085D1700087F
:1001900070B54FF0FF0C4CF4E06C1CEA11541DBF1D
:1001A0001CEA135594EA0C0F95EA0C0F00F0DEF8E8
:1001B0002C4481EA030621EA4C5123EA4C5350EACD
:1001C000013518BF52EA033541F4801143F480131E
:1001D00038D0A0FB02CE4FF00005E1FB02E506F0AF
:1001E0000042E0FB03E54FF00006E1FB03569CF004
:1001F000000F18BF4EF0010EA4F1FF04B6F5007F0A
:1002000064F5407404D25FEA4E0E6D4146EB06067B
:1002100042EAC62141EA55514FEAC52040EA5E5004
:100220004FEACE2EB4F1FD0C88BFBCF5E06F1ED8AE
:10023000BEF1004F08BF5FEA500E50F1000041EBE5
:10024000045170BD06F0004646EA010140EA020092
:1002500081EA0301B4EB5C04C2BFD4EB0C0541EAB4
:10026000045170BD41F480114FF0000E013C00F3C9
:10027000AB8014F1360FDEBF002001F0004170BDED
:10028000C4F10004203C35DA0C341BDC04F1140406
:10029000C4F1200500FA05F320FA04F001FA05F292
:1002A00040EA020001F0004221F0004110EBD3705F
:1002B00021FA04F642EB06015EEA430E08BF20EA8B
:1002C000D37070BDC4F10C04C4F1200500FA04F32E
:1002D00020FA05F001FA04F240EA020001F00041C0
:1002E00010EBD37041F100015EEA430E08BF20EA33
:1002F000D37070BDC4F1200500FA05F24EEA020E7B
:1003000020FA04F301FA05F243EA020321FA04F0A9
:1003100001F0004121FA04F220EA020000EBD37060
:100320005EEA430E08BF20EAD37070BD94F0000F60
:100330000FD101F00046400041EB010111F4801F94
:1003400008BF013CF7D041EA060195F0000F18BF45
:10035000704703F00046520043EB030313F4801F81
:1003600008BF013DF7D043EA0603704794EA0C0F3B
:100370000CEA135518BF95EA0C0F0CD050EA410651
:1003800018BF52EA4306D1D181EA030101F00041CE
:100390004FF0000070BD50EA410606BF10461946F6
:1003A00052EA430619D094EA0C0F02D150EA013602
:1003B00013D195EA0C0F05D152EA03361CBF104643
:1003C00019460AD181EA030101F0004141F0FE41E2
:1003D00041F470014FF0000070BD41F0FE4141F466
:1003E000780170BD81F0004102E000BF83F000435E
:1003F00030B54FEA41044FEA430594EA050F08BFC0
:1004000090EA020F1FBF54EA000C55EA020C7FEA83
:10041000645C7FEA655C00F0E2804FEA5454D4EB00
:100420005555B8BF6D420CDD2C4480EA020281EACA
:10043000030382EA000083EA010180EA020281EA02
:100440000303362D88BF30BD11F0004F4FEA013154
:100450004FF4801C4CEA113102D0404261EB410163
:1004600013F0004F4FEA03334CEA133302D05242E9
:1004700063EB430394EA050F00F0A780A4F10104A5
:10048000D5F1200E0DDB02FA0EFC22FA05F28018DF
:1004900041F1000103FA0EF2801843FA05F35941C5
:1004A0000EE0A5F120050EF1200E012A03FA0EFC44
:1004B00028BF4CF0020C43FA05F3C01851EBE3716E
:1004C00001F0004507D54FF0000EDCF1000C7EEB8B
:1004D00000006EEB0101B1F5801F1BD3B1F5001FC9
:1004E0000CD349085FEA30004FEA3C0C04F10104E8
:1004F0004FEA445212F5800F80F09A80BCF1004F11
:1005000008BF5FEA500C50F1000041EB045141EA92
:10051000050130BD5FEA4C0C404141EB0101013C5B
:1005200028BFB1F5801FE9D291F0000F04BF01464A
:100530000020B1FA81F308BF2033A3F10B03B3F11C
:1005400020020CDA0C3208DD02F1140CC2F10C02AC
:1005500001FA0CF021FA02F10CE002F11402D8BF0A
:10056000C2F1200C01FA02F120FA0CFCDCBF41EAD6
:100570000C019040E41AA2BF01EB0451294330BDA5
:100580006FEA04041F3C1CDA0C340EDC04F1140482
:10059000C4F1200220FA04F001FA02F340EA030059
:1005A00021FA04F345EA030130BDC4F10C04C4F19F
:1005B000200220FA02F001FA04F340EA030029467F
:1005C00030BD21FA04F0294630BD94F0000F83F4C9
:1005D000801306BF81F480110134013D4EE77FEAAC
:1005E000645C18BF7FEA655C29D094EA050F08BFF8
:1005F00090EA020F05D054EA000C04BF19461046D9
:1006000030BD91EA030F1EBF0021002030BD5FEA1C
:10061000545C05D14000494128BF41F0004130BD44
:1006200014F580043CBF01F5801130BD01F0004598
:1006300045F0FE4141F470014FF0000030BD7FEA0B
:10064000645C1ABF194610467FEA655C1CBF0B4606
:10065000024650EA013406BF52EA033591EA030F1D
:1006600041F4002130BD00BF90F0000F04BF002115
:10067000704730B54FF4806404F132044FF0000548
:100680004FF0000150E700BF90F0000F04BF0021C1
:10069000704730B54FF4806404F1320410F0004527
:1006A00048BF40424FF000013EE700BF42004FEA22
:1006B000E2014FEA31014FEA02701FBF12F07F439F
:1006C00093F07F4F81F06051704732F07F4208BF56
:1006D000704793F07F4F04BF41F40021704730B55D
:1006E0004FF4607401F0004521F000411CE700BFA9
:1006F00050EA010208BF704730B54FF000050AE02C
:1007000050EA010208BF704730B511F0004502D52C
:10071000404261EB41014FF4806404F132045FEA2E
:10072000915C3FF4D8AE4FF003025FEADC0C18BFD7
:1007300003325FEADC0C18BF033202EBDC02C2F1C9
:10074000200300FA03FC20FA02F001FA03FE40EA5B
:100750000E0021FA02F11444BDE600BF4FF0FF3C49
:1007600006E000BF4FF0010C02E000BF4FF0010CAB
:100770004DF804CD4FEA410C7FEA6C5C4FEA430C24
:1007800018BF7FEA6C5C1BD001B050EA410C0CBF73
:1007900052EA430C91EA030F02BF90EA020F0020D5
:1007A000704710F1000F91EA030F58BF994208BF3C
:1007B00090422CBFD8176FEAE37040F001007047F9
:1007C0004FEA410C7FEA6C5C02D150EA013C07D150
:1007D0004FEA430C7FEA6C5CD6D152EA033CD3D09B
:1007E0005DF8040B704700BF8446104662468C4695
:1007F0001946634600E000BF01B5FFF7B7FF0028C8
:1008000048BF10F1000F01BD4DF808EDFFF7F4FFF0
:100810000CBF012000205DF808FB00BF4DF808ED7B
:10082000FFF7EAFF34BF012000205DF808FB00BF9E
:100830004DF808EDFFF7E0FF94BF012000205DF8C0
:1008400008FB00BF4DF808EDFFF7CEFF94BF012075
:1008500000205DF808FB00BF4DF808EDFFF7C4FF6E
:1008600034BF012000205DF808FB00BF53B94AB92E
:10087000002908BF00281CBF4FF0FF314FF0FF30A8
:1008800000F00CB8ADF1080C6DE904CE06F0A0F94B
:10089000DDF804E0DDE9022304B07047704700BFD3
:1008A0004A0011D212F5001211D20DD56FF47873EF
:1008B000B3EB62520ED44FEAC12343F0004343EA44
:1008C000505323FA02F070474FF00000704750EA8F
:1008D000013002D14FF0FF3070474FF000007047F9
:1008E000844641EA000313F003036DD1403A41D33B
:1008F00051F8043B40F8043B51F8043B40F8043BFA
:1009000051F8043B40F8043B51F8043B40F8043BE9
:1009100051F8043B40F8043B51F8043B40F8043BD9
:1009200051F8043B40F8043B51F8043B40F8043BC9
:1009300051F8043B40F8043B51F8043B40F8043BB9
:1009400051F8043B40F8043B51F8043B40F8043BA9
:1009500051F8043B40F8043B51F8043B40F8043B99
:1009600051F8043B40F8043B51F8043B40F8043B89
:10097000403ABDD2303211D351F8043B40F8043B29
:1009800051F8043B40F8043B51F8043B40F8043B69
:1009900051F8043B40F8043B103AEDD20C3205D339
:1009A00051F8043B40F8043B043AF9D2043208D031
:1009B000D2071CBF11F8013B00F8013B01D30B88A3
:1009C00003806046704700BF082A13D38B078DD081
:1009D00010F003038AD0C3F10403D21ADB071CBF53
:1009E00011F8013B00F8013B80D331F8023B20F8BD
:1009F000023B7BE7043AD9D3013A11F8013B00F8F6
:100A0000013BF9D20B7803704B7843708B7883707D
:100A1000604670470348044B834202D0034B03B146
:100A20001847704770050020700500200000000086
:100A30000548064B1B1AD90F01EBA301491002D040
:100A4000034B03B118477047700500207005002064
:100A50000000000010B5064C237843B9FFF7DAFF19
:100A6000044B13B10448AFF300800123237010BD81
:100A70007005002000000000D073000808B5054B89
:100A80001BB105490548AFF30080BDE80840FFF7FA
:100A9000CFBF00BF0000000074050020D073000825
:100AA00010B50A4C01224FF48051204601F01EFF80
:100AB00000224FF40061204601F018FF00224FF49D
:100AC0008061204601F012FF10BD00BF001C0240F3
:100AD00010B50A4C00224FF48051204601F006FF69
:100AE00001224FF40061204601F000FF00224FF484
:100AF0008061204601F0FAFE10BD00BF001C0240DC
:100B000010B58AB01A481B4B0360032343600023CF
:100B100083604FF08072C2604FF4102202614FF484
:100B200000124261037643768376C3760377437778
:100B300000F03CFFC0B90122089200230593069300
:100B4000079200930193029303930493084C694620
:100B5000204600F0D1FF204601F06AF8022120462D
:100B600001F0BEF90AB010BD00F09AFAE3E700BF49
:100B70008C0500200064004010B588B0002303936A
:100B800004930593069307930268184B9A4201D089
:100B900008B010BD0024019403F5EA331A6C42F04A
:100BA00000721A641A6C02F000720192019A0294A7
:100BB0001A6B42F008021A631B6B03F008030293DE
:100BC000029B0323039302220492069309230793B3
:100BD00003A9074801F094FD22460521142001F0E5
:100BE00019FB142001F026FBD2E700BF006400408F
:100BF000000C024010B582B000240194114B1A6B16
:100C000042F400121A631B6B03F400130193019B5F
:100C1000224605210C2001F0FDFA0C2001F00AFB10
:100C200022460521102001F0F5FA102001F002FB08
:100C300022460521112001F0EDFA112001F0FAFA07
:100C400002B010BD0038024008B5012003F0CDFA13
:100C5000FBE7000008B505F0D9FC0CE005F0E6FC68
:100C6000094B186803F05CFB084B186803F058FB4D
:100C7000012003F0BAFA4FF0FF31054B186803F07A
:100C80001BFB0028EAD0F3E7B4050020B8050020DC
:100C9000C805002008B505F057FC012003F0A5FAAF
:100CA000F9E708B505F096FD05F0E8FD012003F031
:100CB0009CFAF9E708B505F025FD05F053FD012084
:100CC00003F093FAF9E708B505F09EFE05F0AEFED5
:100CD000012003F08AFAF9E708B504E005F078FC92
:100CE000012003F082FA4FF0FF31034B186803F044
:100CF000E3FA0028F2D0F3E7B805002008B505F0C4
:100D00005BFE04E005F060FE012003F06EFA4FF098
:100D1000FF31034B186803F0CFFA0028F2D0F3E755
:100D2000B405002008B505F047FD05F04BFD012096
:100D300003F05BFAF9E708B505F03AFD012003F08E
:100D400054FAFBE708B505F0B7FE05F0E5FE012013
:100D500003F04BFAF9E7000008B53C4A01210846C8
:100D600003F051FA3A4B18603A4A0121084603F061
:100D70004AFA394B1860394A0121084603F043FA10
:100D8000374B1860374A0121084603F03CFA364BCE
:100D90001860364A0121084603F035FA344B1860D2
:100DA000344A0121084603F02EFA334B1860334AC7
:100DB0000021334803F0BAF9324B1860324A00215F
:100DC000324803F0B3F9324B1860324A00213248FE
:100DD00003F0ACF9314B1860314A0021314803F07F
:100DE000A5F9314B1860314A0021314803F09EF9D2
:100DF000304B1860304A0021304803F097F9304BEF
:100E00001860304A0021304803F090F92F4B1860E9
:100E10002F4A00212F4803F089F92F4B18602F4AE1
:100E200000212F4803F082F92E4B18602E4A002132
:100E30002E4803F07BF92E4B18602E4A00212E48D5
:100E400003F074F92D4B186008BD00BF0C75000845
:100E5000C8050020FC740008C4050020EC740008DC
:100E6000C0050020DC740008BC050020CC7400081C
:100E7000B8050020BC740008B40500208476000882
:100E8000490C0008F405002060760008550C0008A5
:100E9000F00500203C760008950C0008EC050020C9
:100EA00018760008A30C0008E8050020F475000877
:100EB000B50C0008E4050020D0750008C70C000838
:100EC000E0050020AC750008D90C0008DC05002006
:100ED00088750008FD0C0008D8050020647500081E
:100EE000250D0008D405002040750008370D0008C6
:100EF000D00500201C750008450D0008CC05002019
:100F000008B5044805F098FB034B186803F008FA8D
:100F100008BD00BFF8810120C805002010B52B4C8A
:100F20002B4B2246002100F026FF236840F20322CB
:100F300093421BD040F20722934230D040F201226C
:100F4000934212D1234A93891380214B1878597800
:100F500041EA002191819878D97841EA00215160D5
:100F600019795B7943EA0123936010BD1A49B1F9FD
:100F700000300B81164B18785A7842EA00220A801A
:100F80009A78120212B2D87802434A801A79120271
:100F900012B2587902438A809B798B71E5E70F4A38
:100FA0001388D3810A4B1878597841EA00211180BF
:100FB0009878D97841EA002151601879597941EA45
:100FC000002191609B799381CFE700BFB081012020
:100FD000CC810120C00800207C0800209808002057
:100FE00030B58BB0002405940694079408940994B6
:100FF0000094234B1A6B42F001021A631A6B02F041
:1010000001020092009A01941A6B42F008021A63DE
:101010001A6B02F008020192019A02941A6B42F0D4
:1010200004021A631A6B02F004020292029A0394F9
:101030001A6B42F480721A631A6B02F48072039284
:10104000039A04941A6B42F080021A631B6B03F03C
:1010500080030493049B0B4D01224FF4E05128467A
:1010600001F044FC4FF4E0530593012306930794E9
:10107000089405A9284601F043FB0BB030BD00BF22
:1010800000380240001C024008B50268034B9A4237
:1010900000D008BD00F078FCFBE700BF0014004062
:1010A00072B6FEE700B595B03022002108A805F021
:1010B000EDFE002303930493059306930793019396
:1010C000204A116C41F080511164126C02F0805280
:1010D0000192019A02931C4B1A6842F480421A60F2
:1010E0001B6803F480430293029B012308934FF48F
:1010F0008033099302230E934FF480020F9206224D
:101100001092A822119212930423139308A801F0BD
:10111000F3FB98B90F230393022304930023059351
:101120004FF4A05306934FF480530793052103A86F
:1011300001F032FE20B915B05DF804FBFFF7B0FFF7
:10114000FFF7AEFF003802400070004008B500F025
:1011500001FCFFF7A7FFFFF743FFFFF74BFD00F090
:10116000E5F900F0C3F9FFF7CBFC00F041F902F01C
:10117000AFFFFFF7F1FD02F0BDFFFEE700B583B062
:10118000002200920D4B596C41F480415964596C16
:1011900001F48041009100990192196C41F0805155
:1011A00019641B6C03F080530193019B0F216FF0B6
:1011B000010001F02FF803B05DF804FB0038024095
:1011C00030B589B0044600230193214B1A6C42F0DC
:1011D00020021A641B6C03F020030193019B02A9F7
:1011E00003A801F0AFFE069BCBB901F08BFE0346CE
:1011F000184AA2FB03239B0C013B1748174A0260C5
:1012000040F2E732C2604360002303618360836180
:1012100002F0E2F8054630B1284609B030BD01F0D1
:1012200071FE4300E4E70C4801F072FF0546002818
:10123000F2D1372000F0FEFF0F2C01D90125EBE79A
:1012400000222146372000F0E5FF054B1C60E3E754
:101250000038024083DE1B43F805002000140040E4
:1012600008000020FEE7FEE7FEE7FEE7FEE7704726
:1012700008B5024801F056F908BD00BFC4060020B9
:1012800008B5024801F04EF908BD00BF84070020F0
:1012900008B5024801F046F908BD00BF2407002048
:1012A00008B5024800F03AFE08BD00BF8C050020DA
:1012B00008B5024802F0FCFC08BD00BF2C08002065
:1012C00008B5024802F0F4FC08BD00BFE4070020A6
:1012D00008B5024801F065FF08BD00BFF805002011
:1012E00010B503460C4A0D490D48006840B10C4842
:1012F00000680344521A934206D8094A136010BD8D
:101300000748084C0460F2E705F048FE0C23036030
:101310004FF0FF30F3E700BF0000022000040000A0
:101320004006002028850120034AD2F8883043F483
:101330007003C2F88830704700ED00E00268094B86
:101340009A4200D0704782B000230193064B5A6C3A
:1013500042F002025A645B6C03F002030193019BAA
:1013600002B07047000401400038024070B588B0F8
:10137000002303930493059306930793026803F1F4
:10138000804303F582339A4201D008B070BD00213A
:10139000019103F59A331A6B42F480721A631A6B47
:1013A00002F480720192019A02911A6B42F00402D7
:1013B0001A631B6B03F004030293029B40260396FF
:1013C000022504950324079403A9074801F098F91E
:1013D00003960495012305930694079403A90348F3
:1013E00001F08EF9D1E700BF002002400008024062
:1013F00010B596B00024129413941494159410947C
:10140000119409940A940B940C940D940E940F94D7
:101410002022214601A805F039FD3248324B0360F5
:1014200040F247334360846042F20F73C36004614B
:101430004461846101F0D0FF00283ED14FF4805315
:10144000129312A9274802F0D2F8002838D1254873
:1014500001F0EEFF002836D100231093119310A95C
:10146000204802F0D5F9002830D1602309930022EA
:101470000A920B920C920D920E920F9209A91948A2
:1014800002F03AF828BB042209A9164802F034F801
:1014900010BB0023019302930393049305934FF42D
:1014A00000520692089301A90E4802F0F7F9B0B96C
:1014B0000C48FFF75BFF16B010BDFFF7F1FDBDE76D
:1014C000FFF7EEFDC3E7FFF7EBFDC5E7FFF7E8FD2C
:1014D000CBE7FFF7E5FDD6E7FFF7E2FDD9E7FFF73A
:1014E000DFFDE5E7440600200004014008B50C4894
:1014F0000C4B03600C4B43604FF48053836000231C
:10150000C3604FF4806202610C2242618361C36157
:1015100002F0E6FA00B908BDFFF7C2FDFBE700BF25
:101520002C08002000440040A086010008B50C48AB
:101530000C4B03600C4B43604FF4805383600023DB
:10154000C3604FF4806202610C2242618361C36117
:1015500002F0C6FA00B908BDFFF7A2FDFBE700BF25
:10156000E407002000480040A086010030B58BB0A1
:101570000446002305930693079308930993036891
:10158000574A934204D0574A934260D00BB030BDC3
:1015900000250195544B1A6C42F400321A641A6CFF
:1015A00002F400320192019A02951A6B42F008028D
:1015B0001A631B6B03F008030293029B60230593DD
:1015C00002230693032308930723099305A9474899
:1015D00001F096F84648474B03604FF000634360C4
:1015E0008560C5604FF48063036145618561C561B5
:1015F0000562456200F09EFE18BB3D4BE3639C63B1
:101600003D483E4B03604FF00063436040238360DE
:101610000023C3604FF48062026143618361C36150
:101620000362436200F086FE70B9334BA3639C6390
:1016300000220521262000F0EDFD262000F0FAFD15
:10164000A4E7FFF72DFDD8E7FFF72AFDEDE700251A
:101650000395254B1A6C42F480221A641A6C02F42A
:1016600080220392039A04951A6B42F004021A63D3
:101670001B6B03F004030493049B4FF44063059336
:1016800002230693032308930723099305A91C4803
:1016900001F036F81B481C4B03604FF000634360B9
:1016A0008560C5604FF480630361456185614FF4D7
:1016B0008073C3614FF440330362456200F03AFE29
:1016C00058B9104BE3639C6300220521272000F0EA
:1016D000A1FD272000F0AEFD58E7FFF7E1FCF0E7A1
:1016E000004400400048004000380240000C024026
:1016F000840700208860024024070020A060024088
:1017000000080240C406002028600240DFF834D000
:10171000FFF70AFE0C480D490D4A002302E0D45899
:10172000C4500433C4188C42F9D30A4A0A4C00232B
:1017300001E013600432A242FBD305F035FCFFF751
:1017400005FD704700000220000000207005002009
:10175000DC7600087005002028850120FEE700B532
:1017600084468E461046194694457EEB010303DA03
:10177000012A71F100030BDADCF1000C6EEB4E0E66
:10178000604571EB0E0301DA002904DB5DF804FB10
:1017900060467146FAE760467146F7E780ED000A59
:1017A000C0ED010A80ED021A704700000000000041
:1017B0002DE9F84F04460D46BDF928609DF8381014
:1017C000002942D0D01A00281FDD41F2680188426A
:1017D0000EDDD4E90489C2F5FF521F329818FEF7D6
:1017E00053FF42464B46FEF703FEC4E9040131E0D5
:1017F000D4E90489FEF748FF02460B4640464946B5
:10180000FEF7F4FDC4E9040124E04F49884210DAF0
:10181000D4E90489A3F5FF531F3BD018FEF734FF2A
:1018200002460B4640464946FEF7E0FDC4E9040186
:1018300010E0D4E90489981AFEF726FF42464B4689
:10184000FEF7D6FDC4E9040104E0A81AFEF71CFF68
:10185000C4E90401D4E9048900223C4B40464946CE
:10186000FEF7DCFFA0B13A4B1B88642B4DD8D4E9BE
:1018700008AB31A3D3E9002340464946FEF788FC74
:1018800002460B4650465946FEF7B2FDC4E9080130
:10189000D4E9080105F066F902460B463046F11717
:1018A000FFF75DFFFEF72CFF06460F46C4E9086709
:1018B000002D04DD00220023FEF7B0FF90BB002DB9
:1018C00028DB2068FEF7F2FE02460B4640464946FA
:1018D000FEF75EFC06460F466068FEF7E7FED4E9B9
:1018E0000823FEF755FC02460B4630463946FEF704
:1018F0007FFD05F037F902460B46DDE90C01FFF7E5
:101900002EFFC4E90689BDE8F88F00220023C4E950
:101910000823BDE70022002330463946FEF79CFF2E
:101920000028CED006A3D3E9002330463946FEF77F
:101930002FFCC4E90801C4E79A9999999999B93F8C
:101940009A9999999999E9BF98EFFFFF00407F40D4
:101950001082012008B50B4B1A6842F400721A601D
:101960001A6842F480621A601A6842F480721A603F
:10197000032000F03DFC0F20FFF722FCFFF7FEFBE9
:10198000002008BD003C0240034A1168034B1B784D
:101990000B441360704700BFD009002004000020F2
:1019A000014B1868704700BFD0090020002800F0E4
:1019B000A18038B5044690F82030D3B1226813686E
:1019C00043F001031360FFF7EBFF054623685A68F5
:1019D00012F0010F10D1FFF7E3FF401B0A28F5D9E1
:1019E000636A43F400336362052384F820300120E6
:1019F00038BDFFF7C1F8E1E71A6822F002021A6069
:101A0000FFF7CEFF054623685A6812F0020F0DD08B
:101A1000FFF7C6FF401B0A28F5D9636A43F4003379
:101A20006362052384F820300120E1E7227E012A49
:101A30003DD01A6822F080021A60637E012B3BD0F1
:101A40002268136823F040031360A37E012B39D072
:101A50002268136823F020031360E37E012B37D044
:101A60002268136843F010031360237F012B35D0E5
:101A70002268136823F008031360637F012B33D0BF
:101A80002268136823F004031360A368E268134319
:101A900022691343626913436268013A2168134360
:101AA000CB6100206062012384F82030A0E71A682F
:101AB00042F080021A60C0E72268136843F04003D6
:101AC0001360C2E72268136843F020031360C4E781
:101AD0002268136823F010031360C6E722681368B6
:101AE00043F008031360C8E72268136843F0040357
:101AF0001360CAE70120704790F82030013BDBB249
:101B0000012B05D9436A43F48023436201207047C7
:101B100030B5464BD3F8002242F00102C3F8002250
:101B2000D3F8002222F47C52C3F80022D3F800221A
:101B3000486A42EA0022C3F800224A6902F01F0202
:101B4000012000FA02F2D3F81C026FEA020C20EA2C
:101B50000200C3F81C02CB69C3B9344BD3F80C02A2
:101B60000CEA0000C3F80C028C884869CD6844EA8E
:101B70000544483043F830408C68088840EA044007
:101B80004C6904F1480E03EBCE035860CB69012B7E
:101B90001ED08B69002B33D12448D0F804320CEAD4
:101BA0000303C0F804320B698BBB2048D0F8143211
:101BB0000CEA0303C0F814320B6A012B2ED01B4A27
:101BC000D2F8003223F00103C2F80032002030BD09
:101BD000164BD3F80C021043C3F80C028C884869EA
:101BE0000D6844EA0544483043F8304088894C6920
:101BF0008D6840EA0540483403EBC4035860C8E7E9
:101C00000A48D0F804321343C0F80432CBE707483F
:101C1000D0F814321343C0F81432CDE70349D1F899
:101C20001C321343C1F81C32C9E700BF00640040F6
:101C300070B5044690F82050EDB2012D06D0436AED
:101C400043F4002343620125284670BD022380F837
:101C500020300268136823F001031360FFF7A0FE31
:101C6000064623685B6813F0010F0CD0FFF798FE5F
:101C7000831B0A2BF5D9636A43F40033636205239F
:101C800084F82030E0E700256562DDE730B590F8A4
:101C900020C00468A4680CF1FF3C5FFA8CFCBCF126
:101CA000010F62D814F0E05F59D0C4F3016C012435
:101CB00004FA0CF41C608B68002B3DD10D68CB68D6
:101CC000046843EA45550CF118031B01E55003680D
:101CD0000C690CF1180E03EB0E135C600B7D012BED
:101CE00035D0D17993791B0443EA0163517943EAF2
:101CF000012314790168234301EB0C11C1F88C31E5
:101D0000D17893781B0443EA0163517843EA0123B5
:101D1000117802680B4302EB0C12C2F8883102689A
:101D20000CF1180C4FEA0C1C52F80C3043F0010374
:101D300042F80C3000201DE04C6843EAC403CC6834
:101D400023430CF11804240105682B51BFE70368F5
:101D500003EB0E13596841F480715960C1E7436A7F
:101D600043F400134362012004E0436A43F48023F8
:101D70004362012030BD90F820C00CF1FF3C5FFAB7
:101D80008CFCBCF1010F00F2A58030B451B904689D
:101D9000E46814F0030F10D1436A43F40013436264
:101DA00001207EE00468246914F0030F05D1436A22
:101DB00043F400134362012073E0056801F11B0442
:101DC00024012C5904F004049460002C6BD10568A4
:101DD00001F11B0424012C59640D1460046801F105
:101DE0001B0C4FEA0C1C54F80C4004F00204D460A5
:101DF0000468A444DCF8045015F0080F5BD00824F4
:101E00001461046801F11B0C04EB0C146468C4F346
:101E100007249461046804EB0C146468240C546176
:101E2000026802EB0112D2F8B8211A70026802EBC4
:101E30000112D2F8B821C2F307225A70026802EBED
:101E40000112D2F8B821C2F307429A70026802EB7D
:101E50000112D2F8B821120EDA70026802EB0112F8
:101E6000D2F8BC211A71026802EB0112D2F8BC212F
:101E7000C2F307225A71026802EB0112D2F8BC21A8
:101E8000C2F307429A71026802EB0112D2F8BC2138
:101E9000120EDA71C1B90268D36843F02003D3602F
:101EA000002030BC7047056801F11B0424012C5947
:101EB000E408546092E701F11B0504EB0514646823
:101EC00004F00F0414619CE70268136943F02003D7
:101ED0001361E5E7436A43F48023436201207047BE
:101EE00090F82030013BDBB2012B05D9436A43F463
:101EF0008023436201207047026853690B4353619A
:101F000000207047704770477047704770477047B0
:101F10007047704770477047704770472DE9F84F1A
:101F2000054603685C69D3F804809F68D3F80CA069
:101F3000D3F81090D3F818B014F001063BD017F086
:101F4000010616D001229A6017F0020F08D117F08F
:101F5000040F0CD117F0080606D04FF4805608E0A5
:101F6000FFF7D0FF002604E0FFF7CFFF01E04FF4BA
:101F7000006617F4807F0DD02B684FF480729A6052
:101F800017F4007F40F0968017F4806F00F0968081
:101F900046F4005617F4803F0DD02B684FF4803282
:101FA0009A6017F4003F40F0938017F4802F00F000
:101FB000938046F4004614F0080F07D01AF0100F73
:101FC00004D046F400762B681022DA6014F0040F77
:101FD00003D01AF0080F40F0898014F0020F05D0EA
:101FE0002B68DB6813F0030F40F0878014F0400F7C
:101FF00007D019F0100F04D046F480662B68102229
:102000001A6114F0200F02D019F0080F79D114F0E2
:10201000100F04D02B681B6913F0030F78D114F450
:10202000003F02D018F0100F76D114F4803F02D098
:1020300018F0080F77D114F4004F37D018F0040FC0
:1020400031D014F4807F04D01BF0010F01D046F092
:10205000010614F4007F04D01BF0020F01D046F0FB
:10206000020614F4806F04D01BF0040F01D046F078
:10207000040614F4006F16D01BF0700B13D0BBF1E4
:10208000400F66D056D8BBF1200F5CD0BBF1300FAB
:102090005CD0BBF1100F01D146F008062A689369A5
:1020A00023F0700393612B6804225A60002E56D1EE
:1020B000BDE8F88F2846FFF726FF6BE717F4006F9F
:1020C00002D046F4804665E72846FFF71FFF61E728
:1020D0002846FFF719FF6EE717F4002F02D046F4E9
:1020E000803668E72846FFF712FF64E72B6808226E
:1020F000DA602846FFF70CFF6FE72846FEF70EFF71
:1021000074E72B6808221A612846FFF703FF7EE771
:102110002846FFF7FEFE82E72B6810225A60284609
:10212000FFF7F9FE81E72B6808225A602846FFF77F
:10213000F3FE80E7BBF1500F0ED0BBF1600FADD1C5
:1021400046F48076AAE746F01006A7E746F0200698
:10215000A4E746F04006A1E746F080069EE76B6ADA
:1021600033436B622846FFF7D8FEA1E7002807DB60
:1021700000F01F02400901239340024A42F8203038
:10218000704700BF00E100E0002808DB0901C9B288
:1021900000F1604000F5614080F80013704700F0E6
:1021A0000F000901C9B2014B1954704714ED00E04A
:1021B00000B500F00700C0F1070CBCF1040F28BF08
:1021C0004FF0040C031D062B0FD9C31E4FF0FF3E2A
:1021D0000EFA0CF021EA000199400EFA03FE22EA01
:1021E0000E0241EA02005DF804FB0023EEE7000066
:1021F000074AD36823F4E0631B041B0C000200F4BD
:10220000E060034343F0BF6343F40033D36070479F
:1022100000ED00E010B50446054BD868C0F302207D
:10222000FFF7C6FF01462046FFF7AEFF10BD00BF17
:1022300000ED00E008B5FFF799FF08BD30B4056870
:102240002C6824F480242C60046863608368402B2D
:1022500005D0036899600368DA6030BC7047036892
:102260009A600368D960F8E710B40368D9B21039EE
:102270000A4AA2FB01421209094CA25CC2655F290D
:1022800007D96FF3090304338365806D5DF8044B50
:1022900070476FF309038365F7E700BFABAAAAAAEB
:1022A000C0760008836A826992B9012B0AD0022B9A
:1022B00002D00BB100207047C36A13F0807F28D191
:1022C00000207047C36AB3F1C07F24D0002070475C
:1022D000B2F5005F09D0022B25D9032B25D1C36AA3
:1022E00013F0807F23D100207047032B03D8DFE851
:1022F00003F01404140A00207047C36A13F0807FAF
:102300000DD100207047C36AB3F1C07F09D000200F
:10231000704701207047012070470120704701205D
:10232000704701207047012070470020704701204E
:102330007047000070B50446FFF732FB002C5BD0FD
:102340000546022384F83530002384F834302268AF
:10235000136823F00103136023681A6812F0010F59
:102360000AD0FFF71DFB431B052BF5D9202363651E
:10237000032084F8350070BD1A6820491140626856
:10238000A0680243E0680243206902436069024397
:10239000A0690243E0690243206A02430A43616A7A
:1023A00004291ED01A602668756925F00705636A3E
:1023B0001D43042B07D1A36A1D43E36A1BB12046CA
:1023C000FFF770FF90B975612046FFF74DFFE26D92
:1023D0003F239340836000206065012384F83530FB
:1023E000C9E7E16A206B01430A43DBE740236365E9
:1023F000012084F83500BEE70120BCE73F8010F0E3
:1024000038B50446856D90F8340001282BD00120A2
:1024100084F8340094F83500C0B2012804D00023B9
:1024200084F83430022038BD022084F835000020C2
:1024300060652046FFF702FFE26D3F239340AB60EB
:102440002268136843F016031360236C23B12268DB
:10245000136843F0080313602268136843F0010314
:1024600013600020DFE70220DDE770B50446866DCB
:10247000FFF796FA94F83530DBB2022B06D08023B2
:102480006365002384F83430012070BD054622685E
:10249000136823F0160313602268536923F0800346
:1024A0005361236CE3B12268136823F008031360BF
:1024B0002268136823F00103136023681B6813F07C
:1024C000010F11D0FFF76CFA431B052BF5D9202320
:1024D0006365032084F83500002384F83430D4E7A2
:1024E000A36C002BDFD1E3E7E26D3F239340B360A1
:1024F000012384F83530002084F83400C5E790F8D3
:102500003530DBB2022B03D08023436501207047B6
:10251000052380F835300268136823F00103136047
:1025200000207047F0B583B0044600230193724B3E
:102530001D68724BA3FB0535AD0A876D3E68C26D01
:1025400008239340334210D003681A6812F0040F36
:102550000BD01A6822F004021A60C26D082393405F
:10256000BB60436D43F001034365E26D012393407B
:10257000334209D02268526912F0800F04D0BB6048
:10258000636D43F002036365E26D042393403342BD
:1025900009D02268126812F0020F04D0BB60636D8C
:1025A00043F004036365E26D10239340334224D06B
:1025B0002268126812F0080F1FD0BB6023681A68E7
:1025C00012F4802F0DD01B6813F4002F04D1236C5C
:1025D0009BB12046984710E0A36C73B12046984702
:1025E0000BE01A6812F4807F03D11A6822F0080207
:1025F0001A60236C0BB120469847E26D202393406C
:10260000334255D02268126812F0100F50D0BB60D0
:1026100094F83530DBB2052B0ED023681A6812F41B
:10262000802F33D01B6813F4002F2AD1636C002B4A
:102630003ED0204698473BE02268136823F01603FB
:1026400013602268536923F080035361236CA3B1A4
:102650002268136823F008031360E26D3F23934060
:10266000BB60012384F83530002384F83430236DB7
:10267000002B3FD0204698473CE0A36C002BE7D1CD
:10268000EBE7E36BA3B12046984711E01A6812F418
:10269000807F09D11A6822F010021A60012384F8A1
:1026A0003530002384F83430E36B0BB12046984773
:1026B000636DFBB1636D13F0010F17D0052384F830
:1026C00035302268136823F001031360019B013346
:1026D0000193AB4204D823681B6813F0010FF5D1B6
:1026E000012384F83530002384F83430E36C0BB1D7
:1026F0002046984703B0F0BD00000020B5814E1B76
:1027000000230F2B00F2E98070B582B065E0856888
:102710004FEA430E032404FA0EF425EA0405CC68BC
:1027200004FA0EF42C438460446824EA02044A68E4
:10273000C2F300129A40224342605CE0DC08083495
:1027400050F8242003F00705AD004FF00F0E0EFAED
:1027500005FE22EA0E0E0A69AA4042EA0E0240F87D
:1027600024205CE0072200E0002202FA0EF22A4355
:1027700002345A4D45F82420594A94686FEA0C02F5
:1027800024EA0C054E6816F4801F01D04CEA0405BB
:10279000534CA560E46802EA04054E6816F4001F75
:1027A00001D04CEA04054E4CE560646802EA040579
:1027B0004E6816F4003F01D04CEA0405484C6560B1
:1027C000246822404D6815F4803F01D04CEA040291
:1027D000434C226001330F2B7DD801229A400C68B4
:1027E00004EA020C32EA0404F4D14C6804F0030455
:1027F000013C012C8BD94A6802F00302032A09D05C
:10280000C4685D000322AA4024EA02048A68AA4040
:102810002243C2604A6802F00302022A8ED0046892
:102820004FEA430E032202FA0EF224EA02044A6837
:1028300002F0030202FA0EF2224302604A6812F426
:10284000403FC7D000220192264A546C44F4804491
:102850005464526C02F480420192019A9C08A51CB7
:102860001E4A52F8255003F0030E4FEA8E0E0F2237
:1028700002FA0EF225EA02051B4A90423FF474AFB9
:1028800002F5806290421AD002F58062904218D020
:1028900002F58062904216D002F58062904214D018
:1028A00002F58062904212D002F58062904210D010
:1028B00002F5806290423FF455AF082255E70122AD
:1028C00053E7022251E703224FE704224DE7052296
:1028D0004BE7062249E702B070BD7047003801405F
:1028E000003C014000380240000002400AB1816112
:1028F0007047090481617047002800F0E08170B5DD
:1029000082B00446036813F0010F3BD09F4B9B68D5
:1029100003F00C03042B2CD09C4B9B6803F00C039E
:10292000082B21D06368B3F5803F4FD0B3F5A02FBB
:1029300052D0964B1A6822F480321A601A6822F438
:1029400080221A606368002B50D0FFF729F80546F3
:102950008E4B1B6813F4003F14D1FFF721F8401B86
:102960006428F5D90320B1E1884B5B6813F4800F2C
:10297000D8D0864B1B6813F4003F03D06368002B4C
:1029800000F09F81236813F0020F54D07F4B9B68A7
:1029900013F00C0F3ED07D4B9B6803F00C03082B0B
:1029A00033D0E368002B68D0794B01221A60FEF720
:1029B000F7FF0546754B1B6813F0020F54D1FEF765
:1029C000EFFF401B0228F5D903207FE16F4A13680F
:1029D00043F480331360B5E76C4B1A6842F48022ED
:1029E0001A601A6842F480321A60ABE7FEF7D8FF2B
:1029F0000546664B1B6813F4003FC3D0FEF7D0FFBB
:102A0000401B6428F5D9032060E1604B5B6813F438
:102A1000800FC6D15D4B1B6813F0020F03D0E36833
:102A2000012B40F05081594A136823F0F8032169C3
:102A300043EAC1031360236813F0080F42D06369AF
:102A40006BB3534B0122C3F8802EFEF7A9FF054656
:102A50004E4B5B6F13F0020F34D1FEF7A1FF401B0A
:102A60000228F5D9032031E1484A136823F0F8031E
:102A7000216943EAC1031360DDE7454B00221A6078
:102A8000FEF78EFF0546414B1B6813F0020FD2D0B4
:102A9000FEF786FF401B0228F5D9032016E13C4BC8
:102AA0000022C3F8802EFEF77BFF0546374B5B6F95
:102AB00013F0020F06D0FEF773FF401B0228F5D972
:102AC000032003E1236813F0040F77D02F4B1B6C16
:102AD00013F0805F33D1002301932C4B1A6C42F02A
:102AE00080521A641B6C03F080530193019B0125F3
:102AF000284B1B6813F4807F23D0A368012B34D0AC
:102B0000052B38D0214B1A6F22F001021A671A6F79
:102B100022F004021A67A368002B3DD0FEF740FFA5
:102B200006461A4B1B6F13F0020F46D1FEF738FF13
:102B3000801B41F288339842F3D90320C6E0002578
:102B4000D6E7144A136843F480731360FEF728FF36
:102B50000646104B1B6813F4807FCED1FEF720FF92
:102B6000801B0228F5D90320B0E0084A136F43F018
:102B700001031367CFE7054B1A6F42F004021A678F
:102B80001A6F42F001021A67C5E700BF0038024021
:102B90000000474200700040FEF702FF0646524B1D
:102BA0001B6F13F0020F08D0FEF7FAFE801B41F2F4
:102BB00088339842F3D9032088E0EDB9A369002B4C
:102BC00000F08380484A926802F00C02082A51D033
:102BD000022B17D0454B00221A66FEF7E1FE044691
:102BE000414B1B6813F0007F42D0FEF7D9FE001B5B
:102BF0000228F5D9032069E03B4A136C23F0805387
:102C00001364DBE7394B00221A66FEF7C9FE05465E
:102C1000354B1B6813F0007F06D0FEF7C1FE401B4A
:102C20000228F5D9032051E0E369226A1343626A5E
:102C300043EA8213A26A5208013A43EA0243E26A73
:102C400043EA0263284A5360284B01221A66FEF7C2
:102C5000A7FE0446244B1B6813F0007F06D1FEF745
:102C60009FFE001B0228F5D903202FE000202DE055
:102C700000202BE0012B2BD01B4B5B6803F4800161
:102C8000E269914226D103F03F02216A8A4223D1B0
:102C9000616A47F6C0721A40B2EB811F1ED103F47D
:102CA0004031A26A5208013AB1EB024F18D103F049
:102CB0007063E26AB3EB026F14D1002006E00120DA
:102CC0007047012002E0012000E0002002B070BD4A
:102CD0000120FBE70120F9E70120F7E70120F5E7F4
:102CE0000120F3E70120F1E70038024000004742ED
:102CF00008B5264B9B6803F00C03042B41D0082B2E
:102D000041D1224B5A6802F03F025B6813F4800FF6
:102D100012D01E4B5968C1F388111D480023A1FB36
:102D20000001FDF7A3FD194B5B68C3F301430133B9
:102D30005B00B0FBF3F008BD144B5868C0F388107B
:102D40004FEA401CBCEB000C6EEB0E0E4FEA8E13EC
:102D500043EA9C634FEA8C11B1EB0C0163EB0E0369
:102D6000DB0043EA5173C90011EB000C43F100038F
:102D7000990200234FEA8C2041EA9C51FDF776FD31
:102D8000D1E70348D7E70348D5E700BF0038024042
:102D9000001BB7000024F400002800F09B8070B5F1
:102DA0000D4604464F4B1B6803F007038B4208D2C5
:102DB000CBB24C4A1370136803F007038B4240F008
:102DC0008B80236813F0020F17D013F0040F04D088
:102DD000454A936843F4E0539360236813F0080F67
:102DE00004D0414A936843F4604393603E4A936839
:102DF00023F0F003A1680B439360236813F0010FE5
:102E000032D06368012B21D09A1E012A25D9364A77
:102E1000126812F0020F61D033498A6822F003026F
:102E200013438B60FEF7BCFD06462F4B9B6803F0F7
:102E30000C036268B3EB820F16D0FEF7B1FD801B66
:102E400041F288339842F0D9032042E0264A1268C2
:102E500012F4003FE0D101203BE0234A126812F057
:102E6000007FD9D1012034E01E4B1B6803F007031B
:102E7000AB4207D9EAB21B4B1A701B6803F0070379
:102E8000AB422DD1236813F0040F06D0164A936885
:102E900023F4E053E1680B439360236813F0080FB9
:102EA00007D0114A936823F46043216943EAC103C0
:102EB0009360FFF71DFF0C4B9B68C3F303130B4A92
:102EC000D35CD8400A4B18600A4B1868FEF778F9B3
:102ED000002070BD012070470120FAE70120F8E7CB
:102EE0000120F6E7003C024000380240B0760008BE
:102EF0000000002008000020014B1868704700BF48
:102F00000000002008B5FFF7F7FF044B9B68C3F3F0
:102F10008223034AD35CD84008BD00BF003802407A
:102F2000A876000808B5FFF7E7FF044B9B68C3F3DA
:102F30004233034AD35CD84008BD00BF003802408A
:102F4000A87600080F2303600B4B9A6802F0030277
:102F500042609A6802F0F00282609A6802F4E052DD
:102F6000C2609B68DB0803F4E0530361034B1B68FA
:102F700003F007030B60704700380240003C02403A
:102F800030B4036A026A22F0010202624268846974
:102F900024F0730C0C6844EA0C0423F0020C8B68D8
:102FA00043EA0C03114DA84203D005F58065A84201
:102FB00005D123F00803CD682B4323F004030B4D08
:102FC000A84203D005F58065A84207D122F44072DB
:102FD0004D6945EA020C8A6942EA0C02426084614A
:102FE0004A684263036230BC704700BF0000014082
:102FF00030B4036A026A22F4807202624268C469D1
:1030000024F0730C0C6844EA0C0523F400738C68FC
:1030100043EA0423114CA04203D004F58064A0428B
:1030200006D123F40063CC6843EA042323F48063CD
:103030000A4CA04203D004F58064A04207D122F4D8
:1030400040524C6942EA04128C6942EA041242601E
:10305000C5614A68C263036230BC7047000001402A
:1030600030B4036A026A22F4805202624468C26980
:1030700022F4E6420D6842EA052223F400538D68EB
:1030800043EA0533094DA84203D005F58065A842FF
:1030900004D124F480444D6944EA85144460C2613B
:1030A0004A680264036230BC704700BF0000014000
:1030B00010B4036A046A24F001040462846924F0F1
:1030C000F00C4CEA021223F00A030B438261036204
:1030D0005DF8044B704710B4036A046A24F01004CE
:1030E0000462846924F4704C4CEA023223F0A00399
:1030F00043EA0113826103625DF8044B7047836801
:1031000023F070030B4343F0070383607047000014
:1031100090F83D30DBB2012B37D1022380F83D30EF
:103120000268D36843F00103D3600368194A9342ED
:1031300020D0B3F1804F1DD0A2F57C42934219D02C
:1031400002F58062934215D002F58062934211D05D
:1031500002F5784293420DD002F57052934209D0A5
:10316000A2F59432934205D01A6842F001021A6027
:10317000002070479A6802F00702062A07D01A68F2
:1031800042F001021A6000207047012070470020C1
:10319000704700BF0000014070477047704770479C
:1031A000704770B504460368DE681D6915F0020FAC
:1031B00010D016F0020F0DD06FF002021A61012339
:1031C000037703689B6913F0030F5ED0FFF7E6FFF8
:1031D0000023237715F0040F12D016F0040F0FD040
:1031E00023686FF004021A610223237723689B6926
:1031F00013F4407F4FD02046FFF7D0FF0023237702
:1032000015F0080F12D016F0080F0FD023686FF0DA
:1032100008021A61042323772368DB6913F0030F84
:1032200040D02046FFF7BAFF0023237715F0100F98
:1032300012D016F0100F0FD023686FF010021A6131
:10324000082323772368DB6913F4407F31D02046BD
:10325000FFF7A4FF0023237715F0010F02D016F02B
:10326000010F2DD115F0800F02D016F0800F2FD155
:1032700015F0400F02D016F0400F31D115F0200F9D
:1032800002D016F0200F33D170BDFFF786FF204625
:10329000FFF785FF9CE72046FFF77FFF2046FFF7FB
:1032A0007EFFABE72046FFF778FF2046FFF777FF6A
:1032B000BAE72046FFF771FF2046FFF770FFC9E726
:1032C00023686FF001021A612046FDF7DDFEC9E7B1
:1032D00023686FF080021A61204600F009FBC7E7FF
:1032E00023686FF040021A612046FFF759FFC5E7D7
:1032F00023686FF020021A61204600F0F8FAC3E755
:103300000368344A904212D0B0F1804F0FD0A2F53A
:103310007C4290420BD002F58062904207D002F5C9
:103320008062904203D002F57842904203D123F0AC
:1033300070034A681343274A90422AD0B0F1804F65
:1033400027D0A2F57C42904223D002F580629042C1
:103350001FD002F5806290421BD002F57842904265
:1033600017D002F57052904213D002F5806290425D
:103370000FD002F5806290420BD0A2F598329042B5
:1033800007D002F58062904203D002F5806290423D
:1033900003D123F44073CA68134323F080034A69BE
:1033A000134303608B68C3620B688362094B9842C6
:1033B00003D003F58063984201D10B6903630123B5
:1033C0004361036913F0010F03D0036923F0010384
:1033D000036170470000014040B310B5044690F807
:1033E0003D30F3B1022384F83D30214651F8040BFF
:1033F000FFF786FF012384F8463084F83E3084F8D6
:103400003F3084F8403084F8413084F8423084F80A
:10341000433084F8443084F8453084F83D3000204F
:1034200010BD80F83C30FDF789FFDBE701207047D5
:1034300040B310B5044690F83D30F3B1022384F850
:103440003D30214651F8040BFFF75AFF012384F861
:10345000463084F83E3084F83F3084F8403084F8B9
:10346000413084F8423084F8433084F8443084F8A2
:10347000453084F83D30002010BD80F83C30FFF727
:103480008BFEDBE70120704730B4036A026A22F04A
:10349000100202624468826922F4E6420D6842EA40
:1034A000052223F020038D6843EA0513114DA8423D
:1034B00003D005F58065A84206D123F08003CD68CE
:1034C00043EA051323F040030A4DA84203D005F553
:1034D0008065A84207D124F440644D6944EA85041C
:1034E0008D6944EA8504446082614A6882630362AC
:1034F00030BC70470000014038B590F83C30012BDB
:1035000066D004460D46012380F83C300C2A5AD878
:10351000DFE802F0075959591B595959305959597F
:1035200044000068FFF72CFD2268936943F008030C
:1035300093612268936923F004039361226893697D
:1035400029690B43936100203EE00068FFF79CFF70
:103550002268936943F4006393612268936923F4BA
:103560008063936122689369296943EA0123936127
:10357000002029E00068FFF73BFD2268D36943F093
:103580000803D3612268D36923F00403D36122685E
:10359000D36929690B43D361002015E00068FFF768
:1035A0005FFD2268D36943F40063D3612268D36965
:1035B00023F48063D3612268D369296943EA012334
:1035C000D361002000E00120002384F83C3038BDA6
:1035D0000220FCE710B4846824F47F4C42EA032202
:1035E0000A4342EA0C0282605DF8044B704790F88F
:1035F0003C30012B78D010B50446012380F83C30D4
:10360000022380F83D300268936823F47F4323F05F
:10361000770393600B68602B4CD023D8402B54D099
:1036200011D8202B03D00AD80BB1102B05D1194685
:103630002068FFF764FD002028E0012026E0302B01
:10364000F5D0012022E0502B0AD1CA6849680068F1
:10365000FFF72EFD50212068FFF751FD002015E0F7
:10366000012013E0B3F5805F3AD0B3F5005F14D0CA
:10367000702B37D1CB684A6889680068FFF7AAFFCA
:103680002268936843F0770393600020012384F855
:103690003D30002384F83C3010BDCB684A6889680F
:1036A0000068FFF797FF2268936843F480439360B4
:1036B0000020EBE7CA6849680068FFF70CFD60214D
:1036C0002068FFF71CFD0020E0E7CA684968006831
:1036D000FFF7EEFC40212068FFF711FD0020D5E741
:1036E0000020D3E70120D1E70220704701F01F013D
:1036F0004FF0010C0CFA01FC036A23EA0C0303628D
:10370000036A8A40134303627047000010B5044601
:103710000846002942D194F83E30DBB2013B18BF85
:103720000123002B6ED1002851D1022384F83E30B2
:10373000012201462068FFF7D9FF2368334A9342EC
:1037400003D002F58062934203D15A6C42F40042E6
:103750005A6423682D4A934249D0B3F1804F46D032
:10376000A2F57C42934242D002F5806293423ED061
:1037700002F5806293423AD002F57842934236D005
:1037800002F57052934232D0A2F5943293422ED079
:103790001A6842F001021A60002032E0042908D0C1
:1037A00008290DD094F84130DBB2013B18BF01234A
:1037B000B7E794F83F30DBB2013B18BF0123B0E715
:1037C00094F84030DBB2013B18BF0123A9E704287D
:1037D00005D0082807D0022384F84130A8E7022347
:1037E00084F83F30A4E7022384F84030A0E79A68C9
:1037F00002F00702062A07D01A6842F001021A6096
:10380000002010BD0120FCE70020FAE70000014085
:1038100090F83C20012A3DD010B40346012280F8E4
:103820003C20022280F83D2002685068946820F015
:10383000700C086840EA0C0050601A681648824212
:103840001AD0B2F1804F17D0A0F57C40824213D03D
:1038500000F5806082420FD000F5806082420BD07C
:1038600000F57840824207D000F57050824203D0C4
:10387000A0F59430824204D124F0800449682143A9
:103880009160012283F83D20002083F83C005DF820
:10389000044B70470220704700000140024690F838
:1038A0003C30012B21D0012380F83C30CB6823F43D
:1038B00040738868034323F480634868034323F418
:1038C00000630868034323F480530869034323F427
:1038D00000534869034323F48043C9690B431168CB
:1038E0004B64002082F83C0070470220704770470C
:1038F0007047026802F10C0353E8003F23F0C00355
:103900000C3242E800310029F3D1202380F8413005
:103910007047026802F10C0353E8003F23F49073F0
:103920000C3242E800310029F3D1026802F114039D
:1039300053E8003F23F00103143242E8003100292C
:10394000F3D1036B012B05D0202380F842300023F4
:1039500003637047026802F10C0353E8003F23F051
:1039600010030C3242E800310029F3D1ECE790F863
:103970004130DBB2212B01D0022070478368B3F5C0
:10398000805F17D0036A5A1C02621A7803685A6073
:10399000C38C9BB2013B9BB2C3844BB90268D36812
:1039A00023F08003D3600268D36843F04003D36000
:1039B000002070470369002BE4D1036A1B8802686A
:1039C000C3F308035360036A02330362E0E70000B5
:1039D00010B504460268136923F44053C1680B43D1
:1039E0001361836802691A4343691A43C3691A431E
:1039F0000168CB6823F4164323F00C031343CB6018
:103A00000268536923F4407381690B43536103686F
:103A1000314A934206D002F58062934202D0FFF70A
:103A200071FA01E0FFF77EFAE369B3F5004F29D0A0
:103A30000021031849411B1841F10001C90041EA66
:103A40005371DB00181863684FEA83024FEA9373DF
:103A500041F10001FCF70AFF204AA2FB00314909AD
:103A6000642303FB11031B013233A2FB03235B0915
:103A700003F0F00202EB011203F00F03216813447C
:103A80008B6010BD0023021843EB0301121841F1B3
:103A90000001C90041EA5271D200101841F1000141
:103AA000626892185B41FCF7E1FE0C4AA2FB003110
:103AB0004909642303FB1103DB003233A2FB032318
:103AC0005B095A0002F4F87202EB011203F00703DB
:103AD000216813448B60D4E7001001401F85EB512F
:103AE00060B310B5044690F8413013B3242384F832
:103AF00041302268D36823F40053D3602046FFF797
:103B000067FF2268136923F49043136122685369A5
:103B100023F02A0353612268D36843F40053D3602F
:103B200000206064202384F8413084F842306063D0
:103B300010BD80F84030FDF719FDD7E70120704730
:103B4000704708B50168CA6822F04002CA602022A6
:103B500080F84120FFF7F4FF002008BD7047704750
:103B600010B5846B23685A6994F84130DBB2212B7D
:103B700010D023685A6902F0400294F84230DBB258
:103B8000222B11D0636C43F0100363642046FFF7CF
:103B9000E6FF10BD02F08002002AEAD00023E38491
:103BA0002046FFF7A6FEE4E7002AEBD00023E385DA
:103BB0002046FFF7AEFEE5E708B5806B0023C3851E
:103BC000C384FFF7CCFF08BD704790F84230DBB2EA
:103BD000222B69D18368B3F5805F4FD0826AB3F539
:103BE000805F04D0002B56D10369002B53D10368AA
:103BF0005B681370836A01338362C38D9BB2013BA0
:103C00009BB2C385002B51D100B583B00268D36845
:103C100023F02003D3600268D36823F48073D36059
:103C20000268536923F001035361202380F8423076
:103C300000234363036B012B33D10023036302682A
:103C400002F10C0353E8003F23F010030C3242E86A
:103C500000310029F3D103681A6812F0100F06D062
:103C6000002201921A6801925B680193019B818D89
:103C7000FFF7AAFF002003B05DF804FB0269002AE9
:103C8000ACD1826A03685B68C3F308031380836A5C
:103C900002338362B1E703685B6803F07F0313704C
:103CA000A8E7FDF72DF9E5E70220704700207047EF
:103CB00010B582B0044602681368D068516913F0E9
:103CC0000F0F09D113F0200F0CD010F0200F09D0E6
:103CD0002046FFF77AFF16E011F0010115D110F42C
:103CE000907F12D1216B012979D013F0800F03D07E
:103CF00010F0800F40F0148113F0400F03D010F04B
:103D0000400F40F0118102B010BD13F0010F06D03A
:103D100010F4807F03D0626C42F00102626413F001
:103D2000040F04D019B1626C42F00202626413F015
:103D3000020F04D019B1626C42F00402626413F005
:103D4000080F07D010F0200F00D119B1626C42F0BB
:103D500008026264626C002AD5D013F0200F02D0F2
:103D600010F0200F29D123685B6903F04003626CD7
:103D700012F0080F00D163B32046FFF7CAFD236895
:103D80005B6913F0400F20D0226802F1140353E85E
:103D9000003F23F04003143242E800310029F3D100
:103DA000E36B73B1624A1A65E06BFEF7A8FB00286B
:103DB000A9D0E06B036D9847A5E72046FFF705FF04
:103DC000D1E72046FFF7CBFE9DE72046FFF7C7FE71
:103DD00099E72046FFF7C3FE0023636493E713F0DF
:103DE000100F82D010F0100F3FF47FAF002301932B
:103DF0001368019353680193019B536913F0400FBB
:103E000052D0E26B13685B689BB2002B3FF47BAF30
:103E1000A18D99427FF677AFE385D369B3F5807FB3
:103E200037D0226802F10C0353E8003F23F480737B
:103E30000C3242E800310029F3D1226802F1140368
:103E400053E8003F23F00103143242E80031002917
:103E5000F3D1226802F1140353E8003F23F040033A
:103E6000143242E800310029F3D1202384F8423093
:103E700000232363226802F10C0353E8003F23F080
:103E800010030C3242E800310029F3D1E06BFEF759
:103E9000ECFA02236363A18DE38D9BB2C91A89B248
:103EA0002046FFF791FE2EE7A18DE38D9BB2C91A44
:103EB00089B2E38D9BB2002B3FF425AF00293FF47C
:103EC00022AF226802F10C0353E8003F23F4907301
:103ED0000C3242E800300028F3D1226802F11403CA
:103EE00053E8003F23F00103143242E80030002879
:103EF000F3D1202384F8423000232363226802F1A7
:103F00000C0353E8003F23F010030C3242E800306A
:103F10000028F3D1022363632046FFF755FEF2E643
:103F20002046FFF724FDEEE62046FFF70AFEEAE60C
:103F3000B93B000808B5806B01234363036B012B79
:103F400002D0FFF70BFE08BD818D4908FFF73CFE4C
:103F5000F9E708B50346806B1B681B6813F4807F84
:103F60002BD10023C385026802F10C0353E8003F04
:103F700023F480730C3242E800310029F3D1026847
:103F800002F1140353E8003F23F00103143242E826
:103F900000310029F3D1026802F1140353E8003F15
:103FA00023F04003143242E800310029F3D12023EA
:103FB00080F84230036B012B07D000234363036B6F
:103FC000012B0FD0FCF79CFF08BD026802F10C0327
:103FD00053E8003F23F010030C3242E8003100297F
:103FE000F3D1EAE7818DFFF7EFFDEDE730B583B060
:103FF000044613468162828500254564222280F8AA
:104000004220C26B1F48D063E26B1F481064E26B12
:104010001E48D064E26B156520680A46011DE06BFE
:10402000FEF7EEF9019523681A6801925B68019327
:10403000019B23695BB1226802F10C0353E8003F46
:1040400043F480730C3242E800310029F3D1226836
:1040500002F1140353E8003F43F00103143242E835
:1040600000310029F3D1226802F1140353E8003F24
:1040700043F04003143242E800310029F3D100201C
:1040800003B030BD533F0008353F0008613B0008D6
:1040900008B590F84230DBB2202B08D149B10AB9FB
:1040A000012008BD00230363FFF7A0FFF9E702200A
:1040B000F7E70120F5E708B54FF0E0231B6901F0B1
:1040C000EFFE012800D108BD00F094FAFBE70000E4
:1040D000EFF305832BB9064B186828B901221A6043
:1040E00070476FF0050070474FF0FF30704700BF1A
:1040F00018130020EFF3058373B90A4B1B68012BDB
:104100000DD110B50024084BDC77064B02221A6053
:1041100001F014FC204610BD6FF0050070474FF011
:10412000FF3070471813002000ED00E0F0B587B0B5
:1041300000240594EFF305847CBB70B32AB31568A3
:10414000936903B918235C1E372C4AD8546814F0BD
:10415000010F48D1566976B14FEA960C946834B194
:10416000D768B7F5D07F02D3176907B1C6B92CB1AC
:104170004FF0FF340EE04FF0800CEFE7D4688CB9BD
:10418000146994B14FF0FF3404E01546002418235D
:104190004FF0800C012C0AD0ACB1059807B0F0BDEF
:1041A0000124F7E74FF0FF34F4E70024F2E7146945
:1041B00092680292019400930B466246294601F0F0
:1041C0004DFB0590E9E705AA019200930B461FFA03
:1041D0008CF2294601F07FFB0128DED000230593F5
:1041E000DBE70020DAE70020D8E708B5EFF3058326
:1041F00033B908B9002008BD01F00CFD0020FAE732
:104200006FF00500F7E770B582B0EFF30583002B80
:1042100048D10E461446002848D0884248D34AB1B7
:10422000956815B1D3684F2B14D8002D42D1E3689F
:104230000BB138E0002301280ED06BBB314600F0F3
:104240006DFD05467DB304B124682146284601F082
:10425000E1F828E00123EEE7ABB9032200210120B9
:1042600000F015FD0546F5B1002EEBD000231A46EF
:104270001946284600F070FD0128E3D0284601F0D9
:10428000F3F800250FE0A3680322009200221146F4
:1042900000F0B3FC0546E6E7A268314600F01BFDDE
:1042A0000546CFE70025284602B070BD0025FAE795
:1042B0000025F8E70025F6E720B310B582B00C46DC
:1042C000EFF30583B3B101BB0021019101AA01F015
:1042D00049F801281CD1019850B14FF0E0234FF06C
:1042E0008052C3F8042DBFF34F8FBFF36F8F0020B0
:1042F00002B010BD00F063FF01280CD06CB16FF06C
:104300000100F5E76FF0030070476FF00300EFE77F
:104310006FF00200ECE70020EAE76FF00200E7E749
:1043200020B300B583B0EFF30583A3B1002301935D
:1043300001A900F03CFE01281BD1019898B14FF073
:10434000E0234FF08052C3F8042DBFF34F8FBFF32B
:104350006F8F002007E000231A46194600F0FCFC8E
:10436000012809D1002003B05DF804FB6FF00300C1
:1043700070476FF00200F6E76FF00200F3E700000D
:10438000034B0360034B0B6080231360704700BF37
:1043900078110020780F0020034B0360034B0B6063
:1043A0004FF4807313607047D80D0020D4090020AB
:1043B00000F1080343604FF0FF328260C360036185
:1043C00000230360704700230361704743684B601C
:1043D0009A688A60516099600861036801330360DC
:1043E000704730B40D68B5F1FF3F11D000F10803FC
:1043F0001C465B681A68AA42FAD963684B609960E8
:104400008C606160086103680133036030BC7047F1
:104410000469F2E70369416882688A604168516013
:104420005A68824206D0002202611A68013A1A6074
:104430001868704782685A60F5E7000082B0002370
:1044400001930D4B1B68B3F1FF3F08D04FF05003B1
:1044500083F31188BFF36F8FBFF34F8FFEE74FF0E9
:10446000500383F31188BFF36F8FBFF34F8F019B0E
:10447000002BFCD002B070470C00002008480068F8
:10448000006880F308884FF0000080F3148862B65B
:1044900061B6BFF34F8FBFF36F8F00DF00BF000027
:1044A00008ED00E0DFF80C00016841F470010160E4
:1044B0007047000088ED00E04FF0807340F8043C46
:1044C00021F0010140F8081C054B40F80C3C40F875
:1044D000202C6FF0020340F8243C4438704700BFA2
:1044E0003D44000800000000000000000000000043
:1044F000074B19680868B0E8F04F80F30988BFF3EC
:104500006F8F4FF0000080F311887047AFF3008089
:10451000808001204FF0500383F31188BFF36F8F29
:10452000BFF34F8F0B4A136801331360012B00D088
:1045300070474FF0E023D3F8043D13F0FF0FF7D09E
:104540004FF0500383F31188BFF36F8FBFF34F8F8A
:10455000FEE700BF0C000020094B1B6843B94FF079
:10456000500383F31188BFF36F8FBFF34F8FFEE7C4
:10457000013B034A13600BB983F31188704700BFF6
:104580000C000020000000000000000000000000FF
:10459000EFF30980BFF36F8F154B1A681EF0100FF1
:1045A00008BF20ED108A20E9F04F10602DE90900C6
:1045B0004FF0500080F31188BFF34F8FBFF36F8F20
:1045C00001F04EFB4FF0000080F3118809BC196820
:1045D0000868B0E8F04F1EF0100F08BFB0EC108A6A
:1045E00080F30988BFF36F8F704700BFAFF300807F
:1045F0008080012008B54FF0500383F31188BFF38A
:104600006F8FBFF34F8F01F0FDF928B14FF0E0231A
:104610004FF08052C3F8042D002383F3118808BDA6
:104620004FF0E022002313619361054B1B6805499D
:10463000A1FB03139B09013B5361072313617047DF
:1046400000000020D34D62104FF0E023D3F8002D7E
:104650003D4B9A421CD04FF0E023D3F8002D3B4B4A
:104660009A421ED030B583B0394B1A78D2B201923B
:10467000FF221A701B78DBB28DF803309DF80330EF
:1046800003F05003334A1370334B07221A601BE0C8
:104690004FF0500383F31188BFF36F8FBFF34F8F39
:1046A000FEE74FF0500383F31188BFF36F8FBFF322
:1046B0004F8FFEE7284A1368013B13609DF80330D3
:1046C0005B00DBB28DF803309DF8033013F0800FF0
:1046D000F0D1214B1B68032B08D04FF0500383F31C
:1046E0001188BFF36F8FBFF34F8FFEE71B021A4A8B
:1046F000136003F4E0631360019BDBB2144A137090
:104700004FF0E024D4F8203D43F47003C4F8203D7A
:10471000D4F8203D43F07043C4F8203DFFF780FFFC
:1047200000250E4B1D60FFF7BDFED4F8343F43F06B
:104730004043C4F8343FFFF7A1FE01F091FAFFF7C0
:104740007DFE284603B030BD71C20F4170C20F41DB
:1047500000E400E0201300201C1300200C000020C7
:10476000EFF305830F2B0FD9114A9B5CDBB2114A83
:1047700012789A4208D94FF0500383F31188BFF39F
:104780006F8FBFF34F8FFEE74FF0E023D3F80C3D60
:1047900003F4E063084A1268934208D94FF05003CB
:1047A00083F31188BFF36F8FBFF34F8FFEE770471E
:1047B000F0E300E0201300201C130020124A12F046
:1047C000070F1ED0D11D21F00701C1F5B4331344EA
:1047D0000A460E480260002141601344083B23F062
:1047E00007030B48036059601960991A5160136000
:1047F000084B1960084B1960084B4FF000421A60D3
:1048000070474FF4B433E4E7441300203C13002016
:10481000381300203013002034130020241300200C
:10482000164B1A461B688342FBD3516802EB010CFE
:10483000844509D0416800EB010C634509D0036051
:10484000904219D010607047406801445160104692
:10485000F0E710B40A4C2468A3420BD05B681944FB
:10486000416013681B680360904200D010605DF8DF
:10487000044B70470460F7E7704700BF3C1300200B
:104880003813002038B5044601F0AEF8384B1B68E9
:10489000B3B1384B1B681C4250D1002C50D004F1EE
:1048A000080214F0070F02D022F007020832002A93
:1048B00055D0314B1B68934253D330490C6804E008
:1048C000FFF77CFFE5E721461C466368934202D26E
:1048D0002368002BF7D1264B1B68A34243D00D68F9
:1048E000083523680B6063689B1A102B10D9A01839
:1048F00010F0070F08D04FF0500383F31188BFF377
:104900006F8FBFF34F8FFEE743606260FFF788FF52
:10491000626819490B689B1A0B60194909688B4238
:1049200001D217490B60134B1B68134363600023CC
:104930002360144A13680133136002E0002500E08D
:10494000002501F0EBF815F0070F0ED04FF05003E3
:1049500083F31188BFF36F8FBFF34F8FFEE70025FE
:10496000EFE70025EDE70025EBE7284638BD00BF5F
:104970003813002024130020341300203C1300209F
:10498000301300202C130020002834D038B5044602
:10499000A0F1080550F8043C174A1268134208D1E8
:1049A0004FF0500383F31188BFF36F8FBFF34F8F26
:1049B000FEE750F8081C41B14FF0500383F3118813
:1049C000BFF36F8FBFF34F8FFEE723EA020340F878
:1049D000043C01F009F854F8041C084A13680B441D
:1049E00013602846FFF71CFF054A13680133136064
:1049F00001F094F838BD70472413002034130020D0
:104A0000281300200346406A18B11B6B1868C0F1D8
:104A10003800704710B50446FFF77CFDA26BE36BCE
:104A20009A4204D00024FFF797FD204610BD0124D0
:104A3000F9E710B50446FFF76DFDA36B23B9012418
:104A4000FFF78AFD204610BD0024F9E770B5044643
:104A50001546866B026C5AB903681BB100200136FB
:104A6000A66370BD806801F077FA0023A360F6E7C3
:104A70006DB94068FBF734FF6368226C13446360D0
:104A8000A268934219D3236863602846E7E7C068A9
:104A9000FBF726FFE368226C51429B1AE360226811
:104AA000934202D2A3680B44E360022D01D00020A0
:104AB000D5E726B1013E0020D1E72846CFE7002008
:104AC000CDE70346026C6AB110B50846D9681144B7
:104AD000D9609C68A14201D31968D960D968FBF7F5
:104AE000FFFE10BD704738B50546FFF713FD95F87A
:104AF000454064B201E0013C64B2002C0ADD6B6AFF
:104B000043B105F1240001F031F90028F3D001F0A0
:104B1000C1F9F0E7FF2385F84530FFF71DFDFFF7EA
:104B2000F9FC95F8444064B201E0013C64B2002C09
:104B30000ADD2B6943B105F1100001F017F90028D7
:104B4000F3D001F0A7F9F0E7FF2385F84430FFF731
:104B500003FD38BD38B5E0B10D460446FFF7DAFC79
:104B60002368E26B216C01FB0230A0600020A0638F
:104B70006360013A02FB0133E360FF2384F84430B1
:104B800084F84530FDB9236963B9FFF7E5FC0120DE
:104B900038BD4FF0500383F31188BFF36F8FBFF31D
:104BA0004F8FFEE704F1100001F0E0F80028ECD090
:104BB0004FF0E0234FF08052C3F8042DBFF34F8F26
:104BC000BFF36F8FE1E704F11000FFF7F1FB04F191
:104BD0002400FFF7EDFBD8E738B51D46049C0B46D3
:104BE00049B92460E063236401212046FFF7B2FF46
:104BF00084F84C5038BD2260F4E740B94FF05003C0
:104C000083F31188BFF36F8FBFF34F8FFEE710B5AB
:104C100084B01C46844653B192B189B94FF0500319
:104C200083F31188BFF36F8FBFF34F8FFEE74FF011
:104C3000500383F31188BFF36F8FBFF34F8FFEE7ED
:104C40006AB150230393039B502B13D04FF05003B2
:104C500083F31188BFF36F8FBFF34F8FFEE70029F7
:104C6000EFD04FF0500383F31188BFF36F8FBFF382
:104C70004F8FFEE7039B012384F8463000949DF894
:104C800018306046FFF7A8FF204604B010BD40B9B9
:104C90004FF0500383F31188BFF36F8FBFF34F8F33
:104CA000FEE7F0B583B00D461446064601FB00F062
:104CB0005030FFF7E7FD074650B1002380F846303B
:104CC0000090234600F1500229463046FFF784FF4A
:104CD000384603B0F0BD40B94FF0500383F311885C
:104CE000BFF36F8FBFF34F8FFEE710B582B00C4656
:104CF000884208D24FF0500383F31188BFF36F8FBF
:104D0000BFF34F8FFEE702230093134600221146A4
:104D1000FFF773FF00B1846302B010BD40B94FF0DC
:104D2000500383F31188BFF36F8FBFF34F8FFEE7FC
:104D300010B50C46884208D24FF0500383F3118817
:104D4000BFF36F8FBFF34F8FFEE702220021FFF703
:104D50009EFF00B1846310BDF0B585B0019288B1AB
:104D60000F461D460446B1B1022D20D1E36B012B45
:104D70001DD04FF0500383F31188BFF36F8FBFF343
:104D80004F8FFEE74FF0500383F31188BFF36F8F0F
:104D9000BFF34F8FFEE7036C002BE5D04FF05003BD
:104DA00083F31188BFF36F8FBFF34F8FFEE701F0DE
:104DB00077F8064658B9019B002B48D04FF05003B6
:104DC00083F31188BFF36F8FBFF34F8FFEE7002689
:104DD0003DE02A4639462046FFF738FE636A7BB934
:104DE00048B14FF0E0234FF08052C3F8042DBFF3D9
:104DF0004F8FBFF36F8FFFF7AFFB012005B0F0BD02
:104E000004F1240000F0B2FF0028F4D04FF0E023BA
:104E10004FF08052C3F8042DBFF34F8FBFF36F8F55
:104E2000E9E7FFF799FB0020E8E702A800F0E4FFBC
:104E3000012619E0002384F8443021E0002384F89F
:104E4000453023E02046FFF74EFE00F067FEFFF7F7
:104E500061FBA26BE36B9A42BBD3022DB9D0019BDD
:104E6000002BDED0002EE0D0FFF776FB00F0BCFD7B
:104E7000FFF750FB94F8442052B2B2F1FF3FD9D073
:104E800094F8452052B2B2F1FF3FD7D0FFF764FB50
:104E900001A902A800F0BCFFD8B92046FFF7BAFD6F
:104EA0000028CFD0019904F1100000F02BFF20461C
:104EB000FFF719FE00F032FE0028C8D14FF0E023C2
:104EC0004FF08052C3F8042DBFF34F8FBFF36F8FA5
:104ED000BDE72046FFF707FE00F020FE00208DE72B
:104EE0002DE9F84390B10F4616461C460546B1B170
:104EF000022C20D1EB6B012B1DD04FF0500383F31C
:104F00001188BFF36F8FBFF34F8FFEE74FF0500351
:104F100083F31188BFF36F8FBFF34F8FFEE7036CEE
:104F2000002BE5D04FF0500383F31188BFF36F8F50
:104F3000BFF34F8FFEE7FFF713FCEFF311884FF03D
:104F4000500383F31188BFF36F8FBFF34F8FAA6BAA
:104F5000EB6B9A4206D3022C04D0002088F3118810
:104F6000BDE8F88395F845904FFA89F9AB6B224676
:104F700039462846FFF76AFDB9F1FF3F06D009F12F
:104F800001035BB285F845300120E7E76B6A0BB996
:104F90000120E3E705F1240000F0E8FE18B126B196
:104FA00001203060DAE70120D8E70120D6E768B1B8
:104FB00070B50C460546036C8BB14FF0500383F37C
:104FC0001188BFF36F8FBFF34F8FFEE74FF0500391
:104FD00083F31188BFF36F8FBFF34F8FFEE7036832
:104FE000EBB1FFF7BDFBEFF311864FF0500383F3F6
:104FF0001188BFF36F8FBFF34F8FAA6BEB6B934298
:1050000026D995F845305BB20132AA63B3F1FF3F70
:1050100011D001335BB285F84530012019E0836877
:10502000002BDED04FF0500383F31188BFF36F8F56
:10503000BFF34F8FFEE76B6A0BB9012009E005F162
:10504000240000F093FE38B144B10120206000E05C
:10505000002086F3118870BD0120FAE70120F8E7EF
:10506000F0B585B0019290B10F460446C1B100F091
:1050700017FF064600BB019B002B5ED04FF050038C
:1050800083F31188BFF36F8FBFF34F8FFEE74FF0AD
:10509000500383F31188BFF36F8FBFF34F8FFEE789
:1050A000036C002BE3D04FF0500383F31188BFF360
:1050B0006F8FBFF34F8FFEE700263EE03946204654
:1050C000FFF7FFFC013DA563236923B9FFF744FA0D
:1050D000012005B0F0BD04F1100000F047FE0028EB
:1050E000F4D04FF0E0234FF08052C3F8042DBFF30B
:1050F0004F8FBFF36F8FE9E7FFF72EFA0020E8E745
:1051000002A800F079FE012621E0002384F8443053
:1051100029E0002384F845302BE02046FFF7E3FC2C
:1051200000F0FCFC09E02046FFF7DDFC00F0F6FC97
:105130002046FFF77EFC00283FD1FFF7EBF9A56B77
:10514000002DBBD1019B002BD6D0002ED8D0FFF76D
:1051500003FA00F049FCFFF7DDF994F844305BB244
:10516000B3F1FF3FD1D094F845305BB2B3F1FF3FCC
:10517000CFD0FFF7F1F901A902A800F049FE0028FD
:10518000D1D12046FFF755FC0028C6D0019904F183
:10519000240000F0B7FD2046FFF7A5FC00F0BEFCA0
:1051A0000028CAD14FF0E0234FF08052C3F8042DFD
:1051B000BFF34F8FBFF36F8FBFE7002089E770B554
:1051C00084B0019158B10446036C8BB14FF0500389
:1051D00083F31188BFF36F8FBFF34F8FFEE74FF05C
:1051E000500383F31188BFF36F8FBFF34F8FFEE738
:1051F00000F056FE054650B9019B5BB14FF05003DD
:1052000083F31188BFF36F8FBFF34F8FFEE7002644
:10521000354655E0064653E0013BA36323683BB1A6
:1052200023694BB9FFF798F90126304604B070BDE9
:1052300000F02AFFA060F3E704F1100000F096FDF3
:105240000028EFD04FF0E0234FF08052C3F8042D38
:10525000BFF34F8FBFF36F8FE4E746B14FF05003BA
:1052600083F31188BFF36F8FBFF34F8FFEE7FFF714
:1052700073F9DAE702A800F0BFFD01252AE0002358
:1052800084F8443032E0002384F8453034E0FFF7FE
:1052900041F9A06800F014FE0646FFF75DF93BE017
:1052A0002046FFF720FC00F039FC09E02046FFF71C
:1052B0001AFC00F033FC2046FFF7BBFB002842D16C
:1052C000FFF728F9A36B002BA6D1019B002BC4D0BC
:1052D000002DCFD0FFF740F900F086FBFFF71AF959
:1052E00094F844305BB2B3F1FF3FC8D094F8453036
:1052F0005BB2B3F1FF3FC6D0FFF72EF901A902A8B8
:1053000000F086FD0028D1D12046FFF792FB00284F
:10531000C6D02368002BBAD0019904F1240000F014
:10532000F1FC2046FFF7DFFB00F0F8FB0028C7D1B7
:105330004FF0E0234FF08052C3F8042DBFF34F8F9E
:10534000BFF36F8FBCE70EB900266EE7FFF7E2F8F8
:105350002046FFF757FB0146A06800F045FEFFF727
:10536000FBF8F1E72DE9F843B0B10D46904604464D
:10537000D9B1FFF7F5F9EFF311874FF0500383F33D
:105380001188BFF36F8FBFF34F8FA66BCEB900208C
:1053900087F31188BDE8F8834FF0500383F3118839
:1053A000BFF36F8FBFF34F8FFEE7036C002BE0D08E
:1053B0004FF0500383F31188BFF36F8FBFF34F8F0C
:1053C000FEE794F844904FFA89F929462046FFF702
:1053D00078FB731EA363B9F1FF3F06D009F1010307
:1053E0005BB284F844300120D2E723690BB9012075
:1053F000CEE704F1100000F0B9FC30B1B8F1000FB5
:1054000005D00120C8F80000C2E70120C0E7012054
:10541000BEE700000023072B0CD8074A52F83320C0
:105420000AB10133F7E7044A42F8331002EBC30232
:1054300050607047704700BF447B01200023072B5A
:105440000FD8084A02EBC3025268824201D00133EE
:10545000F5E7044A002142F8331002EBC302516021
:1054600070477047447B012038B110B50446FFF700
:10547000E5FF94F846304BB110BD4FF0500383F375
:105480001188BFF36F8FBFF34F8FFEE72046FFF702
:105490007BFAF1E770B504460D461646FFF73AF879
:1054A00094F844305BB2B3F1FF3F0DD094F845302F
:1054B0005BB2B3F1FF3F0BD0FFF74EF8A36B5BB1CC
:1054C0002046FFF710FB70BD002384F84430EDE761
:1054D000002384F84530EFE73246294604F12400E2
:1054E00000F028FCECE70000084B1B681B6823B9A0
:1054F000074B4FF0FF321A607047044B1B68DB68A4
:10550000DB685A68024B1A60704700BFF47B0120C9
:105510008C7B01202DE9F04780460D4617469946C1
:10552000089EDDF824A00A9C9200A521206B01F0C2
:10553000ADFC236B07F18042013A03EB820727F0B1
:105540000707002D61D04FF0000CBCF10F0F09D8F8
:1055500015F80C3004EB0C0282F8343013B10CF166
:10556000010CF2E7002384F84330372E00D93726A8
:10557000E662E66400252565201DFEF724FF04F1A0
:105580001800FEF720FF2461C6F13806A6616462A8
:10559000C4F8985184F89C514FF4A072294604F144
:1055A000580001F073FC1B4BE36503F168022266AF
:1055B000D033636601220023C4E93C2343F20E3357
:1055C000A4F8F8304AF6CD33A4F8FA3041F2342387
:1055D000A4F8FC304EF26D63A4F8FE304DF6EC6397
:1055E000A4F800310523A4F802310B23A4F80431F8
:1055F0004A4641463846FEF75FFF2060BAF1000F89
:1056000001D0CAF80040BDE8F087002384F83430A8
:10561000ABE700BF2482012038B5002407E004EB8B
:10562000840293000E481844FEF7C2FE0134372C62
:10563000F5D90C4D2846FEF7BBFE0B4C2046FEF775
:10564000B7FE0A48FEF7B4FE0948FEF7B1FE094866
:10565000FEF7AEFE084B1D60084B1C6038BD00BF56
:10566000207C01200C7C0120F87B0120DC7B0120C8
:10567000C87B0120B07B0120F47B0120F07B01205E
:1056800010B50446FEF746FF224A13680133136043
:10569000214B1B685BB1214B1B686BB91E4B1B6810
:1056A000DA6AE36A9A4207D81B4B1C6004E01A4B83
:1056B0001C601368012B29D0194A13680133136049
:1056C0006364E06A174B1B68984201D9154B186058
:1056D00000EB8000211D144B03EB8000FEF776FEEB
:1056E000FEF73AFF0D4B1B687BB10B4B1B68DA6A68
:1056F000E36A9A4209D24FF0E0234FF08052C3F898
:10570000042DBFF34F8FBFF36F8F10BDFFF784FFE2
:10571000D2E700BFAC7B012080800120A07B01206C
:10572000907B0120A47B0120207C012010B5044641
:10573000583001F0FDFB94F89D3163B1012B11D07D
:10574000022B0ED04FF0500383F31188BFF36F8FFD
:10575000BFF34F8FFEE7206BFFF716F92046FFF7E8
:1057600013F910BD2046FFF70FF9FAE70F4B1B683E
:10577000D3B110B5FEF7CEFE0D4BDB68DC68201D03
:10578000FEF748FE0B4A1368013B1360074A136893
:10579000013B1360FEF7E0FE2046FFF7C7FF034B17
:1057A0001B68002BE6D110BD704700BFC47B0120F1
:1057B000C87B0120AC7B012008B5FFF7D7FF074B62
:1057C0001B68012BF9D94FF0E0234FF08052C3F84A
:1057D000042DBFF34F8FBFF36F8FEEE7207C0120C6
:1057E00070B504460D46174B1E68174B18680430F9
:1057F000FEF710FEB4F1FF3F0DD03444124B1B688E
:105800005C60A64210D9114B18680F4B196804311F
:10581000FEF7E7FD70BD002DEFD00B4B196804318A
:105820000B48FEF7D3FDF5E70A4B1868064B1968DD
:105830000431FEF7D6FD084B1B68A342EAD9064B9C
:105840001C60E7E7A87B012080800120F07B01201D
:10585000B07B0120F47B01208C7B012030B587B028
:105860000B9C8CB10C9DC5B14FF4D0750495049D73
:10587000B5F5D07F1AD04FF0500383F31188BFF3F2
:105880006F8FBFF34F8FFEE74FF0500383F3118804
:10589000BFF36F8FBFF34F8FFEE74FF0500383F3DB
:1058A0001188BFF36F8FBFF34F8FFEE7049D0C9DF0
:1058B0002C63022485F89D4100240394029505ACD5
:1058C00001940A9C0094FFF725FE0C98FFF7D8FE80
:1058D000059807B030BD2DE9F04385B007468846EE
:1058E00014461E469000FEF7CDFF10B381464FF4DC
:1058F000D070FEF7C7FF0546A8B1C0F8309000236E
:1059000080F89D31039302900D9B01930C9B0093B3
:105910003346224641463846FFF7FCFD2846FFF74E
:10592000AFFE012007E04846FFF72EF84FF0FF30AA
:1059300001E04FF0FF3005B0BDE8F08310B588B04E
:1059400000240594069407AA06A905A8FEF718FDE9
:10595000059B0293069B019300942346079A1A49DC
:105960001A48FFF77BFF1A4B1860E8B100F006FCFD
:1059700001281AD14FF0500383F31188BFF36F8FC2
:10598000BFF34F8F134B1B685833134A1360134BED
:105990004FF0FF321A60124B01221A60114B0022A5
:1059A0001A60FEF751FE03E00020B0F1FF3F01D086
:1059B00008B010BD4FF0500383F31188BFF36F8F11
:1059C000BFF34F8FFEE700BFA4740008B95700086B
:1059D000887B012080800120100000208C7B01202A
:1059E000A07B0120A87B0120024A136801331360C9
:1059F000704700BF847B0120014B1868704700BFCF
:105A0000A87B0120F8B53A4B1B68002B69D1394BB4
:105A10001D6801351D60C5B9374B1B681B6843B154
:105A20004FF0500383F31188BFF36F8FBFF34F8F95
:105A3000FEE7314A1168314B186810601960304A2E
:105A4000136801331360FFF74FFD2E4B1B68AB4209
:105A50003DD900272C4B1B68DB6A03EB83039A00BC
:105A60002A4B9B58012B00D90127294B1B68002B7F
:105A70003CD001273AE001271F4B1B681B6843B34A
:105A80001D4B1B68DB68DC6863689D4226D3261DBE
:105A90003046FEF7BFFCA36A1BB104F11800FEF705
:105AA000B9FCE36A1B4A1268934201D9194A136090
:105AB00003EB83039A00314614481044FEF786FC3A
:105AC000E26A114B1B68DB6A9A42D4D2D4E7002702
:105AD000D2E70C4B4FF0FF321A60BBE7094A136064
