:020000040800F2
:1000000000000220810C0008990900089B090008E3
:100010009D0900089F090008A109000800000000D0
:10002000000000000000000000000000412A00085D
:10003000A309000800000000E12A00080B260008C0
:10004000D10C0008D10C0008D10C0008D10C00081C
:10005000D10C0008D10C0008D10C0008D10C00080C
:10006000D10C0008D10C0008D10C0008D10C0008FC
:10007000A5090008D10C0008D10C0008D10C00081B
:10008000B5090008C5090008D10C0008D10C00080A
:10009000D10C0008D10C0008D10C0008D10C0008CC
:1000A000D10C0008D10C0008D10C0008D10C0008BC
:1000B000D10C0008D10C0008D10C0008D10C0008AC
:1000C000D10C0008D10C0008D10C0008D10C00089C
:1000D000D10C0008D10C0008D5090008E50900087A
:1000E000D10C0008D10C0008D10C0008D10C00087C
:1000F000D10C0008D10C0008D10C0008D10C00086C
:10010000D10C0008D10C0008D10C0008D10C00085B
:10011000D10C0008D10C0008D10C0008F50900082A
:10012000D10C0008D10C0008D10C0008D10C00083B
:10013000D10C0008D10C0008D10C0008D10C00082B
:10014000D10C0008D10C0008D10C0008D10C00081B
:10015000D10C0008D10C0008D10C0008D10C00080B
:10016000D10C0008D10C0008D10C0008D10C0008FB
:10017000D10C0008D10C0008D10C000800000000D0
:08018000D10C0008D10C0008AD
:1001900010B5054C237833B9044B13B10448AFF3C1
:1001A00000800123237010BD5808002000000000CB
:1001B000A850000808B5034B1BB103490348AFF32F
:1001C000008008BD000000005C080020A850000866
:1001D00053B94AB9002908BF00281CBF4FF0FF31AE
:1001E0004FF0FF3000F074B9ADF1080C6DE904CEAA
:1001F00000F006F8DDF804E0DDE9022304B0704702
:100200002DE9F047089D04468E46002B4DD18A42C9
:10021000944669D9B2FA82F252B101FA02F3C2F1FC
:10022000200120FA01F10CFA02FC41EA030E94408D
:100230004FEA1C48210CBEFBF8F61FFA8CF708FBAE
:1002400016E341EA034306FB07F199420AD91CEB86
:10025000030306F1FF3080F01F81994240F21C81B8
:10026000023E63445B1AA4B2B3FBF8F008FB103300
:1002700044EA034400FB07F7A7420AD91CEB040435
:1002800000F1FF3380F00A81A74240F20781644405
:10029000023840EA0640E41B00261DB1D44000238A
:1002A000C5E900433146BDE8F0878B4209D9002DEE
:1002B00000F0EF800026C5E9000130463146BDE878
:1002C000F087B3FA83F6002E4AD18B4202D38242E2
:1002D00000F2F980841A61EB030301209E46002D91
:1002E000E0D0C5E9004EDDE702B9FFDEB2FA82F2E6
:1002F000002A40F09280A1EB0C014FEA1C471FFA44
:100300008CFE0126200CB1FBF7F307FB131140EA2A
:1003100001410EFB03F0884208D91CEB010103F1F7
:10032000FF3802D2884200F2CB804346091AA4B2B9
:10033000B1FBF7F007FB101144EA01440EFB00FE8D
:10034000A64508D91CEB040400F1FF3102D2A645F2
:1003500000F2BB800846A4EB0E0440EA03409CE791
:10036000C6F12007B34022FA07FC4CEA030C20FA3E
:1003700007F401FA06F31C43F9404FEA1C4900FA5E
:1003800006F3B1FBF9F8200C1FFA8CFE09FB1811DB
:1003900040EA014108FB0EF0884202FA06F20BD94E
:1003A0001CEB010108F1FF3A80F08880884240F29E
:1003B0008580A8F102086144091AA4B2B1FBF9F0E2
:1003C00009FB101144EA014100FB0EFE8E4508D9DD
:1003D0001CEB010100F1FF346CD28E456AD9023862
:1003E000614440EA0840A0FB0294A1EB0E01A14247
:1003F000C846A64656D353D05DB1B3EB080261EBB5
:100400000E0101FA07F722FA06F3F1401F43C5E98E
:10041000007100263146BDE8F087C2F12003D840C4
:100420000CFA02FC21FA03F3914001434FEA1C4706
:100430001FFA8CFEB3FBF7F007FB10360B0C43EAF8
:10044000064300FB0EF69E4204FA02F408D91CEBA8
:10045000030300F1FF382FD29E422DD902386344A6
:100460009B1B89B2B3FBF7F607FB163341EA034146
:1004700006FB0EF38B4208D91CEB010106F1FF3895
:1004800016D28B4214D9023E6144C91A46EA00468C
:1004900038E72E46284605E70646E3E61846F8E61E
:1004A0004B45A9D2B9EB020864EB0C0E0138A3E767
:1004B0004646EAE7204694E74046D1E7D0467BE748
:1004C000023B614432E7304609E76444023842E7C0
:1004D000704700BF844641EA000313F003036DD167
:1004E000403A41D351F8043B40F8043B51F8043BF7
:1004F00040F8043B51F8043B40F8043B51F8043BFE
:1005000040F8043B51F8043B40F8043B51F8043BED
:1005100040F8043B51F8043B40F8043B51F8043BDD
:1005200040F8043B51F8043B40F8043B51F8043BCD
:1005300040F8043B51F8043B40F8043B51F8043BBD
:1005400040F8043B51F8043B40F8043B51F8043BAD
:1005500040F8043B51F8043B40F8043B51F8043B9D
:1005600040F8043B403ABDD2303211D351F8043B3D
:1005700040F8043B51F8043B40F8043B51F8043B7D
:1005800040F8043B51F8043B40F8043B103AEDD2EC
:100590000C3205D351F8043B40F8043B043AF9D23D
:1005A000043208D0D2071CBF11F8013B00F8013B10
:1005B00001D30B8803806046704700BF082A13D31D
:1005C0008B078DD010F003038AD0C3F10403D21A35
:1005D000DB071CBF11F8013B00F8013B80D331F869
:1005E000023B20F8023B7BE7043AD9D3013A11F8E9
:1005F000013B00F8013BF9D20B7803704B78437054
:100600008B7883706046704710B50A4C00224FF417
:100610008051204600F03AFF00224FF4006120464E
:1006200000F034FF00224FF48061204600F02EFFDE
:1006300010BD00BF001C024010B582B00024019420
:10064000114B1A6B42F400121A631B6B03F4001374
:100650000193019B224605210C2000F079FB0C2020
:1006600000F0AEFB22460521102000F071FB1020A7
:1006700000F0A6FB22460521112000F069FB1120A5
:1006800000F09EFB02B010BD0038024008B501200A
:1006900002F055F8FBE7000008B504F0CFF904E0DC
:1006A00004F0D8F9012002F04AF84FF0FF31034B73
:1006B000186802F0ACF80028F2D0F3E778080020C0
:1006C00008B50B4A0121084602F047F8094B1860AB
:1006D000094A0021094801F0D3FF094B1860094A73
:1006E0000021094801F0CCFF084B186008BD00BF8D
:1006F0000851000878080020185100088D060008ED
:100700007C080020E45000089906000874080020C6
:1007100008B5044B186802F0AEF8034804F09CF9E1
:1007200008BD00BF740800209808002010B58AB0EA
:1007300000220592069207920892099201921E4B9E
:10074000196B41F001011963196B01F0010101916D
:1007500001990292196B41F008011963196B01F0BC
:100760000801029102990392196B41F00401196387
:10077000196B01F004010391039904921A6B42F082
:1007800080021A631B6B03F080030493049B0B4CE1
:1007900001224FF4E051204600F078FE4FF4E05380
:1007A00005930123069302220792089305A9204688
:1007B00000F07AFD0AB010BD00380240001C024073
:1007C00008B50268034B9A4200D008BD00F09CFABD
:1007D000FBE700BF0014004072B6FEE700B595B01D
:1007E0003022002108A804F0BDF9002303930493EC
:1007F0000593069307930193204A116C41F08051B1
:100800001164126C02F080520192019A02931C4B07
:100810001A6842F480421A601B6803F48043029312
:10082000029B012308934FF48033099302230E9314
:100830004FF480020F9206221092A8221192129376
:100840000423139308A800F027FE98B90F230393FD
:1008500002230493002305934FF4A05306934FF40F
:1008600080530793052103A801F064F820B915B05F
:100870005DF804FBFFF7B0FFFFF7AEFF0038024062
:100880000070004008B500F025FAFFF7A7FFFFF75A
:100890004DFFFFF7D1FE00F003F900F0E1F8FFF79C
:1008A000B3FE01F0BFFEFFF70BFF01F0CDFEFEE748
:1008B00000B583B0002200920D4B596C41F4804189
:1008C0005964596C01F48041009100990192196CAE
:1008D00041F0805119641B6C03F080530193019B1C
:1008E0000F216FF0010000F033FA03B05DF804FB54
:1008F0000038024030B589B0044600230193214BF3
:100900001A6C42F020021A641B6C03F0200301935E
:10091000019B02A903A801F0E3F8069BCBB901F003
:10092000BFF803461848A0FB03239B0C013B174864
:10093000174A026040F2E732C2604360002303615D
:100940008360836101F050FA054630B1284609B052
:1009500030BD01F0A5F84300E4E70C4801F0E0F8F1
:1009600005460028F2D1372000F02AFA0F2C01D9D1
:100970000125EBE700222146372000F0E9F9054B7D
:100980001C60E3E70038024083DE1B43AC08002014
:100990000014004008000020FEE7FEE7FEE7FEE747
:1009A000FEE7704708B5024800F090FB08BD00BFA5
:1009B000B809002008B5024800F088FB08BD00BF58
:1009C000F808002008B5024800F080FB08BD00BF11
:1009D0005809002008B5024801F012FC08BD00BF0C
:1009E000180A002008B5024801F00AFC08BD00BF43
:1009F000600A002008B5024801F0DAF808BD00BF1F
:100A0000AC08002010B503460C4A0D490D4800689B
:100A100040B10C4800680344521A934206D8094A70
:100A2000136010BD0748084C0460F2E704F070F84A
:100A30000C2303604FF0FF30F3E700BF00000220FB
:100A400000040000F4080020985C0020034AD2F85B
:100A5000883043F47003C2F88830704700ED00E03E
:100A600008B50C480C4B03600C4B43604FF48053AB
:100A700083600023C3604FF4806202610C224261F4
:100A80008361C36101F0D4FA00B908BDFFF7A4FE89
:100A9000FBE700BF180A002000440040A0860100C8
:100AA00008B50C480C4B03600C4B43604FF480536B
:100AB00083600023C3604FF4806202610C224261B4
:100AC0008361C36101F0B4FA00B908BDFFF784FE89
:100AD000FBE700BF600A002000480040A08601003C
:100AE00030B58BB004460023059306930793089313
:100AF00009930368574A934204D0574A934260D0FF
:100B00000BB030BD00250195544B1A6C42F40032F5
:100B10001A641A6C02F400320192019A02951A6B5F
:100B200042F008021A631B6B03F008030293029B56
:100B30006023059302230693032308930723099355
:100B400005A9474800F0B0FB4648474B03604FF00B
:100B5000006343608560C5604FF480630361456155
:100B60008561C5610562456200F0B8F918BB3D4B6F
:100B7000E3639C633D483E4B03604FF0006343607A
:100B8000402383600023C3604FF4806202614361AD
:100B90008361C3610362436200F0A0F970B9334B13
:100BA000A3639C6300220521262000F0D1F82620B3
:100BB00000F006F9A4E7FFF70FFED8E7FFF70CFEF9
:100BC000EDE700250395254B1A6C42F480221A6448
:100BD0001A6C02F480220392039A04951A6B42F075
:100BE00004021A631B6B03F004030493049B4FF489
:100BF0004063059302230693032308930723099375
:100C000005A91C4800F050FB1B481C4B03604FF02B
:100C1000006343608560C5604FF480630361456194
:100C200085614FF48073C3614FF4403303624562C2
:100C300000F054F958B9104BE3639C63002205217E
:100C4000272000F085F8272000F0BAF858E7FFF7D2
:100C5000C3FDF0E700440040004800400038024077
:100C6000000C0240F808002088600240580900206B
:100C7000A060024000080240B8090020286002403D
:100C8000DFF834D0FFF7E2FE0C480D490D4A00238F
:100C900002E0D458C4500433C4188C42F9D30A4A31
:100CA0000A4C002301E013600432A242FBD303F09C
:100CB00035FFFFF7E7FD704700000220000000202D
:100CC000540800208C51000858080020945C002033
:100CD000FEE7000008B50B4B1A6842F400721A6078
:100CE0001A6842F480621A601A6842F480721A60CC
:100CF000032000F01BF80F20FFF7FCFDFFF7D8FDE5
:100D0000002008BD003C0240034A1168034B1B78D9
:100D10000B441360704700BFA80A002004000020A5
:100D2000014B1868704700BFA80A0020074AD36823
:100D300023F4E0631B041B0C000200F4E060034397
:100D400043F0BF6343F40033D360704700ED00E02D
:100D500000B5194BDB68C3F30223C3F1070CBCF1E8
:100D6000040F28BF4FF0040C03F1040EBEF1060F70
:100D700018D9033B4FF0FF3E0EFA0CFC21EA0C01A0
:100D800099400EFA03F322EA0303194300280BDB10
:100D90000901C9B200F1604000F5614080F800131C
:100DA0005DF804FB0023E5E700F00F000901C9B27C
:100DB000024B1954F4E700BF00ED00E014ED00E031
:100DC000002807DB00F01F02400901239340024A7C
:100DD00042F82030704700BF00E100E030B4056801
:100DE0002C6824F480242C60046863608368402BA2
:100DF00005D0036899600368DA6030BC7047036807
:100E00009A600368D960F8E710B40368D9B2103962
:100E10000C4AA2FB014212090B4CA25CC2655F297D
:100E200009D923F47F7323F0030304338365806DB2
:100E30005DF8044B704723F47F7323F0030383654D
:100E4000F5E700BFABAAAAAA54510008836A8269D9
:100E500092B9012B0AD0022B02D00BB100207047AF
:100E6000C36A13F0807F28D100207047C36AB3F1B2
:100E7000C07F24D000207047B2F5005F09D0022B5C
:100E800025D9032B25D1C36A13F0807F23D10020FD
:100E90007047032B03D8DFE803F01404140A002082
:100EA0007047C36A13F0807F0DD100207047C36A7A
:100EB000B3F1C07F09D000207047012070470120A6
:100EC00070470120704701207047012070470120C2
:100ED00070470020704701207047000070B504463D
:100EE000FFF71EFF002C5BD00546022384F8353047
:100EF000002384F834302268136823F00103136060
:100F000023681A6812F0010F0AD0FFF709FF431B8C
:100F1000052BF5D920236365032084F8350070BDC7
:100F20001A68204810406168A2680A43E1680A43D1
:100F300021690A4361690A43A1690A43E1690A43D5
:100F4000216A0A430243616A04291ED01A60266896
:100F5000756925F00705636A1D43042B07D1A36A51
:100F60001D43E36A1BB12046FFF770FF90B975611E
:100F70002046FFF749FFE26D3F2393408360002046
:100F80006065012384F83530C9E7E16A206B0143CD
:100F90000A43DBE740236365012084F83500BEE7A0
:100FA0000120BCE73F8010F038B50446856D90F80D
:100FB000340001282BD0012084F8340094F8350047
:100FC000C0B2012804D0002384F83430022038BD98
:100FD000022084F83500002060652046FFF7FEFE01
:100FE000E26D3F239340AB602268136843F0160321
:100FF0001360236C23B12268136843F00803136065
:101000002268136843F0010313600020DFE7022029
:10101000DDE770B50446866DFFF782FE94F8353043
:10102000DBB2022B06D080236365002384F83430C2
:10103000012070BD05462268136823F01603136073
:101040002268536923F080035361236CE3B1226863
:10105000136823F0080313602268136823F0010368
:10106000136023681B6813F0010F11D0FFF758FEBF
:10107000431B052BF5D920236365032084F8350035
:10108000002384F83430D4E7A36C002BDFD1E3E7EE
:10109000E26D3F239340B360012384F83530002094
:1010A00084F83400C5E790F83530DBB2022B03D06A
:1010B0008023436501207047052380F8353002689E
:1010C000136823F00103136000207047F0B583B06C
:1010D000044600230193724B1D68724BA3FB053538
:1010E000AD0A876D3E68C26D08239340334210D02D
:1010F00003681A6812F0040F0BD01A6822F0040279
:101100001A60C26D08239340BB60436D43F0010336
:101110004365E26D01239340334209D0226852694E
:1011200012F0800F04D0BB60636D43F0020363656F
:10113000E26D04239340334209D02268126812F012
:10114000020F04D0BB60636D43F004036365E26D7E
:1011500010239340334224D02268126812F0080F03
:101160001FD0BB6023681A6812F4802F0DD01B6853
:1011700013F4002F04D1236C9BB12046984710E054
:10118000A36C73B1204698470BE01A6812F4807F75
:1011900003D11A6822F008021A60236C0BB12046B2
:1011A0009847E26D20239340334255D0226812685D
:1011B00012F0100F50D0BB6094F83530DBB2052B25
:1011C0000ED023681A6812F4802F33D01B6813F4F2
:1011D000002F2AD1636C002B3ED0204698473BE07D
:1011E0002268136823F0160313602268536923F002
:1011F00080035361236CA3B12268136823F00803B2
:101200001360E26D3F239340BB60012384F83530C7
:10121000002384F83430236D002B3FD020469847BC
:101220003CE0A36C002BE7D1EBE7E36BA3B12046D6
:10123000984711E01A6812F4807F09D11A6822F0E9
:1012400010021A60012384F83530002384F834300A
:10125000E36B0BB120469847636DFBB1636D13F0F0
:10126000010F17D0052384F835302268136823F066
:1012700001031360019B01330193AB4204D823683F
:101280001B6813F0010FF5D1012384F835300023DA
:1012900084F83430E36C0BB12046984703B0F0BDBE
:1012A00000000020B5814E1B00230F2B00F2E480CC
:1012B00070B582B060E085685E000324B44025EA22
:1012C0000405CC68B4402C438460456825EA0205D7
:1012D0004C68C4F300129A402A4342605AE0DC088A
:1012E000083450F8246003F0070295000F22AA404A
:1012F00026EA020E0A69AA4042EA0E0240F82420B9
:101300005CE0072200E0002202FA0EF22A430234D7
:101310005A4D45F824205A4A94686FEA0C0224EA90
:101320000C054E6816F4801F01D04CEA0405544C9D
:10133000A560E46802EA04054E6816F4001F01D0B7
:101340004CEA04054E4CE560646802EA04054E6808
:1013500016F4003F01D04CEA0405494C656024684E
:1013600022404D6815F4803F01D04CEA0402444C01
:10137000226001330F2B7DD801229A400C6804EAC9
:10138000020C32EA0404F4D14C6804F00304013C7A
:10139000012C90D94A6802F00302032A09D0C468DC
:1013A0005D000322AA4024EA02048A68AA4022437C
:1013B000C2604A6802F00302022A90D004684FEA31
:1013C000430E032202FA0EF224EA02044A6802F0F3
:1013D000030202FA0EF2224302604A6812F4403F0E
:1013E000C7D000220192274A546C44F480445464CC
:1013F000526C02F480420192019A9C08A51C1F4A7B
:1014000052F8255003F003024FEA820E0F2202FA2F
:101410000EF225EA02051C4A90423FF474AF02F531
:10142000806290421AD002F58062904218D002F594
:101430008062904216D002F58062904214D002F58C
:101440008062904212D002F58062904210D002F584
:10145000806290423FF455AF082255E7012253E7DE
:10146000022251E703224FE704224DE705224BE712
:10147000062249E702B070BD704700BF0038014046
:10148000003C014000380240000002400AB1816186
:101490007047090481617047002800F0E08170B551
:1014A00082B00446036813F0010F3BD09F4B9B684A
:1014B00003F00C03042B2CD09C4B9B6803F00C0313
:1014C000082B21D06368B3F5803F4FD0B3F5A02F30
:1014D00052D0964B1A6822F480321A601A6822F4AD
:1014E00080221A606368002B50D0FFF719FC054674
:1014F0008E4B1B6813F4003F14D1FFF711FC401B07
:101500006428F5D90320B1E1884B5B6813F4800FA0
:10151000D8D0864B1B6813F4003F03D06368002BC0
:1015200000F09F81236813F0020F54D07F4B9B681B
:1015300013F00C0F3ED07D4B9B6803F00C03082B7F
:1015400033D0E368002B68D0794B01221A60FFF793
:10155000E7FB0546754B1B6813F0020F54D1FFF7EC
:10156000DFFB401B0228F5D903207FE16F4A136897
:1015700043F480331360B5E76C4B1A6842F4802261
:101580001A601A6842F480321A60ABE7FFF7C8FBB2
:101590000546664B1B6813F4003FC3D0FFF7C0FB42
:1015A000401B6428F5D9032060E1604B5B6813F4AD
:1015B000800FC6D15D4B1B6813F0020F03D0E368A8
:1015C000012B40F05081594A136823F0F803216938
:1015D00043EAC1031360236813F0080F42D0636924
:1015E0006BB3534B0122C3F8802EFFF799FB0546DE
:1015F0004E4B5B6F13F0020F34D1FFF791FB401B92
:101600000228F5D9032031E1484A136823F0F80392
:10161000216943EAC1031360DDE7454B00221A60EC
:10162000FFF77EFB0546414B1B6813F0020FD2D03B
:10163000FFF776FB401B0228F5D9032016E13C4B4F
:101640000022C3F8802EFFF76BFB0546374B5B6F1C
:1016500013F0020F06D0FFF763FB401B0228F5D9F9
:10166000032003E1236813F0040F77D02F4B1B6C8A
:1016700013F0805F33D1002301932C4B1A6C42F09E
:1016800080521A641B6C03F080530193019B012567
:10169000284B1B6813F4807F23D0A368012B34D020
:1016A000052B38D0214B1A6F22F001021A671A6FEE
:1016B00022F004021A67A368002B3DD0FFF730FB2D
:1016C00006461A4B1B6F13F0020F46D1FFF728FB9B
:1016D000801B41F288339842F3D90320C6E00025ED
:1016E000D6E7144A136843F480731360FFF718FBBE
:1016F0000646104B1B6813F4807FCED1FFF710FB1A
:10170000801B0228F5D90320B0E0084A136F43F08C
:1017100001031367CFE7054B1A6F42F004021A6703
:101720001A6F42F001021A67C5E700BF0038024095
:101730000000474200700040FFF7F2FA0646524BA5
:101740001B6F13F0020F08D0FFF7EAFA801B41F27B
:1017500088339842F3D9032088E0EDB9A369002BC0
:1017600000F08380484A926802F00C02082A51D0A7
:10177000022B17D0454B00221A66FFF7D1FA044618
:10178000414B1B6813F0007F42D0FFF7C9FA001BE2
:101790000228F5D9032069E03B4A136C23F08053FB
:1017A0001364DBE7394B00221A66FFF7B9FA0546E6
:1017B000354B1B6813F0007F06D0FFF7B1FA401BD2
:1017C0000228F5D9032051E0E369226A1343626AD3
:1017D00043EA8213A26A5208013A43EA0243E26AE8
:1017E00043EA0263284A5360284B01221A66FFF736
:1017F00097FA0446244B1B6813F0007F06D1FFF7CD
:101800008FFA001B0228F5D903202FE000202DE0DD
:1018100000202BE0012B2BD01B4B5B6803F48001D5
:10182000E269914226D103F03F02216A8A4223D124
:10183000616A47F6C0721A40B2EB811F1ED103F4F1
:101840004031A26A5208013AB1EB024F18D103F0BD
:101850007063E26AB3EB026F14D1002006E001204E
:101860007047012002E0012000E0002002B070BDBE
:101870000120FBE70120F9E70120F7E70120F5E768
:101880000120F3E70120F1E7003802400000474261
:1018900008B5254B9B6803F00C03042B3FD0082BA5
:1018A0003FD1214B5A6802F03F025B6813F4800F6E
:1018B00012D01D4B5968C1F388111C480023A1FBAD
:1018C0000001FEF785FC184B5B68C3F3014301334D
:1018D0005B00B0FBF3F025E0134B5968C1F3881CA3
:1018E0004FEA4C11B1EB0C006EEB0E0E4FEA8E136B
:1018F00043EA90638101091A63EB0E03DB0043EABC
:101900005173C90011EB0C0C43F100039902002341
:101910004FEA8C2041EA9C51FEF75AFCD3E703487A
:1019200000E0034808BD00BF00380240001BB700BC
:101930000024F400002800F09B8070B50D4604469A
:101940004F4B1B6803F007038B4208D2CBB24C4AC3
:101950001370136803F007038B4240F08B802368F9
:1019600013F0020F17D013F0040F04D0454A936808
:1019700043F4E0539360236813F0080F04D0414A06
:10198000936843F4604393603E4A936823F0F00306
:10199000A1680B439360236813F0010F32D0636892
:1019A000012B21D09A1E012A25D9364A126812F03D
:1019B000020F61D033498A6822F0030213438B601F
:1019C000FFF7AEF906462F4B9B6803F00C036268E5
:1019D000B3EB820F16D0FFF7A3F9801B41F28833D7
:1019E0009842F0D9032042E0264A126812F4003FE0
:1019F000E0D101203BE0234A126812F0007FD9D1E8
:101A0000012034E01E4B1B6803F00703AB4207D9EB
:101A1000EAB21B4B1A701B6803F00703AB422DD1CF
:101A2000236813F0040F06D0164A936823F4E0539A
:101A3000E1680B439360236813F0080F07D0114A45
:101A4000936823F46043216943EAC1039360FFF77D
:101A50001FFF0C4B9B68C3F303130B4AD35CD840A6
:101A60000A4B18600A4B1868FEF744FF002070BD4F
:101A7000012070470120FAE70120F8E70120F6E78E
:101A8000003C0240003802403C51000800000020A9
:101A900008000020014B1868704700BF00000020BC
:101AA00008B5FFF7F7FF044B9B68C3F38223034A93
:101AB000D35CD84008BD00BF003802404C5100083C
:101AC00008B5FFF7E7FF044B9B68C3F34233034AB3
:101AD000D35CD84008BD00BF003802404C5100081C
:101AE0000F2303600B4B9A6802F0030242609A686E
:101AF00002F0F00282609A6802F4E052C2609B68D1
:101B0000DB0803F4E0530361034B1B6803F0070396
:101B10000B60704700380240003C024070470000F4
:101B200090F83D30DBB2012B37D1022380F83D30F5
:101B30000268D36843F00103D3600368194A9342F3
:101B400020D0B3F1804F1DD0A2F57C42934219D032
:101B500002F58062934215D002F58062934211D063
:101B600002F5784293420DD002F57052934209D0AB
:101B7000A2F59432934205D01A6842F001021A602D
:101B8000002070479A6802F00702062A07D01A68F8
:101B900042F001021A6000207047012070470020C7
:101BA000704700BF000001407047704770477047A2
:101BB00070B504460368DE681D6915F0020F10D089
:101BC00016F0020F0DD06FF002021A6101230377A5
:101BD00003689B6913F0030F5ED0FFF7E6FF002355
:101BE000237715F0040F12D016F0040F0FD02368DE
:101BF0006FF004021A610223237723689B6913F4B0
:101C0000407F4FD02046FFF7D0FF0023237715F009
:101C1000080F12D016F0080F0FD023686FF00802DB
:101C20001A61042323772368DB6913F0030F40D084
:101C30002046FFF7BAFF0023237715F0100F12D0CC
:101C400016F0100F0FD023686FF010021A610823EE
:101C500023772368DB6913F4407F31D02046FFF7F8
:101C6000A4FF0023237715F0010F02D016F0010F17
:101C70002DD115F0800F02D016F0800F2FD115F066
:101C8000400F02D016F0400F31D115F0200F02D0D6
:101C900016F0200F33D170BDFFF786FF2046FFF707
:101CA00085FF9CE72046FFF77FFF2046FFF77EFF7A
:101CB000ABE72046FFF778FF2046FFF777FFBAE74C
:101CC0002046FFF771FF2046FFF770FFC9E7236842
:101CD0006FF001021A612046FEF772FDC9E7236822
:101CE0006FF080021A61204600F0ABF8C7E7236866
:101CF0006FF040021A612046FFF759FFC5E72368DD
:101D00006FF020021A61204600F09AF8C3E7000045
:101D10000368344A904212D0B0F1804F0FD0A2F540
:101D20007C4290420BD002F58062904207D002F5CF
:101D30008062904203D002F57842904203D123F0B2
:101D400070034A681343274A90422AD0B0F1804F6B
:101D500027D0A2F57C42904223D002F580629042C7
:101D60001FD002F5806290421BD002F5784290426B
:101D700017D002F57052904213D002F58062904263
:101D80000FD002F5806290420BD0A2F598329042BB
:101D900007D002F58062904203D002F58062904243
:101DA00003D123F44073CA68134323F080034A69C4
:101DB000134303608B68C3620B688362094B9842CC
:101DC00003D003F58063984201D10B6903630123BB
:101DD0004361036913F0010F03D0036923F001038A
:101DE000036170470000014040B310B5044690F80D
:101DF0003D30F3B1022384F83D30214651F8040B05
:101E0000FFF786FF012384F8463084F83E3084F8DB
:101E10003F3084F8403084F8413084F8423084F810
:101E2000433084F8443084F8453084F83D30002055
:101E300010BD80F83C30FFF771FEDBE701207047F2
:101E400070477047026802F10C0353E8003F23F02B
:101E5000C0030C3242E800310029F3D1202380F87E
:101E600041307047026802F10C0353E8003F23F44D
:101E700090730C3242E800310029F3D1026802F17C
:101E8000140353E8003F23F00103143242E8003109
:101E90000029F3D1036B012B05D0202380F84230B9
:101EA000002303637047026802F10C0353E8003F0C
:101EB00023F010030C3242E800310029F3D1ECE7A3
:101EC00090F84130DBB2212B01D0022070478368AB
:101ED000B3F5805F17D0036A5A1C02621A78036850
:101EE0005A60C38C9BB2013B9BB2C3844BB902685E
:101EF000D36823F08003D3600268D36843F04003C3
:101F0000D360002070470369002BE4D1036A1B886B
:101F10000268C3F308035360036A02330362E0E715
:101F200038B504460268136923F44053C1680B4373
:101F3000136183680269134342691343C2691A43F8
:101F40000168CB6823F4164323F00C031343CB60E2
:101F50000268536923F4407381690B43536103683A
:101F6000314A934206D002F58062934202D0FFF7D5
:101F700097FD01E0FFF7A4FDE369B3F5004F29D019
:101F80000021031849411B1841F10001C90041EA31
:101F90005371DB00181863684FEA83024FEA9373AA
:101FA00041F10001FEF714F9204DA5FB0032510963
:101FB000642303FB11031B013233A5FB03235B09DD
:101FC00003F0F00202EB011203F00F032168134447
:101FD0008B6038BD0023021843EB0301121841F156
:101FE0000001C90041EA5271D200101841F100010C
:101FF000626892185B41FEF7EBF80C4DA5FB0032CE
:102000005109642303FB1103DB003233A5FB0323D7
:102010005B095A0002F4F87202EB011203F00703A5
:10202000216813448B60D4E7001001401F85EB51F9
:1020300060B310B5044690F8413013B3242384F8FC
:1020400041302268D36823F40053D3602046FFF761
:1020500067FF2268136923F4904313612268536970
:1020600023F02A0353612268D36843F40053D360FA
:1020700000206064202384F8413084F8423060639B
:1020800010BD80F84030FEF72BFDD7E701207047E8
:10209000704708B50168CA6822F04002CA60202271
:1020A00080F84120FFF7F4FF002008BD704770471B
:1020B00010B5846B23685A6994F84130DBB2212B48
:1020C00010D023685A6902F0400294F84230DBB223
:1020D000222B11D0636C43F0100363642046FFF79A
:1020E000E6FF10BD02F08002002AEAD00023E3845C
:1020F0002046FFF7A7FEE4E7002AEBD00023E385A4
:102100002046FFF7AFFEE5E708B5806B0023C385E7
:10211000C384FFF7CCFF08BD704790F84230DBB2B4
:10212000222B69D18368B3F5805F4FD0826AB3F503
:10213000805F04D0002B56D10369002B53D1036874
:102140005B681370836A01338362C38D9BB2013B6A
:102150009BB2C385002B51D100B583B00268D36810
:1021600023F02003D3600268D36823F48073D36024
:102170000268536923F001035361202380F8423041
:1021800000234363036B012B33D1002303630268F5
:1021900002F10C0353E8003F23F010030C3242E835
:1021A00000310029F3D103681A6812F0100F06D02D
:1021B000002201921A6801925B680193019B818D54
:1021C000FFF7AAFF002003B05DF804FB0269002AB4
:1021D000ACD1826A03685B68C3F308031380836A27
:1021E00002338362B1E703685B6803F07F03137017
:1021F000A8E7FEF78DFAE5E7022070470020704758
:1022000030B583B0044602681368D068516913F092
:102210000F0505D113F0200F02D010F0200F19D1B7
:102220002DB111F0010119D110F4907F16D1216B5D
:1022300001297DD013F0800F03D010F0800F40F003
:10224000198113F0400F03D010F0400F40F01681B9
:1022500003B030BD2046FFF760FFF9E713F0010F30
:1022600006D010F4807F03D0626C42F001026264F9
:1022700013F0040F04D019B1626C42F002026264E0
:1022800013F0020F04D019B1626C42F004026264D0
:1022900013F0080F07D010F0200F00D119B1626CB5
:1022A00042F008026264626C002AD1D013F0200F61
:1022B00002D010F0200F29D123685B6903F040039E
:1022C000626C12F0080F00D163B32046FFF7CAFD1D
:1022D00023685B6913F0400F20D0226802F11403D9
:1022E00053E8003F23F04003143242E80031002954
:1022F000F3D1E36B73B1634A1A65E06BFEF7D3FE6B
:102300000028A5D0E06B036D9847A1E72046FFF7B2
:1023100004FFD1E72046FFF7CAFE99E72046FFF702
:10232000C6FE95E72046FFF7C2FE002363648FE7F1
:1023300013F0100F3FF47EAF10F0100F3FF47AAFA0
:10234000002301931368019353680193019B536920
:1023500013F0400F52D0E26B13685B689BB2002B06
:102360003FF476AFA18D99427FF672AFE385D369D2
:10237000B3F5807F37D0226802F10C0353E8003FA9
:1023800023F480730C3242E800310029F3D1226833
:1023900002F1140353E8003F23F00103143242E832
:1023A00000310029F3D1226802F1140353E8003F01
:1023B00023F04003143242E800310029F3D12023F6
:1023C00084F8423000232363226802F10C0353E8AF
:1023D000003F23F010030C3242E800310029F3D112
:1023E000E06BFEF716FE02236363A18DE38D9BB2C3
:1023F000C91A89B22046FFF78FFE29E7A18DE38D28
:102400009BB2C91A89B2E38D9BB2002B3FF420AF77
:1024100000293FF41DAF226802F10C0353E8003F8E
:1024200023F490730C3242E800300028F3D1226884
:1024300002F1140353E8003F23F00103143242E891
:1024400000300028F3D1202384F842300023236396
:10245000226802F10C0353E8003F23F010030C3212
:1024600042E800300028F3D1022363632046FFF7DF
:1024700053FEEDE62046FFF723FDE9E62046FFF791
:1024800008FEE5E60921000808B5806B01234363D7
:10249000036B012B02D0FFF709FE08BD818D4908AF
:1024A000FFF73AFEF9E708B50346806B1B681B6827
:1024B00013F4807F2BD10023C385026802F10C0343
:1024C00053E8003F23F480730C3242E800310029C6
:1024D000F3D1026802F1140353E8003F23F0010333
:1024E000143242E800310029F3D1026802F11403EA
:1024F00053E8003F23F04003143242E80031002942
:10250000F3D1202380F84230036B012B07D0002346
:102510004363036B012B0FD0FEF7FAF808BD026886
:1025200002F10C0353E8003F23F010030C3242E8A1
:1025300000310029F3D1EAE7818DFFF7EDFDEDE7EA
:1025400030B583B004461346816282850025456418
:10255000222280F84220C26B1F48D063E26B1F48E2
:102560001064E26B1E48D064E26B156520680A4671
:10257000011DE06BFEF718FD019523681A680192B2
:102580005B680193019B23695BB1226802F10C0334
:1025900053E8003F43F480730C3242E800310029D5
:1025A000F3D1226802F1140353E8003F43F0010322
:1025B000143242E800310029F3D1226802F11403F9
:1025C00053E8003F43F04003143242E80031002951
:1025D000F3D1002003B030BDA724000889240008EF
:1025E000B120000808B590F84230DBB2202B08D1AA
:1025F00049B10AB9012008BD00230363FFF7A0FF1A
:10260000F9E70220F7E70120F5E708B54FF0E023EE
:102610001B6901F0E7FE012800D108BD00F092FA25
:10262000FBE70000EFF305832BB9064B186828B9C8
:1026300001221A6070476FF0050070474FF0FF30BD
:10264000704700BF38110020EFF3058373B90A4BC0
:102650001B68012B0DD110B50024084BDC77064B0D
:1026600002221A6001F00EFC204610BD6FF005003A
:1026700070474FF0FF3070473811002000ED00E048
:10268000F0B587B000240594EFF305847CBB70B3EC
:102690002AB31568936903B918235C1E372C4AD8EE
:1026A000546814F0010F48D1566976B14FEA960C80
:1026B000946834B1D768B7F5916F02D3176907B141
:1026C000C6B92CB14FF0FF340EE04FF0800CEFE7AD
:1026D000D4688CB9146994B14FF0FF3404E0154606
:1026E000002418234FF0800C012C0AD0ACB10598BF
:1026F00007B0F0BD0124F7E74FF0FF34F4E7002402
:10270000F2E7146992680292019400930B466246C4
:10271000294601F045FB0590E9E705AA01920093DF
:102720000B461FFA8CF2294601F077FB0128DED018
:1027300000230593DBE70020DAE70020D8E708B59F
:10274000EFF3058333B908B9002008BD01F006FD99
:102750000020FAE76FF00500F7E770B582B0EFF3FD
:102760000583002B49D10E461446002849D08842E3
:1027700049D34AB1956815B1D3684F2B14D8002DB1
:1027800043D1E3680BB139E0002301280ED073BBBD
:10279000314600F067FD054685B304B12468214643
:1027A000284601F0D7F829E00123EEE7B3B9032268
:1027B0000021012000F00FFD0546002DECD0002E79
:1027C000EAD000231A461946284600F069FD012880
:1027D000E2D0284601F0E8F800250FE0A3680322C4
:1027E00000920022114600F0ACFC0546E5E7A26825
:1027F000314600F014FD0546CEE70025284602B01C
:1028000070BD0025FAE70025F8E70025F6E720B3BC
:1028100010B582B00C46EFF30583B3B101BB0021C4
:10282000019101AA01F042F801281CD1019850B190
:102830004FF0E0234FF08052C3F8042DBFF34F8FC9
:10284000BFF36F8F002002B010BD00F05CFF0128C5
:102850000CD06CB16FF00100F5E76FF0030070472A
:102860006FF00300EFE76FF00200ECE70020EAE70B
:102870006FF00200E7E720B300B583B0EFF3058304
:10288000A3B10023019301A900F035FE01281BD15B
:10289000019898B14FF0E0234FF08052C3F8042D17
:1028A000BFF34F8FBFF36F8F002007E000231A465E
:1028B000194600F0F5FC012809D1002003B05DF8AD
:1028C00004FB6FF0030070476FF00200F6E76FF053
:1028D0000200F3E7034B0360034B0B60802313609C
:1028E000704700BFB00C0020AC0A0020034B03600F
:1028F000034B0B604FF4807313607047401500204A
:102900003C11002000F1080343604FF0FF32826069
:10291000C3600361002303607047002303617047B5
:1029200043684B609A688A605160996008610368E7
:1029300001330360704730B40D68B5F1FF3F11D02B
:1029400000F108031C465B681A68AA42FAD963685A
:102950004B6099608C6061600861036801330360BB
:1029600030BC70470469F2E70369416882688A6095
:10297000416851605A68824206D0002202611A689A
:10298000013A1A601868704782685A60F5E70000DB
:1029900082B0002301930D4B1B68B3F1FF3F08D0B9
:1029A0004FF0500383F31188BFF36F8FBFF34F8F46
:1029B000FEE74FF0500383F31188BFF36F8FBFF32F
:1029C0004F8F019B002BFCD002B070470C00002001
:1029D00008480068006880F308884FF0000080F322
:1029E000148862B661B6BFF34F8FBFF36F8F00DFFD
:1029F00000BF000008ED00E0DFF80C00016841F4C2
:102A0000700101607047000088ED00E04FF08073B6
:102A100040F8043C21F0010140F8081C054B40F847
:102A20000C3C40F8202C6FF0020340F8243C443862
:102A3000704700BF9129000800000000000000005E
:102A4000074B19680868B0E8F04F80F30988BFF3B6
:102A50006F8F4FF0000080F311887047AFF3008054
:102A6000305600204FF0500383F31188BFF36F8F6F
:102A7000BFF34F8F0B4A136801331360012B00D053
:102A800070474FF0E023D3F8043D13F0FF0FF7D069
:102A90004FF0500383F31188BFF36F8FBFF34F8F55
:102AA000FEE700BF0C000020094B1B6843B94FF044
:102AB000500383F31188BFF36F8FBFF34F8FFEE78F
:102AC000013B034A13600BB983F31188704700BFC1
:102AD0000C000020000000000000000000000000CA
:102AE000EFF30980BFF36F8F154B1A681EF0100FBC
:102AF00008BF20ED108A20E9F04F10602DE9090091
:102B00004FF0500080F31188BFF34F8FBFF36F8FEA
:102B100001F04AFB4FF0000080F3118809BC1968EE
:102B20000868B0E8F04F1EF0100F08BFB0EC108A34
:102B300080F30988BFF36F8F704700BFAFF3008049
:102B40003056002008B54FF0500383F31188BFF3CF
:102B50006F8FBFF34F8F01F0F9F928B14FF0E023E9
:102B60004FF08052C3F8042D002383F3118808BD71
:102B70004FF0E022002313619361054B1B68054968
:102B8000A1FB03139B09013B5361072313617047AA
:102B900000000020D34D62104FF0E023D3F8002D49
:102BA0003D4B9A421CD04FF0E023D3F8002D3B4B15
:102BB0009A421ED030B583B0394B1A78D2B2019206
:102BC000FF221A701B78DBB28DF803309DF80330BA
:102BD00003F05003334A1370334B07221A601BE093
:102BE0004FF0500383F31188BFF36F8FBFF34F8F04
:102BF000FEE74FF0500383F31188BFF36F8FBFF3ED
:102C00004F8FFEE7284A1368013B13609DF803309D
:102C10005B00DBB28DF803309DF8033013F0800FBA
:102C2000F0D1214B1B68032B08D04FF0500383F3E6
:102C30001188BFF36F8FBFF34F8FFEE71B021A4A55
:102C4000136003F4E0631360019BDBB2144A13705A
:102C50004FF0E024D4F8203D43F47003C4F8203D45
:102C6000D4F8203D43F07043C4F8203DFFF780FFC7
:102C700000250E4B1D60FFF7BFFED4F8343F43F034
:102C80004043C4F8343FFFF7A3FE01F08DFAFFF78D
:102C90007FFE284603B030BD71C20F4170C20F41A4
:102CA00000E400E0C8190020CC1900200C0000202E
:102CB000EFF305830F2B0FD9114A9B5CDBB2114A4E
:102CC00012789A4208D94FF0500383F31188BFF36A
:102CD0006F8FBFF34F8FFEE74FF0E023D3F80C3D2B
:102CE00003F4E063084A1268934208D94FF0500396
:102CF00083F31188BFF36F8FBFF34F8FFEE77047E9
:102D0000F0E300E0C8190020CC190020124A12F0AC
:102D1000070F1ED0D11D21F00701C1F570531344D8
:102D20000A460E480260002141601344083B23F02C
:102D300007030B48036059601960991A51601360CA
:102D4000084B1960084B1960084B4FF000421A609D
:102D500070474FF47053E4E7D4190020E855002081
:102D6000D0190020DC550020D8550020D455002073
:102D7000164B1A461B688342FBD3516802EB010CC9
:102D8000844509D0416800EB010C634509D003601C
:102D9000904219D01060704740680144516010465D
:102DA000F0E710B40A4C2468A3420BD05B681944C6
:102DB000416013681B680360904200D010605DF8AA
:102DC000044B70470460F7E7704700BFE8550020E8
:102DD000D019002070B5054601F0AAF8364B1B68E3
:102DE000A3B1364B1B681D424ED135B1083515F0E5
:102DF000070F02D025F007050835002D46D0304BCF
:102E00001B68AB4251D32F4A146804E0FFF77EFFE2
:102E1000E7E722461C466368AB4202D22368002BD8
:102E2000F7D1254B1B68A34241D0166808362368AA
:102E3000136063685B1B102B10D9601910F0070F2B
:102E400008D04FF0500383F31188BFF36F8FBFF3A7
:102E50004F8FFEE743606560FFF78AFF626818499D
:102E60000B689B1A0B60184909688B4201D21649FE
:102E70000B60124B1B681343636000232360134AEB
:102E800013680133136002E0002600E0002601F021
:102E9000E9F816F0070F0CD04FF0500383F31188B8
:102EA000BFF36F8FBFF34F8FFEE70026EFE70026DB
:102EB000EDE7304670BD00BFD0190020D45500208A
:102EC000D8550020E8550020DC550020E0550020B2
:102ED000002834D038B50446A0F1080550F8043C69
:102EE000174A1268134208D14FF0500383F3118838
:102EF000BFF36F8FBFF34F8FFEE750F8081C41B14F
:102F00004FF0500383F31188BFF36F8FBFF34F8FE0
:102F1000FEE723EA020340F8043C01F009F854F804
:102F2000041C084A13680B4413602846FFF720FF6F
:102F3000054A13680133136001F094F838BD7047F7
:102F4000D4550020D8550020E45500200346406A9F
:102F500018B11B6B1868C0F13800704710B50446F3
:102F6000FFF780FDA26BE36B9A4204D00024FFF7C9
:102F70009BFD204610BD0124F9E710B50446FFF77C
:102F800071FDA36B23B90124FFF78EFD204610BD10
:102F90000024F9E770B504461546866B026C5AB9F1
:102FA00003681BB100200136A66370BD806801F084
:102FB00075FA0023A360F6E76DB94068FDF78AFA59
:102FC000226C636813446360A268934219D3236838
:102FD00063602846E7E7C068FDF77CFA226C51423F
:102FE000E3689B1AE3602268934202D2A3680B4411
:102FF000E360022D01D00020D5E726B1013E00207C
:10300000D1E72846CFE70020CDE70346026C6AB13E
:1030100010B50846D9681144D9609C68A14201D313
:103020001968D960D968FDF755FA10BD704738B5F1
:103030000546FFF717FD95F8454064B201E0013CF5
:1030400064B2002C0ADD6B6A43B105F1240001F083
:103050002FF90028F3D001F0BFF9F0E7FF2385F83E
:103060004530FFF721FDFFF7FDFC95F8444064B2C1
:1030700001E0013C64B2002C0ADD2B6943B105F18B
:10308000100001F015F90028F3D001F0A5F9F0E7E0
:10309000FF2385F84430FFF707FD38BD38B5E0B1B0
:1030A0000D460446FFF7DEFC2368E26B216C01FB52
:1030B0000230A0600020A0636360013A02FB01338C
:1030C000E360FF2384F8443084F84530FDB9236978
:1030D00063B9FFF7E9FC012038BD4FF0500383F3DB
:1030E0001188BFF36F8FBFF34F8FFEE704F110001D
:1030F00001F0DEF80028ECD04FF0E0234FF08052D2
:10310000C3F8042DBFF34F8FBFF36F8FE1E704F1D6
:103110001000FFF7F7FB04F12400FFF7F3FBD8E7FB
:1031200038B51D46049C0B4649B92460E06323640E
:1031300001212046FFF7B2FF84F84C5038BD2260D1
:10314000F4E740B94FF0500383F31188BFF36F8F5A
:10315000BFF34F8FFEE710B584B01C46844653B1D1
:1031600092B189B94FF0500383F31188BFF36F8F89
:10317000BFF34F8FFEE74FF0500383F31188BFF387
:103180006F8FBFF34F8FFEE76AB150230393039B0A
:10319000502B13D04FF0500383F31188BFF36F8F80
:1031A000BFF34F8FFEE70029EFD04FF0500383F3BA
:1031B0001188BFF36F8FBFF34F8FFEE7039B01238F
:1031C00084F8463000949DF818306046FFF7A8FF59
:1031D000204604B010BD40B94FF0500383F311886E
:1031E000BFF36F8FBFF34F8FFEE7F0B583B00D468F
:1031F0001446064601FB00F05030FFF7EBFD074692
:1032000050B1002380F846300090234600F1500270
:1032100029463046FFF784FF384603B0F0BD40B979
:103220004FF0500383F31188BFF36F8FBFF34F8FBD
:10323000FEE710B582B00C46884208D24FF050032A
:1032400083F31188BFF36F8FBFF34F8FFEE7022325
:103250000093134600221146FFF773FF00B1846309
:1032600002B010BD40B94FF0500383F31188BFF393
:103270006F8FBFF34F8FFEE710B50C46884208D220
:103280004FF0500383F31188BFF36F8FBFF34F8F5D
:10329000FEE702220021FFF79EFF00B1846310BD0C
:1032A000F0B585B0019288B10F461D460446B1B114
:1032B000022D20D1E36B012B1DD04FF0500383F37F
:1032C0001188BFF36F8FBFF34F8FFEE74FF05003AE
:1032D00083F31188BFF36F8FBFF34F8FFEE7036C4B
:1032E000002BE5D04FF0500383F31188BFF36F8FAD
:1032F000BFF34F8FFEE701F075F8064658B9019B02
:10330000002B48D04FF0500383F31188BFF36F8F29
:10331000BFF34F8FFEE700263DE02A4639462046A0
:10332000FFF738FE636A7BB948B14FF0E0234FF0F6
:103330008052C3F8042DBFF34F8FBFF36F8FFFF799
:10334000B3FB012005B0F0BD04F1240000F0B0FF94
:103350000028F4D04FF0E0234FF08052C3F8042D42
:10336000BFF34F8FBFF36F8FE9E7FFF79DFB00209F
:10337000E8E702A800F0E2FF012619E0002384F844
:10338000443021E0002384F8453023E02046FFF755
:103390004EFE00F067FEFFF765FBA26BE36B9A42FF
:1033A000BBD3022DB9D0019B002BDED0002EE0D084
:1033B000FFF77AFB00F0BCFDFFF754FB94F84420C4
:1033C00052B2B2F1FF3FD9D094F8452052B2B2F1D7
:1033D000FF3FD7D0FFF768FB01A902A800F0BAFFB2
:1033E000D8B92046FFF7BAFD0028CFD0019904F1E3
:1033F000100000F029FF2046FFF719FE00F032FE12
:103400000028C8D14FF0E0234FF08052C3F8042DBC
:10341000BFF34F8FBFF36F8FBDE72046FFF707FE67
:1034200000F020FE00208DE72DE9F84390B10F4613
:1034300016461C460546B1B1022C20D1EB6B012B80
:103440001DD04FF0500383F31188BFF36F8FBFF38C
:103450004F8FFEE74FF0500383F31188BFF36F8F58
:10346000BFF34F8FFEE7036C002BE5D04FF0500306
:1034700083F31188BFF36F8FBFF34F8FFEE7FFF722
:1034800017FCEFF311894FF0500383F31188BFF35A
:103490006F8FBFF34F8FAA6BEB6B9A4206D3022C50
:1034A00004D0002089F31188BDE8F88395F84580A1
:1034B0004FFA88F8AB6B224639462846FFF76AFD7B
:1034C000B8F1FF3F06D008F101035BB285F8453043
:1034D0000120E7E76B6A0BB90120E3E705F124005F
:1034E00000F0E6FE18B126B101203060DAE70120D5
:1034F000D8E70120D6E768B170B50C460546036CE5
:103500008BB14FF0500383F31188BFF36F8FBFF37C
:103510004F8FFEE74FF0500383F31188BFF36F8F97
:10352000BFF34F8FFEE70368EBB1FFF7C1FBEFF38B
:1035300011864FF0500383F31188BFF36F8FBFF3F1
:103540004F8FAA6BEB6B934226D995F845305BB24F
:103550000132AA63B3F1FF3F11D001335BB285F8AA
:103560004530012019E08368002BDED04FF0500376
:1035700083F31188BFF36F8FBFF34F8FFEE76B6A42
:103580000BB9012009E005F1240000F091FE38B1EB
:1035900044B10120206000E0002086F3118870BD56
:1035A0000120FAE70120F8E7F0B585B0019290B16B
:1035B0000F460446C1B100F015FF064600BB019B53
:1035C000002B5ED04FF0500383F31188BFF36F8F51
:1035D000BFF34F8FFEE74FF0500383F31188BFF323
:1035E0006F8FBFF34F8FFEE7036C002BE3D04FF0DC
:1035F000500383F31188BFF36F8FBFF34F8FFEE744
:1036000000263EE039462046FFF7FFFC013DA5635A
:10361000236923B9FFF748FA012005B0F0BD04F192
:10362000100000F045FE0028F4D04FF0E0234FF0EA
:103630008052C3F8042DBFF34F8FBFF36F8FE9E7BC
:10364000FFF732FA0020E8E702A800F077FE012633
:1036500021E0002384F8443029E0002384F8453039
:103660002BE02046FFF7E3FC00F0FCFC09E02046DD
:10367000FFF7DDFC00F0F6FC2046FFF77EFC00289B
:103680003FD1FFF7EFF9A56B002DBBD1019B002BBC
:10369000D6D0002ED8D0FFF707FA00F049FCFFF78C
:1036A000E1F994F844305BB2B3F1FF3FD1D094F824
:1036B00045305BB2B3F1FF3FCFD0FFF7F5F901A979
:1036C00002A800F047FE0028D1D12046FFF755FCA4
:1036D0000028C6D0019904F1240000F0B5FD204671
:1036E000FFF7A5FC00F0BEFC0028CAD14FF0E02394
:1036F0004FF08052C3F8042DBFF34F8FBFF36F8F8D
:10370000BFE7002089E770B584B0019158B1044645
:10371000036C8BB14FF0500383F31188BFF36F8FAD
:10372000BFF34F8FFEE74FF0500383F31188BFF3D1
:103730006F8FBFF34F8FFEE700F054FE054650B980
:10374000019B5BB14FF0500383F31188BFF36F8F80
:10375000BFF34F8FFEE70026354655E0064653E09F
:10376000013BA36323683BB123694BB9FFF79CF985
:103770000126304604B070BD00F028FFA060F3E7DA
:1037800004F1100000F094FD0028EFD04FF0E0238A
:103790004FF08052C3F8042DBFF34F8FBFF36F8FEC
:1037A000E4E746B14FF0500383F31188BFF36F8F06
:1037B000BFF34F8FFEE7FFF777F9DAE702A800F0D3
:1037C000BDFD01252AE0002384F8443032E00023C7
:1037D00084F8453034E0FFF745F9A06800F012FEA8
:1037E0000646FFF761F93BE02046FFF720FC00F0BA
:1037F00039FC09E02046FFF71AFC00F033FC2046B4
:10380000FFF7BBFB002842D1FFF72CF9A36B002B7D
:10381000A6D1019B002BC4D0002DCFD0FFF744F9D7
:1038200000F086FBFFF71EF994F844305BB2B3F169
:10383000FF3FC8D094F845305BB2B3F1FF3FC6D02C
:10384000FFF732F901A902A800F084FD0028D1D1C8
:103850002046FFF792FB0028C6D02368002BBAD081
:10386000019904F1240000F0EFFC2046FFF7DFFB94
:1038700000F0F8FB0028C7D14FF0E0234FF0805252
:10388000C3F8042DBFF34F8FBFF36F8FBCE70EB9A2
:1038900000266EE7FFF7E6F82046FFF757FB0146E4
:1038A000A06800F043FEFFF7FFF8F1E72DE9F843C9
:1038B000B0B10D4616460446D9B1FFF7F9F9EFF35A
:1038C00011884FF0500383F31188BFF36F8FBFF35C
:1038D0004F8FA76BCFB9002088F31188BDE8F8831C
:1038E0004FF0500383F31188BFF36F8FBFF34F8FF7
:1038F000FEE7036C002BE0D04FF0500383F31188F8
:10390000BFF36F8FBFF34F8FFEE794F844904FFAE9
:1039100089F929462046FFF778FB013FA763B9F1F3
:10392000FF3F06D009F101035BB284F84430012067
:10393000D2E723690BB90120CEE704F1100000F0B3
:10394000B7FC18B126B101203060C5E70120C3E7FC
:103950000120C1E70023072B0CD8074A52F8332077
:103960000AB10133F7E7044A42F8331002EBC3030C
:1039700058607047704700BFF05500200023072BA8
:103980000FD8084A02EBC3025268824201D00133C9
:10399000F5E7044A002142F8331002EBC3035960F3
:1039A00070477047F055002038B110B50446FFF756
:1039B000E5FF94F846304BB110BD4FF0500383F350
:1039C0001188BFF36F8FBFF34F8FFEE72046FFF7DD
:1039D0007FFAF1E770B504460D461646FFF742F848
:1039E00094F844305BB2B3F1FF3F0DD094F845300A
:1039F0005BB2B3F1FF3F0BD0FFF756F8A36B5BB19F
:103A00002046FFF714FB70BD002384F84430EDE737
:103A1000002384F84530EFE73246294604F12400BC
:103A200000F02AFCECE70000084B1B681B6823B978
:103A3000074B4FF0FF321A607047044B1B68DB687E
:103A4000DB685A68024B1A60704700BF345600208A
:103A5000DC5A00202DE9F04780460D46174699466E
:103A6000089EDDF824A00A9C9200A521206B01F09D
:103A700079F8236B07F18042013A03EB820727F0C4
:103A80000707002D65D04FF0000CBCF10F0F0BD8CD
:103A900015F80C2004EB0C0383F8342015F80C30D7
:103AA00013B10CF1010CF0E7002384F84330372EFA
:103AB00000D93726E662E66400252565201DFEF75D
:103AC0002CFF04F11800FEF728FF2461C6F1380628
:103AD000A6616462C4F8805484F884544FF485620B
:103AE000294604F1580001F03DF804F55173E365EF
:103AF00004F56B73236604F214436366012200230A
:103B0000C4E9402343F20E33A4F808314AF6CD331A
:103B1000A4F80A3141F23423A4F80C314EF26D635B
:103B2000A4F80E314DF6EC63A4F810310523A4F887
:103B300012310B23A4F814314A4641463846FEF7A9
:103B400065FF2060BAF1000F01D0CAF80040BDE85F
:103B5000F087002384F83430A9E7000038B500244A
:103B600007E004EB840293000E481844FEF7CAFEF7
:103B70000134372CF5D90C4D2846FEF7C3FE0B4C0B
:103B80002046FEF7BFFE0A48FEF7BCFE0948FEF7D6
:103B9000B9FE0948FEF7B6FE084B1D60084B1C60D5
:103BA00038BD00BF3C560020B05A0020C45A002047
:103BB000E85A0020145B0020005B002034560020EF
:103BC0003856002010B50446FEF74CFF224A136811
:103BD00001331360214B1B685BB1214B1B686BB930
:103BE0001E4B1B68DA6AE36A9A4207D81B4B1C60BB
:103BF00004E01A4B1C601368012B29D0194A136882
:103C0000013313606364E06A174B1B68984201D963
:103C1000154B186000EB8000211D144B03EB800056
:103C2000FEF77EFEFEF740FF0D4B1B687BB10B4B92
:103C30001B68DA6AE36A9A4209D24FF0E0234FF038
:103C40008052C3F8042DBFF34F8FBFF36F8F10BDA9
:103C5000FFF784FFD2E700BF9C5A002030560020B7
:103C6000FC5A0020A85A0020AC5A00203C560020E4
:103C700010B50446583000F0EBFF94F8853463B17A
:103C8000012B11D0022B0ED04FF0500383F311887B
:103C9000BFF36F8FBFF34F8FFEE7206BFFF718F96D
:103CA0002046FFF715F910BD2046FFF711F9FAE796
:103CB0000F4B1B68D3B110B5FEF7D4FE0D4BDB687C
:103CC000DC68201DFEF750FE0B4A1368013B1360B1
:103CD000074A1368013B1360FEF7E6FE2046FFF734
:103CE000C7FF034B1B68002BE6D110BD704700BF18
:103CF000A05A0020145B00209C5A002008B5FFF752
:103D0000D7FF074B1B68012BF9D94FF0E0234FF089
:103D10008052C3F8042DBFF34F8FBFF36F8FEEE7D0
:103D20003C56002070B504460D46174B1E68174BD5
:103D300018680430FEF718FEB4F1FF3F0DD034448C
:103D4000124B1B685C60A64210D9114B18680F4BD0
:103D500019680431FEF7EFFD70BD002DEFD00B4B5D
:103D6000196804310B48FEF7DBFDF5E70A4B1868CC
:103D7000064B19680431FEF7DEFD084B1B68A342B1
:103D8000EAD9064B1C60E7E7285B0020305600208C
:103D900038560020005B002034560020DC5A0020FA
:103DA00030B587B00B9C8CB10C9DC5B14FF49165BB
:103DB0000495049DB5F5916F1AD04FF0500383F32D
:103DC0001188BFF36F8FBFF34F8FFEE74FF05003A3
:103DD00083F31188BFF36F8FBFF34F8FFEE74FF070
:103DE000500383F31188BFF36F8FBFF34F8FFEE74C
:103DF000049D0C9D2C63022485F8854400240394C3
:103E0000029505AC01940A9C0094FFF723FE0C98E0
:103E1000FFF7D8FE059807B030BD2DE9F04385B017
:103E20000746884614461E469000FEF7D3FF08B3A7
:103E300081464FF49160FEF7CDFF0546B0B1C0F862
:103E40003090E5B1002385F88534039302950D9BEE
:103E500001930C9B00933346224641463846FFF7B8
:103E6000F9FD2846FFF7AEFE012005E04846FFF7C2
:103E70002FF8E6E74FF0FF3005B0BDE8F0834FF0D4
:103E8000FF30F9E710B588B000240594069407AA1E
:103E900006A905A8FEF71EFD059B0293069B01934C
:103EA00000942346079A1A491A48FFF779FF1A4BDC
:103EB000186040B100F004FC012806D0B0F1FF3FCB
:103EC0001DD008B010BD0020F6E74FF0500383F37B
:103ED0001188BFF36F8FBFF34F8F104B1B685833A0
:103EE0000F4A13600F4B4FF0FF321A600E4B012246
:103EF0001A600E4B00221A60FEF74EFEE1E74FF00B
:103F0000500383F31188BFF36F8FBFF34F8FFEE72A
:103F10005C510008FD3C0008D85A002030560020B3
:103F200010000020DC5A0020FC5A0020285B0020F2
:103F3000024A136801331360704700BFA45A00207F
:103F4000014B1868704700BF285B0020F8B53A4B5A
:103F50001B68002B69D1394B1D6801351D60C5B93F
:103F6000374B1B681B6843B14FF0500383F3118834
:103F7000BFF36F8FBFF34F8FFEE7314A1168314BAC
:103F8000186810601960304A136801331360FFF736
:103F90004BFD2E4B1B68AB423DD900272C4B1B68B9
:103FA000DB6A03EB83039A002A4B9B58012B00D951
:103FB0000127294B1B68002B3CD001273AE0012741
:103FC0001F4B1B681B6843B31D4B1B68DB68DC6819
:103FD00063689D4226D3261D3046FEF7C5FCA36AC2
:103FE0001BB104F11800FEF7BFFCE36A1B4A12681C
:103FF000934201D9194A136003EB83039A003146B7
:1040000014481044FEF78CFCE26A114B1B68DB6A13
:104010009A42D4D2D4E70027D2E70C4B4FF0FF32BC
:104020001A60BBE7094A1360B8E70D4A1368013309
:10403000136000273846F8BDA45A0020285B0020F2
:104040003456002038560020E05A0020DC5A002068
:10405000305600203C5600202C5B0020AC5A00203B
:10406000E45A002038B5354B1B6843B94FF0500374
:1040700083F31188BFF36F8FBFF34F8FFEE7FEF717
:10408000F1FC2E4B1A68013A1A601B68002B4FD1C5
:104090002B4B1B680BB900244BE00024294B1B68F9
:1040A0001BB3284BDB68DC6804F11800FEF75CFCEE
:1040B000251D2846FEF758FCE06A234B1B689842F2
:1040C00001D9214B186000EB800029461F4B03EB00
:1040D0008000FEF725FCE26A1D4B1B68DB6A9A42F2
:1040E000DCD31C4B01221A60D8E70CB1FFF79CFC13
:1040F000194B1C6884B9174B1C68D4B14FF0E023EE
:104100004FF08052C3F8042DBFF34F8FBFF36F8F72
:1041100001240EE0013C07D0FFF718FF0028F9D07A
:104120000C4B01221A60F5E70B4B00221A60E2E704
:104130000024FEF7B9FC204638BD00BFA45A002079
:104140009C5A0020E85A0020AC5A00203C5600201F
:10415000305600202C5B0020E45A002010B5A8B196
:104160000446104B1B6843B14FF0500383F3118892
:10417000BFF36F8FBFF34F8FFEE7FFF7D9FE00212C
:104180002046FFF7CFFDFFF76DFF48B94FF0E02362
:104190004FF08052C3F8042DBFF34F8FBFF36F8FE2
:1041A00010BD00BFA45A0020214B1B681BB1214B3E
:1041B00001221A6070471F4B00221A601E4B1B68B9
:1041C00003EB83018A001D498A585AB90BB1013BA0
:1041D000F6E74FF0500383F31188BFF36F8FBFF3FF
:1041E0004F8FFEE703EB830082000A44506840686B
:1041F000506003EB830C4FEA8C0208321144884272
:104200000FD003EB830291000C4A0A445268D16834
:104210000B4A116008490B6013685833094A136050
:104220007047406862469100044A0A445060E8E7DB
:10423000A45A00202C5B0020AC5A00203C560020E1
:10424000305600201000002058B110B50C46094A25
:1042500011681831FEF76FFB01212046FFF762FD60
:1042600010BD4FF0500383F31188BFF36F8FBFF37E
:104270004F8FFEE73056002038B570B10D4614461A
:104280000A4A11681831FEF74BFB0CB14FF0FF35AD
:1042900021462846FFF746FD38BD4FF0500383F313
:1042A0001188BFF36F8FBFF34F8FFEE730560020AA
:1042B00038B5C368DC6824B304F118052846FEF756
:1042C00053FB184B1B682BBB251D2846FEF74CFBE8
:1042D000E06A154B1B68984201D9134B186000EB3C
:1042E00080002946114B03EB8000FEF719FBE26AC0
:1042F0000F4B1B68DB6A9A4211D901200D4B1860E5
:1043000038BD4FF0500383F31188BFF36F8FBFF3B5
:104310004F8FFEE729460848FEF702FBE7E700203B
:10432000EEE700BFA45A0020AC5A00203C56002003
:10433000305600202C5B0020E85A0020034B1B68FD
:104340000360034B1B684360704700BFE05A0020C6
:10435000285B0020F8B5C8B10C460546F9B1FEF758
:1043600081FB1B4B19686B68C81A2268B2F1FF3FCA
:1043700026D0184E36682F68B74201D08B4224D918
:10438000824215D80023236001241AE04FF0500325
:1043900083F31188BFF36F8FBFF34F8FFEE74FF0AA
:1043A000500383F31188BFF36F8FBFF34F8FFEE786
:1043B0005B1A134423602846FFF7C0FF002400E087
:1043C0000024FEF771FB2046F8BD0124F9E700BF89
:1043D000285B0020E05A0020014B01221A60704740
:1043E0002C5B0020054B1B6833B1054B1B680BB1E0
:1043F000002070470220704701207047FC5A0020BF
:10440000A45A002000283ED038B50446C36A204A8A
:104410001268D26A93422ED28269002A05DB1C4AB6
:104420001268D26AC2F138028261616903EB8303C8
:10443000184A02EB8303994205D0154B1B68DB6ACF
:10444000E362012038BD251D2846FEF78DFA104B8A
:104450001B68D86AE062104B1B68984201D90E4B6A
:10446000186000EB800029460A4B03EB8000FEF742
:1044700057FA0120E6E7C26C054B1B68DB6A9A42DB
:1044800003D30020DEE7002070470120DAE700BFF9
:10449000305600203C560020AC5A002000283BD06B
:1044A00038B504461E4B1B68834208D04FF05003BA
:1044B00083F31188BFF36F8FBFF34F8FFEE7036D58
:1044C00043B94FF0500383F31188BFF36F8FBFF3ED
:1044D0004F8FFEE7013B0365C16AC26C91421DD05C
:1044E0000BB1002038BD051D2846FEF73DFAE06CF3
:1044F000E062C0F13803A3610A4B1B68984201D9FE
:10450000084B186000EB80002946074B03EB800046
:10451000FEF706FA0120E5E7002070470020E1E7FA
:1045200030560020AC5A00203C560020002846D0CF
:1045300038B50446036D43B94FF0500383F3118837
:10454000BFF36F8FBFF34F8FFEE7C26C8A4200D27A
:104550000A46E16A914201D0012B00D038BD184BC8
:104560001B68A34222D0E262A369002B02DBC2F1E6
:104570003802A261626901EB8101124B03EB8101F8
:104580008A42EBD1251D2846FEF7EEF9E06A0E4B74
:104590001B68984201D90C4B186000EB800029463B
:1045A000084B03EB8000FEF7BBF9D7E74FF0500351
:1045B00083F31188BFF36F8FBFF34F8FFEE7704710
:1045C000305600203C560020AC5A0020054B1B689A
:1045D00023B1044B1A68136D01331365014B18683E
:1045E000704700BF30560020064B1A6813682BB97D
:1045F0000123036023B9D368186870470023F8E7E4
:1046000000207047305B002008B541600061914296
:104610000CD8D21A83699A4201D3012008BD011D2A
:10462000094B1868FEF787F90020F7E79A4201D294
:10463000994206D2011D054B1868FEF77CF900204F
:10464000ECE70120EAE700BF345B0020305B00208C
:1046500030B583B0FEF706FA114B1B681BB1FEF7AD
:1046600023FA03B030BD0F4D2846FEF74BF90E4C30
:104670002046FEF747F90D4B1D600D4B1C600023D3
:1046800000930C4B0C4A10210A20FEF75AFD044BF4
:1046900018600028E3D00949FFF75CF9DFE700BFA5
:1046A000545C0020D85B0020EC5B0020305B0020D5
:1046B000345B0020045C0020385B0020645100085B
:1046C00010B588B0FFF7C4FF124B1B68CBB10024B4
:1046D0000594069407AA06A905A8FEF707F9059B05
:1046E0000293069B0193022300932346079A0A49EB
:1046F0000A48FFF755FB0A4B186010B1012008B0BB
:1047000010BD4FF0500383F31188BFF36F8FBFF3D9
:104710004F8FFEE7545C00206C510008254A0008CA
:10472000585C0020B8B19C4603461848006858B34E
:1047300000B585B000910192029305291CDCFFF7BA
:1047400051FE022810D000231A4669460F4800681F
:10475000FEF7A6FD15E04FF0500383F31188BFF379
:104760006F8FBFF34F8FFEE70023069A6946074815
:104770000068FEF795FD04E0002362466946FEF7F7
:1047800053FE05B05DF804FB00207047545C002028
:1047900070B582B01B4B1B681A6862B3DB681E6879
:1047A000DC68251D2846FEF7DFF8236A2046984777
:1047B00094F8283013F0040FECD0A36933449E42E0
:1047C00007D26360246129460E4B1868FEF7B3F8E0
:1047D000E0E7002100910B4632462046FFF7A2FF9A
:1047E0000028D7D14FF0500383F31188BFF36F8FA8
:1047F000BFF34F8FFEE7044A106802490860136058
:1048000002B070BD305B0020345B002038B5054637
:10481000FFF796FB0446074B1B68834205D800232D
:104820002B60044B1C60204638BDFFF7B1FF01230D
:104830002B60F6E7005C002070B582B006460D469E
:1048400017490968C968CC68201DFEF78DF894F8EF
:1048500028C01CF0040F08D12CF0010C84F828C0EB
:10486000236A2046984702B070BDA16933462A46A4
:1048700031442046FFF7C8FE0028F1D00021009106
:104880000B4632462046FFF74DFF0028E8D14FF097
:10489000500383F31188BFF36F8FBFF34F8FFEE791
:1048A000305B002070B582B006460C46FFF740FB37
:1048B00001A8FFF7ABFF019B33BB05460CB9B04223
:1048C00019D224B1124A12681268DAB901242246B8
:1048D000711B104B1868FFF77DF8FFF7C3FBA8B9F1
:1048E0004FF0E0234FF08052C3F8042DBFF34F8FF9
:1048F000BFF36F8F0AE0FFF7B5FB29463046FFF79D
:104900009BFF03E01C46E2E7FFF7ACFB02B070BD83
:10491000345B0020545C002010B588B002E0049B9A
:10492000002B0FDA002204A93D4B1868FEF73CFE6D
:10493000002873D0049B002BF1DA07990698059B99
:104940009847ECE7069C636913B1201DFEF70CF84D
:1049500003A8FFF75BFF049B092BE3D8DFE803F014
:104960000505053037500505303794F8283043F0F9
:10497000010384F82830059BA169024619442046AA
:10498000FFF742FE0028CDD0236A2046984794F8CE
:10499000283013F0040FC5D0A269002100910B4606
:1049A000059802442046FFF7BDFE0028BAD14FF01B
:1049B000500383F31188BFF36F8FBFF34F8FFEE770
:1049C00094F8283023F0010384F82830AAE794F8FB
:1049D000283043F0010384F828300599A16131B1F2
:1049E0000346024601442046FFF70EFE9AE74FF0C9
:1049F000500383F31188BFF36F8FBFF34F8FFEE730
:104A000094F8283013F0020F04D023F0010384F847
:104A1000283087E72046FEF75BFA83E708B010BD31
:104A2000545C002000B583B001A8FFF7DDFD0199BB
:104A3000FFF738FFFFF770FFF6E7000008B5122216
:104A400002490348FDF7CEFD08BD00BF98080020CD
:104A5000600A002070470000002856D010B50346B9
:104A600090F800E04278120202F4E0624EEA020E90
:104A7000264AA2F800E090F801C081784FEADC0CE9
:104A80004CEA411CCCF30A0CA2F802C08078DC7816
:104A90001979890241EA840109B241EA9011C1F30E
:104AA0000A01918018795C79400840EAC410C0F38B
:104AB0000A00D080AEF5806EA2F800E0ACF5806C04
:104AC000A2F802C0A1F580619180A0F58060D0803D
:104AD0005979890911815979C1F301115181997964
:104AE000D87941EA00219181197A587A41EA002166
:104AF000D181997AD87A41EA00211182197B917487
:104B0000597BD1749B7B938210BD70478008002035
:104B1000014B1868704700BF1000002070B50D4EA3
:104B20000D4D761BB61006D0002455F8043B013419
:104B30009847A642F9D1094E094D761B00F0B4FA08
:104B4000B61006D0002455F8043B01349847A6421D
:104B5000F9D170BD805100088051000888510008CB
:104B600080510008830730B548D0541E002A3FD03A
:104B7000CAB2034601E0013C3AD303F8012B9D077A
:104B8000F9D1032C2DD9CDB245EA05250F2C45EAE4
:104B9000054536D9A4F1100222F00F0C03F1200EC6
:104BA000E6444FEA121C03F1100242E9045542E9BF
:104BB000025510327245F8D10CF1010214F00C0FBD
:104BC00003EB021204F00F0C13D0ACF1040323F03A
:104BD00003030433134442F8045B9342FBD10CF00B
:104BE00003042CB1CAB21C4403F8012B9C42FBD134
:104BF00030BD64461346002CF4D1F9E70346144651
:104C0000BFE71A46A446E0E72DE9F0410E680C46DE
:104C10000546BEB137688FB1D7F80080B8F1000FF4
:104C200008D0D8F8001009B1FFF7EEFF414628463A
:104C300000F0CCF83946284600F0C8F8314628463E
:104C400000F0C4F821462846BDE8F04100F0BEB8A7
:104C5000224B1B68834240D0C16C70B5054681B1C0
:104C600000268C593CB121462468284600F0AEF855
:104C7000002CF8D1E96C0436802EF2D1284600F0E1
:104C8000A5F8296C11B1284600F0A0F8D5F84841E4
:104C900054B105F5A676B44206D0214624682846CC
:104CA00000F094F8A642F8D1696D11B1284600F0E1
:104CB0008DF8AB6B83B1EB6B28469847D5F8E04293
:104CC00054B1216811B12846FFF79EFF21462846BE
:104CD000BDE8704000F07AB870BD70471000002049
:104CE000024B13B1024800F005B870470000000005
:104CF000014D0008002301461A46184600F08EB9FF
:104D000038B5084B084D5B1B9C1007D0043B1D4475
:104D1000013C55F804399847002CF9D1BDE83840DA
:104D200000F0C8B98C51000888510008F8B5244F2C
:104D30000C46064600F054F9BA685568C4F57E631F
:104D40000F3325F003052B4423F47F6323F00F0377
:104D5000A3F58054B4F5805F07DB0021304600F0F6
:104D60004BF9BB682B44984204D0304600F03EF922
:104D70000020F8BD6142304600F03EF901300DD010
:104D8000104ABB682D1B45F001055D601368304675
:104D90001B1B136000F02AF90120F8BD00213046EA
:104DA00000F02AF9BA68831A0F2BDEDD43F0010305
:104DB0005360054B03491B68C01A0860D5E700BF64
:104DC00044040020685C00204C080020002961D0C9
:104DD000F8B50C46064600F003F954F8042C7B4F56
:104DE000A4F1080522F0010105EB010CB868DCF81C
:104DF0000430604523F0030300F08B80D207CCF829
:104E0000043032D454F8082CAD1A1144AA6807F1C2
:104E1000080082426AD00CEB0304D4F804E0EC688A
:104E2000D4601EF0010FA26000F0978041F00103F2
:104E30006B60CCF80010B1F5007F35D27A68CB08F2
:104E400048090121013381401143796007EBC30216
:104E500057F83310083AC5E9021247F83350CD60CD
:104E60003046BDE8F84000F0C1B80CEB03025268D0
:104E7000D00710D4194407F10800DCF80830834249
:104E800073D0DCF80C20DA60936041F001036B60B2
:104E90006950D0E7704741F00103B1F5007F44F855
:104EA000043CCCF80010C9D3B1F5206F4FEA512370
:104EB00048D28B0903F1390003F13802C300F81816
:104EC000FB580838984259D05A6822F003028A42A7
:104ED00002D99B689842F7D1D868C5E9023085604D
:104EE000DD603046BDE8F84000F080B80CEB03020E
:104EF0005268D20763D40B44DCE90212CA609160A5
:104F000043F001026A603046EB50BDE8F84000F023
:104F10006DB80B44D10707D454F8082CAD1A1344CC
:104F2000D5E90212CA60916043F001026A60284A22
:104F3000BD6012689A4293D8264B30461968FFF735
:104F4000F5FE8DE7142B0AD9542B1FD80B0B03F158
:104F50006F0003F16E02C300B1E719448DE703F15E
:104F60005C0003F15B02C300A9E741F00103C7E95C
:104F70000455C5E902006B60695071E779689210C9
:104F8000012404FA02F20A437A60A6E7B3F5AA7F85
:104F900006D8CB0B03F1780003F17702C3008EE74C
:104FA00040F25452934206D88B0C03F17D0003F17A
:104FB0007C02C30083E74FF47E737E227FE741F0DB
:104FC00001036B60CCF800104AE700BF44040020E6
:104FD00050080020905C0020704700BF704700BF61
:104FE0000148FFF7F9BF00BF645C00200148FFF7EC
:104FF000F5BF00BF645C002038B5074D00220446B1
:1050000008462A60FBF7FEFC431C00D038BD2B6825
:10501000002BFBD0236038BD5C5C00202DE9F047FD
:10502000DFF880A00646DAF8000098460F46914661
:10503000FFF7D2FF1A4B1B68D3F8484124B36568C9
:105040001F2D26DC5EB96B1C0235DAF800006360A8
:1050500044F82570FFF7C2FF0020BDE8F08704EB9D
:1050600085010123C1F88890D4F88821AB401A4308
:10507000022EC4F88821C1F80881E4D1D4F88C212B
:105080001343C4F88C31DEE703F5A674C3F8484136
:10509000D5E7DAF80000FFF7A1FF4FF0FF30DCE7BB
:1050A0007451000840040020F8B500BFF8BC08BCEB
:1050B0009E467047F8B500BFF8BC08BC9E467047D6
:1050C000444255535F53656D000000004442555300
:1050D0005461734B0000000064656661756C745424
:1050E00061736B00CC50000800000000000000005D
:1050F00000000000000000000002000008000000A6
:105100000000000000000000C05000080000000087
:105110000000000000000000D8500008000000005F
:10512000000000000000000000000000000200007D
:105130001800000000000000000000000000000057
:105140000000000001020304060708090000000037
:1051500001020304000610160006101649444C45CF
:1051600000000000546D725100000000546D722068
:085170005376630018000020D3
:0851780088B0FF7F0100000078
:08518000E14C0008B501000834
:045188009101000889
:10518C000024F4000100000010000000AAAAAAAA42
:10519C0018000020000000000000000004030020A4
:1051AC006C030020D403002000000000000000006D
:1051BC0000000000000000000000000000000000E3
:1051CC0000000000000000000000000000000000D3
:1051DC0000000000000000000000000000000000C3
:1051EC0000000000000000000000000000000000B3
:1051FC0000000000000000000000000000000000A3
:10520C000000000000000000000000000000000092
:10521C000000000000000000000000000000000082
:10522C000000000000000000000000000000000072
:10523C000000000000000000000000000000000062
:10524C0001000000000000000E33CDAB34126DE6FF
:10525C00ECDE05000B000000000000000000000068
:10526C000000000000000000000000000000000032
:10527C000000000000000000000000000000000022
:10528C000000000000000000000000000000000012
:10529C000000000000000000000000000000000002
:1055CC00605C00200000000000000000440400208B
:1055DC00440400204C0400204C04002054040020FF
:1055EC00540400205C0400205C04002064040020AF
:1055FC00640400206C0400206C040020740400205F
:10560C00740400207C0400207C040020840400200E
:10561C00840400208C0400208C04002094040020BE
:10562C00940400209C0400209C040020A40400206E
:10563C00A4040020AC040020AC040020B40400201E
:10564C00B4040020BC040020BC040020C4040020CE
:10565C00C4040020CC040020CC040020D40400207E
:10566C00D4040020DC040020DC040020E40400202E
:10567C00E4040020EC040020EC040020F4040020DE
:10568C00F4040020FC040020FC040020040500208D
:10569C00040500200C0500200C050020140500203A
:1056AC00140500201C0500201C05002024050020EA
:1056BC00240500202C0500202C050020340500209A
:1056CC00340500203C0500203C050020440500204A
:1056DC00440500204C0500204C05002054050020FA
:1056EC00540500205C0500205C05002064050020AA
:1056FC00640500206C0500206C050020740500205A
:10570C00740500207C0500207C0500208405002009
:10571C00840500208C0500208C05002094050020B9
:10572C00940500209C0500209C050020A405002069
:10573C00A4050020AC050020AC050020B405002019
:10574C00B4050020BC050020BC050020C4050020C9
:10575C00C4050020CC050020CC050020D405002079
:10576C00D4050020DC050020DC050020E405002029
:10577C00E4050020EC050020EC050020F4050020D9
:10578C00F4050020FC050020FC0500200406002088
:10579C00040600200C0600200C0600201406002035
:1057AC00140600201C0600201C06002024060020E5
:1057BC00240600202C0600202C0600203406002095
:1057CC00340600203C0600203C0600204406002045
:1057DC00440600204C0600204C06002054060020F5
:1057EC00540600205C0600205C06002064060020A5
:1057FC00640600206C0600206C0600207406002055
:10580C00740600207C0600207C0600208406002004
:10581C00840600208C0600208C06002094060020B4
:10582C00940600209C0600209C060020A406002064
:10583C00A4060020AC060020AC060020B406002014
:10584C00B4060020BC060020BC060020C4060020C4
:10585C00C4060020CC060020CC060020D406002074
:10586C00D4060020DC060020DC060020E406002024
:10587C00E4060020EC060020EC060020F4060020D4
:10588C00F4060020FC060020FC0600200407002083
:10589C00040700200C0700200C0700201407002030
:1058AC00140700201C0700201C07002024070020E0
:1058BC00240700202C0700202C0700203407002090
:1058CC00340700203C0700203C0700204407002040
:1058DC00440700204C0700204C07002054070020F0
:1058EC00540700205C0700205C07002064070020A0
:1058FC00640700206C0700206C0700207407002050
:10590C00740700207C0700207C07002084070020FF
:10591C00840700208C0700208C07002094070020AF
:10592C00940700209C0700209C070020A40700205F
:10593C00A4070020AC070020AC070020B40700200F
:10594C00B4070020BC070020BC070020C4070020BF
:10595C00C4070020CC070020CC070020D40700206F
:10596C00D4070020DC070020DC070020E40700201F
:10597C00E4070020EC070020EC070020F4070020CF
:10598C00F4070020FC070020FC070020040800207E
:10599C00040800200C0800200C080020140800202B
:1059AC00140800201C0800201C08002024080020DB
:1059BC00240800202C0800202C080020340800208B
:1059CC00340800203C0800203C080020FFFFFFFFAB
:0459DC0000000200C5
:0400000508000C8162
:00000001FF
