:020000040800F2
:1000000000000220D92100085519000857190008DE
:10001000591900085B1900085D190008000000006C
:10002000000000000000000000000000C181000886
:100030005F19000800000000618200088F7D000841
:100040002922000829220008292200082922000864
:100050002922000829220008292200082922000854
:100060002922000829220008292200082922000844
:100070006119000829220008292200082922000805
:100080007119000881190008292200082922000896
:1000900091190008292200082922000829220008B5
:1000A0002922000829220008292200082922000804
:1000B00029220008292200082922000829220008F4
:1000C000292200082922000829220008A119000875
:1000D00029220008B1190008C1190008D119000827
:1000E00029220008292200082922000829220008C4
:1000F00029220008292200082922000829220008B4
:1001000029220008292200082922000829220008A3
:10011000292200082922000829220008E1190008E4
:1001200029220008F1190008011A0008111A000814
:100130002922000829220008292200082922000873
:100140002922000829220008292200082922000863
:10015000211A0008311A0008411A0008511A000833
:100160002922000829220008292200082922000843
:100170002922000829220008292200080000000086
:080180002922000829220008D1
:1001900081F0004102E000BF83F0004330B54FEA38
:1001A00041044FEA430594EA050F08BF90EA020FA5
:1001B0001FBF54EA000C55EA020C7FEA645C7FEA38
:1001C000655C00F0E2804FEA5454D4EB5555B8BF5B
:1001D0006D420CDD2C4480EA020281EA030382EACC
:1001E000000083EA010180EA020281EA0303362D5E
:1001F00088BF30BD11F0004F4FEA01314FF4801C31
:100200004CEA113102D0404261EB410113F0004F42
:100210004FEA03334CEA133302D0524263EB4303F9
:1002200094EA050F00F0A780A4F10104D5F1200E97
:100230000DDB02FA0EFC22FA05F2801841F10001F2
:1002400003FA0EF2801843FA05F359410EE0A5F1C6
:1002500020050EF1200E012A03FA0EFC28BF4CF0F7
:10026000020C43FA05F3C01851EBE37101F00045AD
:1002700007D54FF0000EDCF1000C7EEB00006EEBBA
:100280000101B1F5801F1BD3B1F5001F0CD3490844
:100290005FEA30004FEA3C0C04F101044FEA44529B
:1002A00012F5800F80F09A80BCF1004F08BF5FEA22
:1002B000500C50F1000041EB045141EA050130BD02
:1002C0005FEA4C0C404141EB0101013C28BFB1F514
:1002D000801FE9D291F0000F04BF01460020B1FA5F
:1002E00081F308BF2033A3F10B03B3F120020CDA32
:1002F0000C3208DD02F1140CC2F10C0201FA0CF010
:1003000021FA02F10CE002F11402D8BFC2F1200C74
:1003100001FA02F120FA0CFCDCBF41EA0C0190402A
:10032000E41AA2BF01EB0451294330BD6FEA040473
:100330001F3C1CDA0C340EDC04F11404C4F120025E
:1003400020FA04F001FA02F340EA030021FA04F370
:1003500045EA030130BDC4F10C04C4F1200220FAC7
:1003600002F001FA04F340EA0300294630BD21FA05
:1003700004F0294630BD94F0000F83F4801306BFCB
:1003800081F480110134013D4EE77FEA645C18BFBF
:100390007FEA655C29D094EA050F08BF90EA020F56
:1003A00005D054EA000C04BF1946104630BD91EA4E
:1003B000030F1EBF0021002030BD5FEA545C05D151
:1003C0004000494128BF41F0004130BD14F5800490
:1003D0003CBF01F5801130BD01F0004545F0FE4104
:1003E00041F470014FF0000030BD7FEA645C1ABF39
:1003F000194610467FEA655C1CBF0B46024650EA70
:10040000013406BF52EA033591EA030F41F400219B
:1004100030BD00BF90F0000F04BF0021704730B521
:100420004FF4806404F132044FF000054FF00001F6
:1004300050E700BF90F0000F04BF0021704730B5B7
:100440004FF4806404F1320410F0004548BF40428C
:100450004FF000013EE700BF42004FEAE2014FEAE1
:1004600031014FEA02701FBF12F07F4393F07F4FBC
:1004700081F06051704732F07F4208BF704793F0BF
:100480007F4F04BF41F40021704730B54FF46074D2
:1004900001F0004521F000411CE700BF50EA0102D5
:1004A00008BF704730B54FF000050AE050EA01027E
:1004B00008BF704730B511F0004502D5404261EBEE
:1004C00041014FF4806404F132045FEA915C3FF42F
:1004D000D8AE4FF003025FEADC0C18BF03325FEACC
:1004E000DC0C18BF033202EBDC02C2F1200300FA7D
:1004F00003FC20FA02F001FA03FE40EA0E0021FAA2
:1005000002F11444BDE600BF70B54FF0FF0C4CF48F
:10051000E06C1CEA11541DBF1CEA135594EA0C0F41
:1005200095EA0C0F00F0DEF82C4481EA030621EA7C
:100530004C5123EA4C5350EA013518BF52EA0335B7
:1005400041F4801143F4801338D0A0FB02CE4FF069
:100550000005E1FB02E506F00042E0FB03E54FF099
:100560000006E1FB03569CF0000F18BF4EF0010E91
:10057000A4F1FF04B6F5007F64F5407404D25FEA8D
:100580004E0E6D4146EB060642EAC62141EA555140
:100590004FEAC52040EA5E504FEACE2EB4F1FD0C82
:1005A00088BFBCF5E06F1ED8BEF1004F08BF5FEA00
:1005B000500E50F1000041EB045170BD06F00046B2
:1005C00046EA010140EA020081EA0301B4EB5C045F
:1005D000C2BFD4EB0C0541EA045170BD41F4801157
:1005E0004FF0000E013C00F3AB8014F1360FDEBF7C
:1005F000002001F0004170BDC4F10004203C35DA58
:100600000C341BDC04F11404C4F1200500FA05F3DA
:1006100020FA04F001FA05F240EA020001F000427B
:1006200021F0004110EBD37021FA04F642EB0601F1
:100630005EEA430E08BF20EAD37070BDC4F10C041B
:10064000C4F1200500FA04F320FA05F001FA04F2DF
:1006500040EA020001F0004110EBD37041F10001CB
:100660005EEA430E08BF20EAD37070BDC4F12005D6
:1006700000FA05F24EEA020E20FA04F301FA05F23E
:1006800043EA020321FA04F001F0004121FA04F2E6
:1006900020EA020000EBD3705EEA430E08BF20EAB6
:1006A000D37070BD94F0000F0FD101F000464000F0
:1006B00041EB010111F4801F08BF013CF7D041EA72
:1006C000060195F0000F18BF704703F00046520076
:1006D00043EB030313F4801F08BF013DF7D043EA47
:1006E0000603704794EA0C0F0CEA135518BF95EAFD
:1006F0000C0F0CD050EA410618BF52EA4306D1D184
:1007000081EA030101F000414FF0000070BD50EAA2
:10071000410606BF1046194652EA430619D094EA2C
:100720000C0F02D150EA013613D195EA0C0F05D116
:1007300052EA03361CBF104619460AD181EA03016A
:1007400001F0004141F0FE4141F470014FF0000022
:1007500070BD41F0FE4141F4780170BD70B54FF0BD
:10076000FF0C4CF4E06C1CEA11541DBF1CEA13553D
:1007700094EA0C0F95EA0C0F00F0A7F8A4EB05041F
:1007800081EA030E52EA03354FEA013100F0888016
:100790004FEA03334FF0805545EA131343EA1263DF
:1007A0004FEA022245EA111545EA10654FEA002694
:1007B0000EF000419D4208BF964244F1FD0404F54D
:1007C000407402D25B084FEA3202B61A65EB0305A9
:1007D0005B084FEA32024FF480104FF4002CB6EB66
:1007E000020E75EB030E22BFB61A754640EA0C00E6
:1007F0005B084FEA3202B6EB020E75EB030E22BF26
:10080000B61A754640EA5C005B084FEA3202B6EB66
:10081000020E75EB030E22BFB61A754640EA9C0025
:100820005B084FEA3202B6EB020E75EB030E22BFF5
:10083000B61A754640EADC0055EA060E18D04FEAB3
:10084000051545EA16754FEA06164FEAC30343EA53
:1008500052734FEAC2025FEA1C1CC0D111F4801F20
:100860000BD141EA00014FF000004FF0004CB6E719
:1008700011F4801F04BF01430020B4F1FD0C88BFB8
:10088000BCF5E06F3FF6AFAEB5EB030C04BFB6EBC3
:10089000020C5FEA500C50F1000041EB045170BDB6
:1008A0000EF0004E4EEA113114EB5C04C2BFD4EBE3
:1008B0000C0541EA045170BD41F480114FF0000E67
:1008C000013C90E645EA060E8DE60CEA135594EAE3
:1008D0000C0F08BF95EA0C0F3FF43BAF94EA0C0FE6
:1008E0000AD150EA01347FF434AF95EA0C0F7FF45B
:1008F00025AF104619462CE795EA0C0F06D152EAAF
:1009000003353FF4FDAE1046194622E750EA410692
:1009100018BF52EA43067FF4C5AE50EA41047FF4A3
:100920000DAF52EA43057FF4EBAE12E74FF0FF3C08
:1009300006E000BF4FF0010C02E000BF4FF0010CD9
:100940004DF804CD4FEA410C7FEA6C5C4FEA430C52
:1009500018BF7FEA6C5C1BD001B050EA410C0CBFA1
:1009600052EA430C91EA030F02BF90EA020F002003
:10097000704710F1000F91EA030F58BF994208BF6A
:1009800090422CBFD8176FEAE37040F00100704727
:100990004FEA410C7FEA6C5C02D150EA013C07D17E
:1009A0004FEA430C7FEA6C5CD6D152EA033CD3D0C9
:1009B0005DF8040B704700BF8446104662468C46C3
:1009C0001946634600E000BF01B5FFF7B7FF0028F6
:1009D00048BF10F1000F01BD4DF808EDFFF7F4FF1F
:1009E0000CBF012000205DF808FB00BF4DF808EDAA
:1009F000FFF7EAFF34BF012000205DF808FB00BFCD
:100A00004DF808EDFFF7E0FF94BF012000205DF8EE
:100A100008FB00BF4DF808EDFFF7CEFF94BF0120A3
:100A200000205DF808FB00BF4DF808EDFFF7C4FF9C
:100A300034BF012000205DF808FB00BF53B94AB95C
:100A4000002908BF00281CBF4FF0FF314FF0FF30D6
:100A500000F00CB8ADF1080C6DE904CE0AF024FBEF
:100A6000DDF804E0DDE9022304B07047704700BF01
:100A70004A0011D212F5001211D20DD56FF478731D
:100A8000B3EB62520ED44FEAC12343F0004343EA72
:100A9000505323FA02F070474FF00000704750EABD
:100AA000013002D14FF0FF3070474FF00000704727
:100AB000844641EA000313F003036DD1403A41D369
:100AC00051F8043B40F8043B51F8043B40F8043B28
:100AD00051F8043B40F8043B51F8043B40F8043B18
:100AE00051F8043B40F8043B51F8043B40F8043B08
:100AF00051F8043B40F8043B51F8043B40F8043BF8
:100B000051F8043B40F8043B51F8043B40F8043BE7
:100B100051F8043B40F8043B51F8043B40F8043BD7
:100B200051F8043B40F8043B51F8043B40F8043BC7
:100B300051F8043B40F8043B51F8043B40F8043BB7
:100B4000403ABDD2303211D351F8043B40F8043B57
:100B500051F8043B40F8043B51F8043B40F8043B97
:100B600051F8043B40F8043B103AEDD20C3205D367
:100B700051F8043B40F8043B043AF9D2043208D05F
:100B8000D2071CBF11F8013B00F8013B01D30B88D1
:100B900003806046704700BF082A13D38B078DD0AF
:100BA00010F003038AD0C3F10403D21ADB071CBF81
:100BB00011F8013B00F8013B80D331F8023B20F8EB
:100BC000023B7BE7043AD9D3013A11F8013B00F824
:100BD000013BF9D20B7803704B7843708B788370AC
:100BE000604670470348044B834202D0034B03B175
:100BF000184770470C0600200C060020000000007B
:100C00000548064B1B1AD90F01EBA301491002D06E
:100C1000034B03B1184770470C0600200C06002058
:100C20000000000010B5064C237843B9FFF7DAFF47
:100C3000044B13B10448AFF300800123237010BDAF
:100C4000100600200000000070C6000808B5054B23
:100C50001BB105490548AFF30080BDE80840FFF728
:100C6000CFBF00BF000000001406002070C60008BF
:100C700010B50A4C01224FF48051204605F0DAF9F4
:100C800000224FF40061204605F0D4F900224FF411
:100C90008061204605F0CEF910BD00BF001C024067
:100CA00010B50A4C00224FF48051204605F0C2F9DD
:100CB00001224FF40061204605F0BCF900224FF4F8
:100CC0008061204605F0B6F910BD00BF001C02404F
:100CD0000368D86A824201D9DA6A92B20C290FD825
:100CE000DFE801F0070E0E0E090E0E0E0B0E0E0EB3
:100CF0000D005A6370479A637047DA6370471A644D
:100D00007047000082B0084B5B680193019A074B63
:100D10001B689A4203D2064A136801331360019A92
:100D2000024B1A6002B07047001000E0500600202D
:100D300054060020104AD2F8FC3043F08073C2F809
:100D4000FC300E4B002159601A6842F001021A6013
:100D50000B4B03FB00F00B4B18600B4BA3FB00236A
:100D60009B090A4A13600A4BA3FB0030800C094B15
:100D70001860094B1960704700ED00E0001000E0BA
:100D800040420F0060060020D34D62105C06002038
:100D900083DE1B43580600205406002000B52DEDCD
:100DA000028B83B00D4B5B680193019B02689B1A19
:100DB00007EE903AF8EE677A094B93ED007AB8EEB9
:100DC000477A87EE878A019B0360FFF79BFFB0EEAF
:100DD000480A03B0BDEC028B5DF804FB001000E094
:100DE000600600202DE9F04182B0294B5B68019339
:100DF000FFF788FF274B1C6800266508E3071B1BCD
:100E000065F10005DB186D411C1945F10005019BDA
:100E1000E41845F10005204B1C605D601F4BD3F8C2
:100E200000804246334620462946FFF707FE074624
:100E30001B4B186059604246334620462946FFF74F
:100E4000FDFD10461C461546164B1A605C60DFF827
:100E50006480C8F80070144B1F683A463346214638
:100E6000FFF7ECFD80B2A8F8040000FB07F7E81BD1
:100E700064F100010D4B186059600D4B1A68334640
:100E8000FFF7DCFDA8F8060002B0BDE8F08100BF66
:100E9000001000E0540600204806002060060020F4
:100EA00040060020380600205C06002030060020A6
:100EB000580600206406002008B5FFF793FF0E4B8C
:100EC0009A8807EE902AF8EEE77A9FED0C7A67EEA3
:100ED000877A93ED007AB8EE470A30EE270ADB886E
:100EE00007EE903AF8EEE77A9FED057A67EE877A9B
:100EF00030EE270A08BD00BF640600206F12833A57
:100F0000BD3786350A4B5968094B5B685B1A094A3D
:100F1000D2ED007AF8EE677A67EE807A07EE103A43
:100F2000B8EE477AB4EEE77AF1EE10FAECD47047F7
:100F3000001000E06006002010B58AB01A481B4B74
:100F4000036003234360002383604FF08072C2601C
:100F50004FF4102202614FF400124261037643768F
:100F60008376C3760377437704F0C4F8C0B90122CF
:100F7000089200230593069307920093019302932E
:100F800003930493084C6946204604F059F920461F
:100F900004F0F2F90221204604F046FB0AB010BD2D
:100FA00000F02AFBE3E700BF6C060020006400406D
:100FB00010B588B000230393049305930693079319
:100FC0000268184B9A4201D008B010BD0024019469
:100FD00003F5EA331A6C42F000721A641A6C02F0DC
:100FE00000720192019A02941A6B42F008021A638D
:100FF0001B6B03F008030293029B0323039302225B
:10100000049206930923079303A9074804F01CFFE1
:1010100022460521142004F0A1FC142004F0AEFCAB
:10102000D2E700BF00640040000C024010B582B05F
:10103000002400942E4B1A6B42F400121A631A6BB0
:1010400002F400120092009A01941A6B42F480029A
:101050001A631B6B03F480030193019B2246052155
:101060000C2004F07BFC0C2004F088FC22460521B7
:10107000102004F073FC102004F080FC22460521AF
:10108000112004F06BFC112004F078FC22460521AD
:10109000392004F063FC392004F070FC224621461C
:1010A0003A2004F05BFC3A2004F068FC224605215B
:1010B0003B2004F053FC3B2004F060FC2246214618
:1010C000442004F04BFC442004F058FC2246052147
:1010D000452004F043FC452004F050FC2246052145
:1010E000462004F03BFC462004F048FC02B010BD52
:1010F0000038024008B5012006F0E3FEFBE70000DF
:1011000008B509F0EBF80CE009F0F8F8094B18689D
:1011100006F072FF084B186806F06EFF012006F01B
:10112000D0FE4FF0FF31054B186806F031FF002864
:10113000EAD0F3E79406002098060020A8060020D5
:1011400008B509F069F8012006F0BBFEF9E708B51B
:1011500009F0A8F909F0FAF9012006F0B2FEF9E762
:1011600008B509F037F909F065F9012006F0A9FE84
:10117000F9E708B509F0B0FA09F0C0FA012006F065
:10118000A0FEF9E708B504E009F08AF8012006F0AE
:1011900098FE4FF0FF31034B186806F0F9FE002867
:1011A000F2D0F3E79806002008B509F06DFA04E0E4
:1011B00009F072FA012006F084FE4FF0FF31034B74
:1011C000186806F0E5FE0028F2D0F3E79406002048
:1011D00008B509F059F909F05DF9012006F071FE32
:1011E000F9E708B509F04CF9012006F06AFEFBE7C3
:1011F00008B509F0C9FA09F0F7FA012006F061FE16
:10120000F9E708B509F07AFC09F032FE012006F092
:1012100058FEF9E708B53F4A0121084606F05FFE8F
:101220003D4B18603D4A0121084606F058FE3C4BF4
:1012300018603C4A0121084606F051FE3A4B1860FE
:101240003A4A0121084606F04AFE394B1860394AED
:101250000121084606F043FE374B1860374A01214A
:10126000084606F03CFE364B1860364A00213648E8
:1012700006F0C8FD354B1860354A0021354806F0A8
:10128000C1FD354B1860354A0021354806F0BAFDDE
:10129000344B1860344A0021344806F0B3FD344B17
:1012A0001860344A0021344806F0ACFD334B186016
:1012B000334A0021334806F0A5FD334B1860334A0A
:1012C0000021334806F09EFD324B1860324A00215F
:1012D000324806F097FD324B1860324A00213248FE
:1012E00006F090FD314B1860314A0021314806F07C
:1012F00089FD314B1860314A0021314806F082FDEA
:10130000304B1860304A0021304806F07BFD304BEE
:10131000186008BDB4C70008A8060020A4C70008CC
:10132000A406002094C70008A006002084C7000877
:101330009C06002074C700089806002064C70008B7
:101340009406002050C90008F5100008D8060020B7
:101350002CC9000801110008D406002008C90008A3
:1013600041110008D0060020E4C800084F11000811
:10137000CC060020C0C8000861110008C806002083
:101380009CC8000873110008C406002078C8000833
:1013900085110008C006002054C80008A9110008E3
:1013A000BC06002030C80008D1110008B806002093
:1013B0000CC80008E3110008B4060020E8C70008C4
:1013C000F1110008B0060020C4C70008031200088D
:1013D000AC06002008B5044808F096FF034B1868D7
:1013E00006F00AFE08BD00BF80890120A806002083
:1013F00010B52B4C2B4B2246002104F060F82368DB
:1014000040F2032293421BD040F20722934230D095
:1014100040F20122934212D1234A93891380214B37
:101420001878597841EA002191819878D97841EA71
:101430000021516019795B7943EA0123936010BD63
:101440001A49B1F900300B81164B18785A7842EAE4
:1014500000220A809A78120212B2D87802434A8097
:101460001A79120212B2587902438A809B798B71E1
:10147000E5E70F4A1388D3810A4B1878597841EA77
:10148000002111809878D97841EA002151601879BB
:10149000597941EA002191609B799381CFE700BFA0
:1014A00038890120548901204410002000100020B8
:1014B0001C1000202DE9F0418EB0002409940A94FC
:1014C0000B940C940D940194414B1A6B42F0400222
:1014D0001A631A6B02F040020192019A02941A6B8D
:1014E00042F002021A631A6B02F002020292029A9E
:1014F00003941A6B42F001021A631A6B02F00102A4
:101500000392039A04941A6B42F008021A631A6B4E
:1015100002F008020492049A05941A6B42F0040245
:101520001A631A6B02F004020592059A06941A6B6C
:1015300042F480721A631A6B02F480720692069A61
:1015400007941A6B42F080021A631A6B02F0800251
:101550000792079A08941A6B42F020021A631B6BD9
:1015600003F020030893089BDFF8708001224FF4FA
:10157000E051404604F05EFD164F0122102138462E
:1015800004F058FD144E01221146304604F052FD7D
:101590004FF4E053099301250A950B940C9409A983
:1015A000404604F051FC102309930A950B940C94C7
:1015B00009A9384604F048FC09950A950B940C9447
:1015C00009A9304604F040FC0EB0BDE8F08100BF30
:1015D000003802400000024000040240001C0240AB
:1015E00008B50268034B9A4200D008BD03F05CFDC9
:1015F000FBE700BF0014004072B6FEE700B595B0EF
:101600003022002108A80AF073F900230393049301
:101610000593069307930193204A116C41F0805182
:101620001164126C02F080520192019A02931C4BD9
:101630001A6842F480421A601B6803F480430293E4
:10164000029B012308934FF48033099302230E93E6
:101650004FF480020F9206221092A8221192129348
:101660000423139308A804F0EBFC98B90F23039309
:1016700002230493002305934FF4A05306934FF4E1
:1016800080530793052103A804F02AFF20B915B061
:101690005DF804FBFFF7B0FFFFF7AEFF0038024034
:1016A0000070004008B503F0E5FCFFF7A7FFFFF767
:1016B00001FFFFF7BBFC00F081FB00F05FFBFFF7D1
:1016C0003BFC00F087FA00F03DFB00F097FB00F0D8
:1016D00009F800F0FDFA06F067FBFFF79BFD06F046
:1016E00075FBFEE708B50F480F4B03604FF482739C
:1016F000436000238360C3600222026101224261D1
:101700004FF4007282611022C261036243628362FD
:101710000A23C36205F07CF800B908BDFFF76CFF2F
:10172000FBE700BF9C070020003001402DE9F0439B
:1017300089B00023039304930593069307930268EB
:10174000434B9A4202D009B0BDE8F083044600251D
:10175000009503F584335A6C42F480525A645A6CF3
:1017600002F480520092009A01951A6B42F0020234
:101770001A631A6B02F002020192019A02951A6B27
:1017800042F001021A631B6B03F001030293029BF8
:10179000182303934FF00209CDF810904FF0010881
:1017A000CDF81480032706970526079603A9294834
:1017B00004F04AFB80230393CDF81090CDF81480F9
:1017C0000697079603A9244804F03EFB2348244BC0
:1017D00003604FF0C06343608560C5604FF4806371
:1017E000036145618561C5614FF440330362456221
:1017F00004F044F928BB194BE3649C6319481A4B65
:1018000003604FF0C0634360402383600023C360E4
:101810004FF48062026143618361C3614FF400321F
:101820000262436204F02AF970B90E4BA3649C6310
:1018300000220521232004F091F8232004F09EF8D3
:1018400081E7FFF7D9FED6E7FFF7D6FEEDE700BF49
:101850000030014000040240000002403C0700202C
:1018600040640240DC0600205864024000B583B0AA
:10187000002200920D4B596C41F480415964596C1F
:1018800001F48041009100990192196C41F080515E
:1018900019641B6C03F080530193019B0F216FF0BF
:1018A000010004F05BF803B05DF804FB003802406F
:1018B00030B589B0044600230193214B1A6C42F0E5
:1018C00020021A641B6C03F020030193019B02A900
:1018D00003A804F0DBFE069BCBB904F0B7FE034679
:1018E000184AA2FB03239B0C013B1748174A0260CE
:1018F00040F2E732C260436000230361836083618A
:1019000005F0D6FB054630B1284609B030BD04F0DD
:101910009DFE4300E4E70C4805F066FA0546002802
:10192000F2D1372004F02AF80F2C01D90125EBE77A
:1019300000222146372004F011F8054B1C60E3E734
:101940000038024083DE1B43F407002000140040EF
:10195000A4000020FEE7FEE7FEE7FEE7FEE7704793
:1019600008B5024804F082F908BD00BFC80900208C
:1019700008B5024804F07AF908BD00BF880A0020C3
:1019800008B5024804F072F908BD00BF280A00201B
:1019900008B5024803F066FE08BD00BF6C060020D3
:1019A00008B5024805F0BEF808BD00BF9C0700203E
:1019B00008B5024805F0E8FF08BD00BF800C002014
:1019C00008B5024805F0E0FF08BD00BF380C002054
:1019D00008B5024805F0D8FF08BD00BFF00B002095
:1019E00008B5024805F049FA08BD00BFF407002019
:1019F00008B5024804F03AF908BD00BF68090020A4
:101A000008B5024804F032F908BD00BF3C070020C9
:101A100008B5024804F02AF908BD00BFDC06002022
:101A200008B5024804F022F908BD00BF480B0020A9
:101A300008B5024804F01AF908BD00BF08090020E3
:101A400008B5024804F012F908BD00BFE80A0020FA
:101A500008B5024805F098FF08BD00BFA80B00209C
:101A600010B503460C4A0D490D48006840B10C48BA
:101A700000680344521A934206D8094A136010BD05
:101A80000748084C0460F2E709F0CCFF0C23036020
:101A90004FF0FF30F3E700BF000002200004000019
:101AA0003C080020508E0120034AD2F8883043F4CD
:101AB0007003C2F88830704700ED00E082B0036820
:101AC000104A934204D0104A93420ED002B070479D
:101AD000002300930D4B5A6C42F002025A645B6C77
:101AE00003F002030093009BF0E700230193074BF0
:101AF0005A6C42F400325A645B6C03F40033019375
:101B0000019BE3E70004014000440140003802402B
:101B100070B588B00023039304930593069307934D
:101B20000368264A934204D0254A93422CD008B039
:101B300070BD00210091234B1A6B42F480721A632E
:101B40001A6B02F480720092009A01911A6B42F0B3
:101B500004021A631B6B03F004030193019B4026EC
:101B60000396022504950324079403A9164804F05C
:101B70006BF903960495012305930694079403A932
:101B8000124804F061F9D2E7002302930D4B1A6B5F
:101B900042F020021A631B6B03F020030293029BA6
:101BA0004023039302230493012205920693032307
:101BB000079303A9064804F047F9B8E70004014079
:101BC000004401400038024000200240000802406A
:101BD0000014024010B596B000241294139414948B
:101BE00015941094119409940A940B940C940D94E8
:101BF0000E940F942022214601A809F079FE324864
:101C0000324B036040F247334360846042F20F730B
:101C1000C36004614461846105F04AFA00283ED142
:101C20004FF48053129312A9274805F04CFB00286B
:101C300038D1254805F068FA002836D100231093E2
:101C4000119310A9204805F04FFC002830D16023E3
:101C5000099300220A920B920C920D920E920F920F
:101C600009A9194805F0B4FA28BB042209A91648A5
:101C700005F0AEFA10BB0023019302930393049383
:101C800005934FF400520692089301A90E4805F0FF
:101C900071FCB0B90C48FFF73BFF16B010BDFFF761
:101CA000ABFCBDE7FFF7A8FCC3E7FFF7A5FCC5E762
:101CB000FFF7A2FCCBE7FFF79FFCD6E7FFF79CFC02
:101CC000D9E7FFF799FCE5E7880800200004014008
:101CD00000B589B000230193029303930493059305
:101CE000069307931548164A0260532242608360A8
:101CF00040F2CF72C2600361836105F0D9F9A0B9E7
:101D00000E4805F001FA98B960230193002202926F
:101D10000392059201A9094805F05AFA58B90748F3
:101D2000FFF7F6FE09B05DF804FBFFF765FCE7E797
:101D3000FFF762FCE8E7FFF75FFCF0E740080020F0
:101D40000044014008B50A480A4B03600A4B43604F
:101D500000238360C36003610C2242618361C3611D
:101D600005F02AFD00B908BDFFF746FCFBE700BF00
:101D7000800C002000100140003E490008B50C48CE
:101D80000C4B03600C4B43604FF480538360002383
:101D9000C3604FF4806202610C2242618361C361BF
:101DA00005F00AFD00B908BDFFF726FCFBE700BF00
:101DB000380C002000440040A086010008B50C4803
:101DC0000C4B03600C4B43604FF480538360002343
:101DD000C3604FF4806202610C2242618361C3617F
:101DE00005F0EAFC00B908BDFFF706FCFBE700BF01
:101DF000F00B002000480040A086010008B50A480A
:101E00000A4B03600A4B436000238360C360036195
:101E10000C2242618361C36105F0CEFC00B908BDAC
:101E2000FFF7EAFBFBE700BFA80B0020001401400E
:101E3000003E49002DE9F0418EB00446002309938D
:101E40000A930B930C930D930368994A93420ED017
:101E5000984A934200F08480974A934200F0DF80D2
:101E6000964A934200F04A810EB0BDE8F081002509
:101E70000095934B5A6C42F010025A645A6C02F06F
:101E800010020092009A01951A6B42F002021A6346
:101E90001A6B02F002020192019A02951A6B42F04B
:101EA00001021A631B6B03F001030293029B802360
:101EB00009934FF00208CDF8288003270C970726D6
:101EC0000D9609A97F4803F0BFFF4FF400730993F3
:101ED000CDF828800B950C970D9609A97A4803F048
:101EE000B3FF7A487A4B03604FF00063436085602C
:101EF000C5604FF48063036145618561C56105621A
:101F0000456203F0BBFD28BB704BE3639C637148E3
:101F1000714B03604FF000634360402383600023F4
:101F2000C3604FF48062026143618361C3614FF417
:101F300080320262436203F0A1FD70B9654BA36376
:101F40009C6300220521252003F008FD252003F0D5
:101F500015FD89E7FFF750FBD6E7FFF74DFBEDE7EF
:101F600000250395564B1A6C42F400321A641A6C21
:101F700002F400320392039A04951A6B42F00802AD
:101F80001A631B6B03F008030493049B60230993FB
:101F900002230A9303230C9307230D9309A94F48A7
:101FA00003F052FF4E484F4B03604FF00063436015
:101FB0008560C5604FF48063036145618561C561DB
:101FC0000562456203F05AFD18BB454BE3639C6311
:101FD0004548464B03604FF00063436040238360F5
:101FE0000023C3604FF48062026143618361C36177
:101FF0000362436203F042FD70B93B4BA3639C63F1
:1020000000220521262003F0A9FC262003F0B6FCBF
:102010002AE7FFF7F1FAD8E7FFF7EEFAEDE7002538
:102020000595274B1A6C42F480221A641A6C02F44C
:1020300080220592059A06951A6B42F004021A63F3
:102040001B6B03F004030693069B4FF44063099354
:1020500002230A9303230C9307230D9309A9244811
:1020600003F0F2FE2348244B03604FF0006343600B
:102070008560C5604FF480630361456185614FF4FD
:102080008073C3614FF440330362456203F0F6FC92
:1020900058B9184BE3639C6300220521272003F005
:1020A0005DFC272003F06AFCDEE6FFF7A5FAF0E707
:1020B000001001400044004000480040001401406E
:1020C000003802400004024000000240480B00209B
:1020D00088640240E80A0020B8640240000C024014
:1020E000880A002088600240280A0020A060024080
:1020F00000080240C809002028600240002507951A
:102100002F4B5A6C42F020025A645A6C02F02002A3
:102110000792079A08951A6B42F040021A631B6BEC
:1021200003F040030893089B4FF484430993022370
:102130000A9303230C9308230D9309A9214803F064
:1021400083FE2148214B03604FF02063436085608C
:10215000C5604FF48063036145618561C5610562B7
:10216000456203F08BFC28BB174BE3639C63184864
:10217000184B03604FF020634360402383600023CB
:10218000C3604FF48062026143618361C3614FF4B5
:1021900080320262436203F071FC70B90C4BA3639E
:1021A0009C6300220521472003F0D8FB472003F061
:1021B000E5FB59E6FFF720FAD6E7FFF71DFAEDE752
:1021C00000380240001802406809002028640240DC
:1021D00008090020A0640240DFF834D0FFF764FC57
:1021E0000C480D490D4A002302E0D458C450043372
:1021F000C4188C42F9D30A4A0A4C002301E0136048
:102200000432A242FBD309F013FCFFF74BFA7047EC
:1022100000000220000000200C060020C0D20008B0
:1022200010060020508E0120FEE7000008B50022B5
:102230001021024803F0FEFE08BD00BF000002406E
:1022400008B501221021024803F0F4FE08BD00BFCA
:102250000000024008B500220121024803F0EAFE16
:1022600008BD00BF0004024008B501221146024823
:1022700003F0E0FE08BD00BF0004024000B587B0D7
:102280008DF80F004FF47A73009301230DF11702BC
:102290000DF10F010448006804F019FB9DF81700C8
:1022A00007B05DF804FB00BFC80C002038B50D4630
:1022B000144640F08000FFF7E1FF06E05520FFF7ED
:1022C000DDFF05F8010B013CE4B2002CF6D138BD6E
:1022D00010B50C46FFF7D2FF2046FFF7CFFF10BD29
:1022E00010B50C4640F08000FFF7C8FF5520FFF7FF
:1022F000C5FF207010BD000030B52DED048B89B0F6
:102300000446002306930793FEF7D6FDBD4B83EDED
:10231000000AFEF7D1FDBB4BD3ED007A30EE670A21
:10232000F2EE047AB4EEE70AF1EE10FA0CDC9FED5F
:10233000B60AFEF7E7FD002323636362A362E3624C
:10234000B0EE689A0025DAE0B04B6362B04BA3624E
:10235000E362B04B2363B04BA36194ED0C7ADFEDE5
:10236000AF6AC6EE877AC4ED087A09B0BDEC048B7B
:1023700030BD9DF81B301B021BB29DF81A20134381
:1023800007EE903AA64B93ED007AF8EEE77A67EE07
:10239000877AC4ED037AD4ED096A77EEA67AC4EDA4
:1023A000097A9DF81D301B021BB29DF81C201343B7
:1023B00007EE903AF8EEE77A67EE877AC4ED047A92
:1023C000D4ED0A6A77EEA67AC4ED0A7A9DF81F303A
:1023D0001B021BB29DF81E20134307EE903AF8EE45
:1023E000E77A67EE877AC4ED057A94ED0B7A77EE9B
:1023F000877AC4ED0B7AE6E00023022B0DD89A1CF5
:1024000004EB8202516808AA02EB830242F8141C12
:1024100042F8201C0133DBB2EFE7B0EE688A78EEB9
:10242000C86A804BC3ED006A00233BE00133DBB296
:10243000022B24D819469A1C04EB8202D2ED017AB1
:1024400008AA02EB830212ED057AF4EEC77AF1EEE8
:1024500010FA04DD08AA02EB830242ED057A08AA0D
:1024600002EB810212ED087AF4EEC77AF1EE10FA6F
:10247000DCD508AA02EB810141ED087AD6E7F0EE3F
:10248000498ACCE708AA02EB830252ED057A12EDE5
:10249000087A77EEC77A644A02EB8302C2ED007ACB
:1024A0000133DBB2022BEDD9F6EE007AF4EEE76AE7
:1024B000F1EE10FA00F39C805B4B93ED007ADFEDB8
:1024C0005B7AB4EEE77AF1EE10FA00F3918093EDC7
:1024D000017AB4EEE77AF1EE10FA00F3898093ED19
:1024E000027AB4EEE77AF1EE10FA00F381809FED04
:1024F000500AFEF707FD0135ADB2B0EE689A41F221
:102500006F739D4272D8FFF791FE9220FFF7B6FEDF
:10251000062206A91220FFF7C9FEFFF791FE9DF8DB
:1025200019301B021BB29DF81820134307EE903A96
:10253000F8EEE77A3F4A92ED007A67EE877AC4EDCB
:10254000007A9DF81B301B021BB29DF81A100B433A
:1025500007EE103AD2ED006AB8EEC77A27EE267A77
:1025600084ED017A9DF81D301B021BB29DF81C20E2
:10257000134300EE103AB8EEC00A20EE260A84EDAE
:10258000020A67EEA77A27EE077A77EE877A20EEBF
:10259000000A37EE800A09F09BFCF0EE408AD4ED89
:1025A0000C7A77EE807AC4ED0C7AFFF753FE08229E
:1025B00006A90020FFF77AFEFFF756FE9DF81830B7
:1025C0000F2B3FF4D6AE002D3FF416AFB4EEE89AD1
:1025D000F1EE10FA01D5B0EE689AB4EEE88AF1EEA9
:1025E00010FA01DDB0EE688A002321E7F0EE498A97
:1025F000D4ED0C6A9FED107AC6EE877AC4ED0C7AA2
:10260000002329E0D80C00200AD7A33BAC38223B9A
:10261000B016CE393F161B4100002042C3F51C41C5
:1026200008000020140D0020180D00209A99193E72
:102630006F12033A0C0000200080BB4503F1080232
:1026400004EB8202D2ED016A1FED057AC6EE877AAD
:10265000C2ED017A0133DBB2022BEFD9FFF7E6FDC1
:10266000A220FFF70BFE022206A92220FFF71EFE82
:10267000FFF7E6FD9DF818209DF819305B0943EA45
:10268000C203B3F5806F01DBA3F5006307EE903A58
:10269000F8EEE77AB4EE007A67EE877AB3EE077A5F
:1026A00077EE877AC4ED067A2D4A138801331380BA
:1026B0002C4B93ED007AF6EE007AB4EEE77AF1EE69
:1026C00010FA3FF726AED4ED0C7A9FED277A77EE1D
:1026D000C77AF0EEE77AB6EE007AF4EEC77AF1EE5A
:1026E00010FA3FF716AE214B93ED007ADFED207A1A
:1026F000B4EEE77AF1EE10FA3FF70BAE93ED017A04
:10270000B4EEE77AF1EE10FA3FF703AE93ED027AFA
:10271000B4EEE77AF1EE10FA3FF7FBADD4ED097AAB
:10272000F0EEE77A9FED137AF4EEC77AF1EE10FA45
:102730003FF7EFADD4ED0A7AF0EEE77AF4EEC77A20
:10274000F1EE10FA3FF7E5ADD4ED0B7AF0EEE77A53
:10275000F4EEC77AF1EE10FA3FF7DBADFDE500BF0E
:10276000100D0020140D0020CDCC1C41180D0020B0
:102770009A99193E0AD7233C70B5FFF757FD802080
:10278000FFF77CFD5520FFF779FD5520FFF776FD1B
:10279000464C2070FFF754FD012002F097FCFFF734
:1027A00045FD8020FFF76AFD5520FFF767FD5520A6
:1027B000FFF764FD2070FFF743FD012002F086FC67
:1027C000FFF734FDB6217E20FFF782FDFFF738FDCD
:1027D000502002F07BFCFFF729FD8020FFF74EFD23
:1027E0005520FFF74BFD5520FFF748FD2070FFF700
:1027F00027FD012002F06AFCFFF718FD8020FFF79B
:102800003DFD5520FFF73AFD5520FFF737FD2070BD
:10281000FFF716FD012002F059FC23781E2B42D150
:10282000234B00221A7002E00133214A1370204B1F
:102830001B78052B35D8FFF7F9FC1D4D2B781D4C67
:1028400003EB4303E2185178E05CFFF741FDFFF72B
:10285000F7FC012002F03AFCFFF7E8FC2B7803EBD1
:102860004303E05C40F08000FFF708FD5520FFF7D0
:1028700005FD5520FFF702FD0C4E3070FFF7E0FC20
:10288000012002F023FC2B7803EB4302144461780F
:1028900032789142C8D0A2780749087802430A707A
:1028A000C2E7002070BDFF20FCE700BF260D00201E
:1028B000250D0020A0C90008240D002070B5FFF7E9
:1028C000C9FC3F4C21460020FFF70AFDFFF7CCFC76
:1028D000012002F0FBFBFFF7BDFC21460020FFF7C3
:1028E000FFFCFFF7C1FC012002F0F0FBFFF7B2FC98
:1028F000B6211420FFF7ECFCFFF7B6FC502002F0E5
:10290000E5FBFFF7A7FC21460020FFF7E9FCFFF7F6
:10291000ABFC012002F0DAFBFFF79CFC2146002013
:10292000FFF7DEFCFFF7A0FC012002F0CFFB2378CD
:102930000F2B42D1234B00221A7003E0214A137857
:10294000013313701F4B1B78052B34D8FFF782FC23
:102950001C4D2B781C4C03EB4303E2185178E05CD0
:10296000FFF7B6FCFFF780FC012002F0AFFBFFF79A
:1029700071FC134E2B7803EB43033146E05CFFF709
:10298000AFFCFFF771FC012002F0A0FB2B7803EBFA
:1029900043021444617832789142CFD0013BDBB2DC
:1029A0002B7003EB4303094A13449B78084A1178C0
:1029B0000B431370C2E7002070BDFF20FCE700BF8F
:1029C000260D0020250D00208CC90008A0C9000894
:1029D000240D002038B50D46114B1860114C002312
:1029E0002370FFF7C9FE237818432070FFF766FFB6
:1029F00023781843207075B90B4B0C4A5A620C4A65
:102A00009A62DA620B4A1A630B4A1A620B4A9A619B
:102A1000044B187838BD0448FFF76EFCF8E700BF98
:102A2000C80C0020240D0020DC0C0020AC38223B18
:102A3000B016CE393F161B41C48B813F00002042A7
:102A400038B50546FFF7F2FB9220FFF717FC734CF1
:102A5000062221461220FFF729FCFFF7F1FB6378DD
:102A60001B021BB2227813436D4A138007EE903A83
:102A7000F8EEE77A6B4991ED007A67EE877A95ED8B
:102A8000087A67EE877AC5ED007AE3781B021BB2FD
:102A9000A07803431380D1ED006A07EE903AF8EE78
:102AA000E77A67EEA67A67EE277AC5ED017A637951
:102AB0001B021BB221790B43138007EE903AF8EE0C
:102AC000E77A67EEA67A27EE277A85ED027AFFF796
:102AD000C1FB082221460020FFF7E8FBFFF7C4FBFB
:102AE00023780F2B2BD0FFF7A1FBA220FFF7C6FB0B
:102AF0004A4C022221462220FFF7D8FBFFF7A0FB19
:102B0000227863785B0943EAC203454A1380B3F530
:102B1000806F02DBA3F500631380414BB3F90030F3
:102B200007EE903AF8EEE77AB4EE007A67EE877A2D
:102B3000B3EE077A77EE877AC5ED077A38BD3A4B60
:102B40001B78002B3AD0E3781B021BB2A1780B4311
:102B500033490B80354890ED007A07EE903AF8EE55
:102B6000E77A67EE877AD5ED096A77EEE67AC5ED02
:102B7000037A63791B021BB2207903430B8007EEB3
:102B8000903AF8EEE77A67EE877AD5ED0A6A77EE43
:102B9000E67AC5ED047AE3791B021BB2A2791343EE
:102BA0000B8007EE903AF8EEE77A67EE877A95EDBC
:102BB0000B7A77EEC77AC5ED057A94E7174AD37892
:102BC0001B021BB291780B4315490B80174890EDFF
:102BD000007A07EE903AF8EEE77A67EE877AC5ED6D
:102BE000037A53791B021BB2107903430B8007EE63
:102BF000903AF8EEE77A67EE877AC5ED047AD379F2
:102C00001B021BB2927913430B8007EE903AF8EE49
:102C1000E77A67EE877AC5ED057A64E7D00C002085
:102C2000CC0C00200C000020040000200800002034
:102C3000F6EE007A60EE277A10EE103A074AA2EB21
:102C4000630307EE103A67EE277A67EE277AB7EE4E
:102C5000080A30EE670A27EE000A7047865A375F87
:102C600010B52DED048B0446D0F8EC3093ED009AAE
:102C70005C4A82ED009A93ED018A5B4A82ED008AFC
:102C8000D3ED028A594AC2ED008AD3ED039A584B1C
:102C9000C3ED009A69EE097A28EE087A77EE877A12
:102CA00028EEA87A77EE877A29EEA90A37EE800A0D
:102CB000FFF7BEFF4F4B83ED000A00230BE0D4F873
:102CC000EC2002EB8302D2ED007A60EE277AC2EDAF
:102CD000007A0133DBB2032BF1D9474B93ED6F7AC6
:102CE00028EE077AD4F80021F6EE007A27EE277A4C
:102CF00082ED047A93ED6F7A28EE877AD4F800217A
:102D000027EE277A82ED057A93ED6F7A29EE477ADE
:102D1000D4F8002127EE277A82ED0A7A93ED6F7AB4
:102D200029EE877AD4F8002127EE277A82ED0B7AF4
:102D300093ED6F7A69EEC79AD4F8002169EEA79AED
:102D4000C2ED109A93ED6F7A29EE479AD4F80021DC
:102D500029EE279A82ED119A93ED6F7A68EE878AB1
:102D6000D4F8002168EEA78AC2ED168A93ED6F7A37
:102D700028EE478AD4F8002128EE278A82ED178AA8
:102D8000D4F8F820D2ED1C6A93ED747AC6EE877AF7
:102D9000C2ED1C7AD4F8F820D2ED236A93ED747A50
:102DA000C6EE877AC2ED237AD4F8F83093ED1C7A18
:102DB000DFED127AB4EEE77AF1EE10FA01DDC3ED41
:102DC0001C7AD4F8F83093ED237ADFED0C7AB4EE68
:102DD000E77AF1EE10FA01DDC3ED237ABDEC048B46
:102DE00010BD00BF480D0020440D0020400D002004
:102DF0003C0D0020380D0020000E002000401C4635
:102E000038B504469022D0F8F8100848FDF750FE77
:102E100048252A46D4F81C110548FDF749FE2A46E4
:102E2000D4F80C110348FDF743FE38BD1000002014
:102E3000B40D00206C0D00202DE9F84F044600F180
:102E4000780500F180073946284602F0E7F884F853
:102E5000C800B4F87830A4F8A830B4F85A30A4F810
:102E6000AA3004F1580A04F1A808424651462846FF
:102E700002F05CF884F8C800B4F8A830A4F8B030C8
:102E8000B4F88230A4F8B23004F1B0094A463946A9
:102E9000404602F04BF884F8C800B4F89030A4F82B
:102EA000A030B4F89230A4F8A23004F1A0052A466C
:102EB00004F19001484601F001FF84F8C80049463A
:102EC000284601F027FF84F8C800D4F8EC30D3ED91
:102ED000007AC54AC2ED007A93ED016AC34A82EDD9
:102EE000006AD3ED026AC24AC2ED006A93ED037A2A
:102EF000C04B83ED007AB4F87830A4F8B8300123E1
:102F0000A4F8BA3066EE075A27EEA65A75EEC55AEF
:102F1000D4F82C3175EEA55AC3ED005A67EE865AE7
:102F200026EE875A75EE855AD4F82C3175EEA55ADF
:102F3000C3ED015A67EEA77A26EE066A77EEC67AE7
:102F400066EEA66A77EEE67A27EE077AD4F82C3199
:102F500077EE877AC3ED027A002512E0D4F82C319F
:102F600003EB850393ED000AB0EEC00A08F056FFAC
:102F700005F16002A04B03EB820383ED010A0135EA
:102F8000EDB2022DEAD9B4F84830A4F8C0304FF0C1
:102F9000010BA4F8C2B004F1B80504F1C006324632
:102FA000294604F1480002F011F884F8C800B4F88A
:102FB000C030A4F8A830A4F8AAB04246314648462A
:102FC00001F0B4FF84F8C800A4F8B8B0B4F8C03079
:102FD000A4F8BA302946304602F020F884F8C80038
:102FE000DFF828B25A464146284601F09FFF84F890
:102FF000C8009BED027ADBED037AABF5E07BF6EEE1
:10300000006A67EEA66AB4EEE67AF1EE10FA02D52F
:1030100001228BF83821B4EEE77AF1EE10FA45DDA3
:10302000754B93F83831002B40D0734B93F83931FE
:10303000DBB1714AD2F84031D2F84411013341F189
:103040000001C2F84031C2F844116B4BD3F8402163
:10305000D3F84431332A73F100030CD30023664ABA
:1030600082F8383184F82C3046E0634B0020002190
:10307000C3E95001E9E7227B604D2B8803FB02F294
:10308000D4F8EC10D4F8E800FDF712FD227B2B8871
:1030900002FB03F303FB02F2D4F8FC10D4F8F800AF
:1030A000FDF706FD012384F82C309AE0DFED546A29
:1030B00067EEA66AB4EEE67AF1EE10FA0FDD4E4B3B
:1030C00093F838315BB137EEC77ADFED4E6A67EEC1
:1030D000A67AC7EE276A484BC3ED676A04E0464B01
:1030E0004FF07E52C3F89C21434B00200021C3E9DE
:1030F0005001002384F82C30B4F85830A4F8A830DC
:10310000B4F88230A4F8AA3042463946504601F05D
:103110000DFF84F8C80004F198073A464946404636
:1031200001F004FF84F8C80000230EE0D4F81C214D
:1031300002EB8302D2ED007A2F4991ED677A67EEB8
:10314000877AC2ED007A0133DBB2B4F89820B4F884
:103150009A1001FB02F29342E8DB042201E0013203
:10316000D2B2052A1DD80023022BF8D8D4F81C119E
:1031700002EB4200184401EB8001D1ED007A02F12C
:103180005C0C1D4800EB8C0090ED016ADFED1E6ABF
:1031900086EE267A67EE877AC1ED007A0133DBB2DC
:1031A000E2E7B4F89830A4F8B8300123A4F8BA30B4
:1031B0002A463146384601F0B9FE84F8C8000E4B65
:1031C00093F83831002B50D1D4F8BC300022DA60AB
:1031D00004F13002294604F1380001F06FFD84F853
:1031E000C800BDE8F88F00BF680D0020640D002006
:1031F000600D00205C0D0020000E0020EA0F002072
:10320000CDCCCC3D6666663FDA0FC93FC00F0020CB
:103210000133DBB2052BD7D8D4F8BC20990002EBE0
:10322000830292ED007A1248D0ED6F7ADFED116AD9
:1032300067EEA67AB4EEE77AF1EE10FA01DDC2EDA0
:10324000007AD4F8BC200A4492ED007A0849D1ED06
:103250006F7ADFED096A67EEA67AB4EEE77AF1EEEF
:1032600010FAD5D5C2ED007AD2E70423D2E700BF29
:10327000000E00200AD7233C0AD723BC10B52DED41
:10328000048B0446D0F8EC3093ED009A39EE099A9D
:103290002E4A82ED009A93ED018A38EE088A2C4A74
:1032A00082ED008AD3ED029A79EEA99A294AC2EDFD
:1032B000009AD3ED038A78EEA88A274BC3ED008AE3
:1032C000827B264B1B8802FB03F3027B03FB02F28B
:1032D0000021D0F80C0108F00BFBD4F80C31F1EE12
:1032E000697AC3ED007AD4F80C31C3ED018AD4F8C1
:1032F0000C31B1EE497A83ED027AD4F80C3183EDCA
:10330000038AD4F80C3183ED068AD4F80C3183EDAE
:10331000079AD4F80C31C3ED088AD4F80C31C3ED08
:10332000099AD4F80C3183ED0C9AD4F80C31B1EE33
:10333000488A83ED0D8AD4F80C31C3ED0E7AD4F8A7
:103340000C31C3ED0F8ABDEC048B10BD580D00206D
:10335000540D0020500D00204C0D0020EA0F0020DD
:1033600038B52F4B01221A7083ED6C0AC3ED6D0A3C
:1033700083ED6E1A2B4AC3F8CC21002283F8382142
:1033800000200021C3E95001C3E95201F7EE007AA1
:10339000F4EEE71AF1EE10FA01DDF0EE671A204CB8
:1033A000C4ED741A84ED642A032300220621201D33
:1033B00000F0E4FD04F5E4730122114604F5E07029
:1033C00001F0A4FCD4F8EC304FF07E521A60D4F82F
:1033D000EC2000235360D4F8EC209360D4F8EC2068
:1033E000D360114BC4F8D030104BC4F8D430104B1C
:1033F000C4F8D8300F4BC4F8DC30012384F82E30E9
:1034000084F82F3090252A460B49D4F80401FDF7A3
:103410004FFB2A460949D4F8FC00FDF749FB38BDAB
:10342000000E002077CC2B32012E0008612C000802
:103430007D320008392E0008B4C9000810000020B1
:1034400010B52DED088BB0EE409AB0EE608AF0EE2C
:10345000418AF0EE61AAB0EE42AAF0EE629AB0EEB6
:1034600043BA894B1B78002B00F0B880864C84ED62
:103470006FBAD4ED587A39EE670A84ED5B0AD4ED61
:10348000597A78EE670AC4ED5C0AD4ED5A7A38EEC0
:10349000E71A84ED5D1AF6EE007A20EE279A29EEFF
:1034A0000B9A7A4B83ED009A20EEA78A28EE0B8ABE
:1034B000774B83ED008A61EE278A68EE8B8A754B25
:1034C000C3ED008A90227449D4F80401FDF7F0FAA4
:1034D000D4F80431F1EE497AC3ED017AD4F804311D
:1034E000F1EE486AC3ED026AD4F80431B1EE687AAD
:1034F00083ED037AD4F8043183ED069AD4F80431CD
:10350000C3ED088AD4F80431C3ED096AD4F8043154
:1035100083ED0C8AD4F8043183ED0D7AD4F80431AC
:1035200083ED0F9AD4F80431C3ED128AD4F8043134
:1035300083ED138AD4F80431C3ED147AD4F84831FA
:10354000D4F84C21134305D1C4ED5EAA84ED5FAAE3
:10355000C4ED609A4C4B93ED5E7AD3ED645A27EE3E
:10356000257A93ED6F6A75EE866AC7EE267A66EE67
:103570002AAA8AEEA67A77EE877AC3ED5E7A93ED71
:103580005F5A25EE855A85EE267A26EE0AAA8AEE3D
:10359000265A37EE057A83ED5F7A93ED605A65EE31
:1035A000855A85EEA60A26EE296AC6EE265A30EE20
:1035B000250A83ED600A67EEA77A27EE077A77EE91
:1035C000877A20EE000A37EE800AFFF731FBB0EE73
:1035D000408A324B83ED000A00231CE09FED302A25
:1035E000F7EE001A9FED2F1ADFED2F0AB2EE040A54
:1035F000FFF7B6FE3AE7244903F15E0201EB8202CF
:10360000D2ED007A8A6802EB830268EE277AC2ED77
:10361000007A0133DBB2022BEDD91B4C94ED5B0A2F
:1036200020EE000AD4ED5C7A67EEA77A70EE277A76
:1036300094ED5D0A20EE000A37EE800AFFF7F8FAF3
:10364000B7EE007AC7EE007AC4ED657AC7EE086A75
:10365000C4ED666A9FED157AF4EEC77AF1EE10FAC2
:103660002AD5DFED137AF4EEE76AF1EE10FA23DDE6
:10367000DFED107AF4EEE76AF1EE10FA1CD50122C4
:1036800084F839211CE000BF000E0020340D00201A
:10369000300D00202C0D0020B4C90008280D00209A
:1036A000000000008096184B6F12833A9A99993E59
:1036B000CDCC1441CDCC2441744B002283F8392168
:1036C000724CD4ED6C7A94ED6F7AD4F8183167EEC1
:1036D000877AC3ED007AD4ED6C7A94ED6F7AD4F8E2
:1036E000183167EE877AC3ED077AD4ED6C7A94EDE2
:1036F0006F7AD4F8183167EE877AC3ED0E7AD4ED7D
:103700006C7A94ED6F7AD4F8183167EE877AC3ED4E
:10371000157AD4ED6D7A94ED6F7AD4F8183167EE9E
:10372000877AC3ED1C7AD4ED6D7A94ED6F7AD4F874
:10373000183167EE877AC3ED237AD4F81C21D4F8C8
:10374000B8311360D4F81C211361D4F81C31D4F8BB
:10375000B8211A62201D00F095FF6368D3ED008A3E
:10376000C4ED548A93ED018A84ED558AD3ED02AA03
:10377000C4ED56AA93ED03AA84ED57AA1A69C4F8BA
:1037800060215B69C4F864310023C4F8683128EE15
:103790008A0A68EE2A7A30EE270A28EEA89A68EE9E
:1037A000080A79EE200A70EEA00AF7EE00BA70EE71
:1037B000EB0A30EE000A08F089FB9FED35BA60EEA7
:1037C0000B9AC4ED6A9A28EE880A6AEE8A7A30EE7D
:1037D000270A6AEE0A7A39EE279A39EE099A79EEC3
:1037E0006B0A30EE000A08F071FB20EE0B0A84ED44
:1037F000690A28EE0A8A68EEAA8A38EE688AB8EE64
:10380000000A28EE000A08F035FB20EE0B0A84EDD2
:10381000680AD4ED767A79EEE77A9FED1E7AF4EEB7
:10382000C77AF1EE10FA23DDB4F9D431013BA4F8E4
:10383000D431164BB3F9D42107EE902AF8EEE77A8B
:103840009FED157A67EE877A79EEA77AC3ED6B7AEA
:10385000C3ED769AD3F84821D3F84C11013241F1E7
:103860000001C3F84821C3F84C11BDEC088B10BD12
:103870009FED0A7AF4EEC77AF1EE10FAD9D5034A31
:10388000B2F9D4310133A2F8D431D2E7000E0020CE
:10389000E12E6542000034430000B443000034C30D
:1038A000D0F89830C3B1D0ED027A93ED017A77EE7B
:1038B000877A90ED067AD0ED076A37EE267AF6EE33
:1038C000006A27EE267A67EE877A90ED257A67EE12
:1038D000877AC0ED0C7A7047D0ED027A90ED067AC7
:1038E000D0ED076A37EE267AF6EE006A27EE267AE2
:1038F00067EE877A90ED257A67EE877AC0ED0C7ACD
:103900007047D0ED067A90ED0A7A27EE877AB5EE09
:10391000C07AF1EE10FA26DDF5EEC07AF1EE10FA7B
:103920001CDD90ED157AB4EEE77AF1EE10FA1ADAB2
:10393000D0ED146A37EE266AB4EEE76AF1EE10FABB
:103940000FDB90ED0C6A76EEE77A37EE277AC7EE5A
:10395000267A66EE277AC0ED0C7A7047F1EE677A28
:10396000DFE7002303637047D0ED0A6A90ED0C7A1D
:1039700036EE877A1F4B83ED007AD0ED097A76EE2A
:10398000A77A90ED0B6A77EE867A1B4BC3ED007A2F
:10399000F5EEC07AF1EE10FA28DD90ED106AB4EE83
:1039A000E76AF1EE10FA0AD5D0ED067A66EEA76A5C
:1039B000F5EEC06AF1EE10FA01DD00230363D0EDED
:1039C000117AB4EEE77AF1EE10FA03DD0023036317
:1039D000C0ED0A7AF1EE677AB4EEE77AF1EE10FA0A
:1039E00003D500230363C0ED0A7A7047F1EE677ACE
:1039F000D3E700BFE40F0020E00F002090ED0B6A3A
:103A0000D0ED257A26EE276A90ED177A77EE877A41
:103A1000C6EE276A90ED0F6A27EE067A87EE276AD0
:103A200076EE867AC0ED0B7A704790ED0D6AD0ED98
:103A3000257A26EE276A90ED167A77EE877AC6EE1B
:103A4000276A90ED0E6A27EE067A87EE276A76EEF1
:103A5000867AC0ED0D7A704790ED0D7AD0ED107A30
:103A6000B4EEE77AF1EE10FA01DDC0ED0D7A90EDDB
:103A70000D7AF1EE677AB4EEE77AF1EE10FA01D53D
:103A8000C0ED0D7A704790ED097AD0ED107AB4EE62
:103A9000E77AF1EE10FA01DDC0ED097A90ED097ACE
:103AA000F1EE677AB4EEE77AF1EE10FA01D5C0EDE7
:103AB000097A704790ED0D7AD0ED107ADFED206A2B
:103AC00067EEA67AB4EEE77AF1EE10FA31D4D0EDD3
:103AD000007AB0EEE77ADFED1B6AB4EEE67AF1EE3B
:103AE00010FA26D4D0ED046A77EEE67AF0EEE77AA3
:103AF000C7EE876ADFED147AF4EEE76AF1EE10FAAA
:103B000018DDD0F8A030D0F8A420013342F1000233
:103B1000C0F8A030C0F8A420D0F8A010D0F8A4308D
:103B200040F2F512914273F1000302D3012380F8B1
:103B3000A830704700220023C0E92823ECE700BF2B
:103B40006F12833A17B7D1383333733F10B52DED69
:103B5000028B0446D0F89830D3B1B0F86020022A26
:103B60003BD8D0ED037A93ED027A77EE877A90ED29
:103B7000057AD0ED046A37EE667A67EE877AD0ED83
:103B8000256A87EEA67A80ED0B7ABDEC028B10BD1C
:103B9000B0F86030022B10D8D0ED037A90ED057AA2
:103BA000D0ED046A37EE667A67EE877AD0ED256A43
:103BB00087EEA67A80ED0B7AE7E790ED038AD0EDE9
:103BC000040AF1EE600A90ED250A643000F028FE48
:103BD00028EE008A84ED0B8AD7E790ED038AD3EDB7
:103BE000027A38EE278AD0ED040AF1EE600A90EDF1
:103BF000250A643000F014FE28EE008A84ED0B8A5A
:103C0000C3E770B50446164680ED121AC0ED110ADE
:103C100080ED100A00250560C0ED011A80ED022A32
:103C2000C0ED032A056380ED143AC0ED153A80ED2E
:103C3000164AC0ED174AA0F86010643000F0CEFDBF
:103C40000023C4F8903084F89C6000200021C4E96F
:103C5000280184F8A830656370BD10B52DED028B86
:103C60000446F0EE408AB0EE608A90F99C30002B5A
:103C7000C0F2A08004F19000FDF790F884ED250AD1
:103C8000C4ED048A84ED008A38EE688A84ED068AE1
:103C9000D4F8B0300BB120469847D4ED060AF5EEC3
:103CA000C00AF1EE10FA40F38880F0EE607A94EDED
:103CB000127AB4EEE77AF1EE10FA6CD5D4F89830B7
:103CC000002B7DD0D4ED017A93ED007A77EE877AE0
:103CD00060EEA77AC4ED097AD4ED027A93ED017A09
:103CE00077EE877A60EEA77A94ED250A67EE807A00
:103CF000C4ED0C7AB4F86020022A00F28D80D4ED75
:103D0000037A93ED027A77EE877A94ED077A70EE74
:103D1000C70A67EEA07A87EE807A84ED0B7AD4F832
:103D2000B4300BB12046984794F89C3013F0040F40
:103D300040F0818094F89C3013F0200F7FD194F8EC
:103D40009C3013F0020F7ED194F89C3013F0400F9A
:103D50007DD194F89C3013F0010F7CD1D4ED0A7A18
:103D600094ED0C7A77EE877AC4ED0A7A94ED097AAD
:103D700077EE877A94ED0B7A77EE877AC4ED0D7A39
:103D800094F89C3013F0100F69D12046FFF764FEC1
:103D90002046FFF778FE2369636194ED0D0A84EDF8
:103DA0000E0AE36AE363A369E361236B2362BDEC5C
:103DB000028B10BDFFF77EFE5CE7F1EE607A76E7DE
:103DC000D4ED017A60EEA77AC4ED097AD4ED027AD7
:103DD00060EEA77A94ED250A67EE807AC4ED0C7A3E
:103DE000B4F86030022B0CD8D4ED037A94ED077A46
:103DF00070EEC70A67EEA07A87EE807A84ED0B7AC0
:103E00008DE794ED038A04F1640000F009FD28EECB
:103E1000008A84ED0B8A82E794ED038AD3ED027A5F
:103E200038EE278A04F1640000F0FAFC28EE008ADC
:103E300084ED0B8A73E72046FFF732FD7AE72046D0
:103E4000FFF75FFD7BE72046FFF780FE7CE720461B
:103E5000FFF7D4FD7DE72046FFF786FD7EE720468D
:103E6000FFF7E3FD91E7000070B5044600250574F7
:103E7000827B414E338803FB02F24168D0F8F400A4
:103E8000FCF716FEA27B338803FB02F2294660682A
:103E900007F02EFDA27B338802FB03F303FB02F243
:103EA0002946D4F8180107F023FD227B338802FB52
:103EB00003F3A27B03FB02F22946D4F80C0107F0BE
:103EC00017FD294601E00131C9B2A37B8B422AD9F3
:103ED000D4F8F4304FEA810C03EB8102D2ED007A82
:103EE000F5EE407AF1EE10FAEDD0227C03EB82037E
:103EF000C3ED007A626A237CD154A069D4F80C2106
:103F000094F80CE0257C63695B5C05FB0E3303F1E0
:103F10008043013B02EB8302604403681360237C0F
:103F200001332374CFE700230FE0E069616A11F8E1
:103F300003C0D4F8181102FB033201EB820100EB3D
:103F40008C0002680A600133DBB2227C9A42ECD812
:103F5000A4F87820237BA4F87A30A4F88030A4F861
:103F60008220A4F89020A4F89220A4F89830A4F815
:103F70009A20A4F8482070BDEA0F00202DE9F047F0
:103F800004460D4691461E46DFF8B8830423A8F880
:103F90000030EB4B08221A80017380F80D90867375
:103FA00000270774304607F0DDF960613246394674
:103FB00007F09EFCB8F800A006FB0AFA504607F08E
:103FC000D1F9A0615246394607F092FCB8F800A03A
:103FD00006FB0AFA504607F0C5F9E0615246394639
:103FE00007F086FCB8F800A005FB0AFA504607F077
:103FF000B9F920625246394607F07AFC304607F09C
:10400000B1F960623246394607F072FCB8F800A098
:1040100005FB0AFA504607F0A5F9206052463946DA
:1040200007F066FCB8F800A006FB0AFA504607F055
:1040300099F960605246394607F05AFCB8F800A07A
:1040400009FB0AFA504607F08DF9A060524639463E
:1040500007F04EFCB8F800A005FB0AFA504607F03E
:1040600081F9C4F8E8005246394607F041FCD4F81B
:10407000E8300122217B04F1300000F047FEB8F85F
:10408000008005FB08F8404607F06CF9C4F8EC0026
:104090004246394607F02CFCD4F8EC300122217B53
:1040A00004F1380000F032FEB9F1000F40F04C810D
:1040B000DFF89082B8F8007006FB07F7384607F083
:1040C00051F9C4F8F4003A46002107F011FCD4F885
:1040D000F4300122A17B04F1480000F017FEB8F88B
:1040E000007005FB07F705FB07F7384607F03AF9BC
:1040F000C4F8F8003A46002107F0FAFB217BD4F817
:10410000F8300A4604F1500000F000FEB8F80070E4
:1041100005FB07F705FB07F7384607F023F9C4F856
:10412000FC003A46002107F0E3FB217BD4F8FC3089
:104130000A4604F1580000F0E9FDB8F8007005FBEC
:1041400007F705FB07F7384607F00CF98246C4F875
:104150000001384607F006F9C4F804013A46002188
:10416000504607F0C5FBB8F8002005FB02F205FB3E
:1041700002F20021D4F8040107F0BAFB217BD4F845
:1041800000310A4604F1600000F0C0FD217BD4F844
:1041900004310A4604F1680000F0B8FDB9F1000FDF
:1041A00040F0E880674FB7F800A00AFB06F909FB6A
:1041B00005F9484607F0D6F88046C4F80C010AFB1A
:1041C00005F006FB00F007F0CDF8C4F810014A46F0
:1041D0000021404607F08CFB3A8805FB02F206FB03
:1041E00002F20021D4F8100107F082FBD4F80C3160
:1041F000227BA17B04F1780000F088FDD4F8103117
:10420000A27B217B04F1800000F080FDB7F80080E4
:1042100005FB08F808FB05F8404607F0A3F8C4F8CA
:1042200014014246002107F063FB217BD4F81431CE
:104230000A4604F1880000F069FDB7F8008006FB2B
:1042400008F808FB06F8404607F08CF8C4F8180197
:104250004246002107F04CFBA17BD4F818310A46F6
:1042600004F1900000F052FD3B8805FB03F303FBD3
:1042700006F6304607F076F8C4F81C0132460021F5
:1042800007F036FBD4F81C31A27B217B04F19800A7
:1042900000F03CFD94F80C803E8808FB06F606FB17
:1042A00008F5284607F05EF80746C4F820012846BE
:1042B00007F058F8C4F82401284607F053F8C4F86A
:1042C0002801304607F04EF8C4F82C01304607F0BC
:1042D00049F8C4F830013B464246414604F1A0008B
:1042E00000F014FD217BD4F824310A4604F1A80023
:1042F00000F00CFD217BD4F828310A4604F1B0000F
:1043000000F004FDD4F82C310122217B04F1B80027
:1043100000F0FCFCD4F830310122217B04F1C00014
:1043200000F0F4FC002384F8283084F8293084F865
:104330002A3084F82B3084F82C30BDE8F08700BF99
:10434000E80F0020EA0F0020164B1F8809FB07F733
:10435000384607F007F8C4F8F0003A46002107F0A5
:10436000C7FAD4F8F0300122617B04F1400000F07C
:10437000CDFC9DE6B8F8003005FB03F303FB09F91B
:10438000484606F0EFFFC4F808014A46002107F04E
:10439000AFFAD4F80831627B217B04F1700000F0A1
:1043A000B5FCFFE6EA0F002038B50446C37B63B1D5
:1043B000FFF75AFD627B0E4B1B8803FB02F2A168DC
:1043C000D4F8F000FCF774FB38BD827B084D2B88D5
:1043D00003FB02F24168D0F8F400FCF769FBA27B12
:1043E0002B8803FB02F20021606807F081FAE1E705
:1043F000EA0F002090F82830B3BB70B50446437B29
:1044000043B3037BA0F8B8300126A0F8BA6000F1EE
:10441000B8052A4600F13001603000F087FD84F8CD
:10442000C800237BA4F8C030A4F8C26004F1C00621
:10443000324604F1400104F1700000F077FD84F889
:10444000C80004F138023146284600F037FC84F8F1
:10445000C80070BD00F1380200F13001603000F09A
:1044600065FD84F8C800F4E77047F8B590F8293086
:1044700003B1F8BD044600F1600600F16807394653
:10448000304600F0CBFD84F8C80004F158052A46F8
:1044900004F15001304600F049FD84F8C800B4F83A
:1044A0005830A4F8A830B4F86A30A4F8AA3004F15F
:1044B000A80632463946284600F038FD84F8C80080
:1044C0002A4604F18801304600F0F8FB84F8C80061
:1044D000CFE72DE9F84390F82A300BB1BDE8F88317
:1044E000044600F1780600F180073946304600F0B6
:1044F00095FD84F8C800B4F87830A4F8A830B4F872
:104500005A30A4F8AA3004F1580804F1A8052A4644
:104510004146304600F00AFD84F8C800B4F8A830DF
:10452000A4F8B030B4F88230A4F8B23004F1B00688
:1045300032463946284600F0F9FC84F8C800B4F841
:104540009030A4F8A030B4F89230A4F8A23004F16E
:10455000A0094A4604F19001304600F0AFFB84F810
:10456000C8003146484600F0D5FB84F8C800B4F8CE
:104570005830A4F8A830B4F88230A4F8AA302A46FB
:104580003946404600F0D2FC84F8C80004F1980295
:104590003146284600F0CAFC84F8C8009EE790F82F
:1045A0002B3003B170472DE9F0410446B0F8783064
:1045B000A0F8B8300126A0F8BA6000F1380700F181
:1045C000B8052A463946783000F0B0FC84F8C800B7
:1045D000B4F84830A4F8C030A4F8C26004F1C008B0
:1045E0004246294604F1480000F0F0FC84F8C80077
:1045F000B4F89830A4F8B830A4F8BA602A46414616
:1046000004F1980000F092FC84F8C80004F1300234
:104610002946384600F052FB84F8C800BDE8F08116
:10462000F8B590F82C3003B1F8BD0446B0F89830D6
:10463000A0F8A830B0F87A20A0F8AA20A0F8B030EE
:10464000B0F85A30A0F8B23000F1A8073A4600F1AD
:104650007801983000F06AFC84F8C80004F158052D
:1046600004F1B00632462946384600F05FFC84F873
:10467000C80004F150023146284600F0A7FC84F837
:10468000C800D1E738B50446FFF78EFED4F8CC3029
:104690000BB1204698472046FFF7ACFED4F8D03047
:1046A0000BB1204698472046FFF7DFFED4F8D43000
:1046B0000BB120469847237C0BB9E37BCBB920464E
:1046C000FFF707FFD4F8D8300BB1204698472046B3
:1046D000FFF765FFD4F8DC300BB120469847204641
:1046E000FFF79EFFD4F8E0300BB120469847002337
:1046F00019E0227B204D2B8803FB02F2D4F8EC104A
:10470000D4F8E800FCF7D4F9227B2B8802FB03F3F2
:1047100003FB02F2D4F8FC10D4F8F800FCF7C8F957
:10472000E0E70133DBB2227B9A4214D9D4F8F810C7
:1047300002FB033201EB820292ED007A216A01EB67
:104740008301D1ED007AB4EEE77AF1EE10FAE8D504
:10475000C2ED007AE5E7084B1B8803FB02F2D4F8B0
:10476000E8102068FCF7A4F9D4F8E4300BB1204637
:104770009847206838BD00BFEA0F0020B4EEE00A79
:10478000F1EE10FA07D4B4EEC10AF1EE10FA04DD2E
:10479000B0EE410A7047B0EE600A7047FDEEC07A95
:1047A0000C4BC3ED007AB8EEE77A30EE470A0A4BBD
:1047B00083ED000AB6EE007AB4EEC70AF1EE10FA05
:1047C00004DD17EE903A0133024A1360014B18687A
:1047D000704700BFF40F0020F00F0020F8B504462A
:1047E0000180002646608D00284606F0BBFD074686
:1047F000A060284606F0B6FDE060002323616361F7
:104800002A463146384607F073F82A463146E068B2
:1048100007F06EF8E66126626662A662F8BD0000E7
:10482000836893ED017A5D4B83ED007A002313E0FA
:104830008268591C02EB810CDCED007A02EB8302EA
:1048400077EEC77AC2ED007AC26802EB830302EB0F
:10485000810212681A608BB20288511E8B42E7DB1C
:10486000816802F18043023B01EB8303D3ED007AC0
:104870006FF0404C624401EB820177EE807AC1ED2B
:10488000007AC3680288624403EB8203C3ED000A26
:104890004368B0F800C0634501D201334360002390
:1048A000C3610362436283628388ACEB03039BB200
:1048B0001A462DE090ED077A816801EB8201D1ED77
:1048C000007A67EEA77A77EE277AC0ED077AD0ED07
:1048D000087A91ED007A77EE877AC0ED087AD0ED0C
:1048E000097A91ED007AC16801EB8201D1ED006A8D
:1048F00027EE267A77EE877AC0ED097AD0ED0A7A2C
:1049000091ED007A77EE877AC0ED0A7A013292B2A1
:104910009445CFD890ED097A07EE90CAB8EEE76AD1
:1049200027EE067AD0ED086AD0ED0A7A66EEA77A0D
:1049300037EE677AD0ED077A66EE277A66EEA66ADA
:1049400077EEE67A87EE270A80ED040A002282617C
:104950001BE090ED067A826802EB8302D2ED007ACA
:1049600060EE277AD0ED056A77EEA67AC26802EB90
:104970008302D2ED006A77EEE67AF0EEE77A77EE20
:10498000277AC0ED067A01339BB29C45E1D890EDC1
:10499000067AC7EE067AC0ED067A7047EC0F002063
:1049A00000B584468E461046194694457EEB0103B9
:1049B00003DA012A71F100030BDADCF1000C6EEB73
:1049C0004E0E604571EB0E0301DA002904DB5DF841
:1049D00004FB60467146FAE760467146F7E780EDF2
:1049E000000AC0ED010A80ED021A704700000000C5
:1049F0002DE9F84F04460D46BDF928609DF83810A2
:104A0000002942D0D01A00281FDD41F268018842F7
:104A10000EDDD4E90489C2F5FF521F329818FBF766
:104A200009FD42464B46FBF7B9FBC4E9040131E0FE
:104A3000D4E90489FBF7FEFC02460B464046494692
:104A4000FBF7AAFBC4E9040124E04F49884210DACD
:104A5000D4E90489A3F5FF531F3BD018FBF7EAFC08
:104A600002460B4640464946FBF796FBC4E9040163
:104A700010E0D4E90489981AFBF7DCFC42464B4667
:104A8000FBF78CFBC4E9040104E0A81AFBF7D2FC95
:104A9000C4E90401D4E9048900223C4B404649465C
:104AA000FBF7A4FFA0B13A4B1B88642B4DD8D4E987
:104AB00008AB31A3D3E9002340464946FBF724FD68
:104AC00002460B4650465946FBF768FBC4E908010D
:104AD000D4E9080106F0B2FA02460B463046F11757
:104AE000FFF75EFFFBF7E2FC06460F46C4E90867E6
:104AF000002D04DD00220023FBF778FF90BB002D82
:104B000028DB2068FBF7A8FC02460B4640464946D6
:104B1000FBF7FAFC06460F466068FBF79DFCD4E9FC
:104B20000823FBF7F1FC02460B4630463946FBF7FB
:104B300035FB06F083FA02460B46DDE90C01FFF770
:104B40002FFFC4E90689BDE8F88F00220023C4E9DD
:104B50000823BDE70022002330463946FBF764FFF7
:104B60000028CED006A3D3E9002330463946FBF710
:104B7000CBFCC4E90801C4E79A9999999999B93F7E
:104B80009A9999999999E9BF98EFFFFF00407F4062
:104B900098890120DFED1E7A20EE270AF5EE007AD3
:104BA00030EE270AFDEEC07AB5EEC00AF1EE10FA3B
:104BB00028D4F8EEE77A70EE677A9FED167A67EE02
:104BC000877ABCEEE77A17EE103AC3F3080307EED4
:104BD000103AB8EE477A77EEC77A0F4A02EB8301B4
:104BE000D1ED006A013302EB830292ED007AB7EE59
:104BF000000A30EE670A20EE260A67EE877A30EE6A
:104C0000270A704717EE903A013B07EE903AD0E73B
:104C100083F9223E0000004444CA0008B5EEC00AF1
:104C2000F1EE10FA33D4DFED217A60EE277ABDEE93
:104C3000E77AB5EEC00AF1EE10FA30D4B8EEC77AD2
:104C400077EEC77A9FED1A7A67EE877ABCEEE77A3D
:104C500017EE103AC3F3080307EE103AB8EE477A9E
:104C600077EEC77A134A02EB8301D1ED006A013374
:104C700002EB830292ED007AB7EE000A30EE670A8B
:104C800020EE260A67EE877A30EE270A7047DFEDBE
:104C90000A7AB4EEE70AF1EE10FAC4DBF6E717EE93
:104CA000103A013B07EE103AC8E700BF83F9223EF5
:104CB0000000004444CA0008CD024CB430B58C4614
:104CC000964643684A68DEF804100468DCF8005031
:104CD000AC4215D1DEF80050AC4214D1B0F800C09F
:104CE000408800FB0CF008E0F3EC017AB2EC017AAA
:104CF00077EE877AE1EC017A01380028F4D130BDF3
:104D00006FF00200FBE76FF00200F8E701804280DD
:104D1000436070472DE9F04F85B0D0F804A04C688F
:104D20000294B0F80080B0F802C0E04540F0E680A0
:104D30000B884A88934240F0E480984540F0E48034
:104D400046462346A6B1A8EB060222B1002143F84D
:104D5000041B013AF9E74FF07E5243F8042B013E61
:104D60003246002AEED0002143F8041B013AF8E74E
:104D70003546E3463146DFED6C6A039082E0681CFD
:104D80000124404580F0928009EB07020CFB04F3FC
:104D90000EEB8303D2ED007AF5EE407AF1EE10FAD5
:104DA00002D101340130ECE730464946ACEB050452
:104DB000844207D914680F6842F8047B41F8044B19
:104DC0000130F3E731467246614507D2186814682E
:104DD00043F8044B42F8040B0131F5E7012165E08B
:104DE00092ED007AC7EE267AE2EC017A0133ACEB61
:104DF00005049C42F4D83346724606E092ED007AF0
:104E0000C7EE267AE2EC017A01336345F6D33746E2
:104E100002985246CDF8049026E002EB840200EBA3
:104E20008C001EE0D2ED007AB3EC017A27EE267AF0
:104E300077EEC77AE2EC017A09F101094C45F1D825
:104E4000B14673460BE0D0ED007AB3EC017A27EE61
:104E5000267A77EEC77AE0EC017A09F10109E1459B
:104E6000F1D302EB85020137474506D2AF42D4D0D9
:104E7000D2ED006AB146019BE0E70AF1040A0BF1AA
:104E8000FF3B0135BBF1000F1CD00CFB05FE4FEAC8
:104E90008E070AEB8E09029B03EB8E0E99ED007ACA
:104EA000B5EE407AF1EE10FA3FF469AF012904D073
:104EB000B5EE407AF1EE10FA29D0D9ED006A33460A
:104EC0004A4694E70398012926D0F5EE406AF1EEB0
:104ED00010FA23D140680CFB08F38B420AD900EB8F
:104EE0008102D2ED007AF5EE407AF1EE10FA01D1AE
:104EF0000131F0E78B4213D000200AE06FF002008E
:104F000007E06FF0020004E06FF0020001E06FF0D4
:104F1000040005B0BDE8F08F0020FAE70020F8E7B4
:104F20006FF00400F5E700BF000000002DE9F04736
:104F300004461346D0F804E0D2F804A00788488855
:104F400065884E680A88AA4235D189461A88BA42CD
:104F500034D15B88834234D14FF0000822E0F3EC77
:104F6000017AD1ED006A67EEA67A37EE277A01EB77
:104F70008001013A92B2002AF1D1ACEC017A013CF5
:104F8000A4B2011B06EB810124B12A4673469FEDB2
:104F90000E7AF0E780441FFA88F80EEB850E013F89
:104FA000BFB22FB10AEB880CD9F804100446ECE725
:104FB0000020BDE8F0876FF00200FAE76FF0020012
:104FC000F7E76FF00200F4E70000000030B58C4610
:104FD000964643684A68DEF804100468DCF800501E
:104FE000AC4215D1DEF80050AC4214D1B0F800C08C
:104FF000408800FB0CF008E0F3EC017AB2EC017A97
:1050000077EEC77AE1EC017A01380028F4D130BD9F
:105010006FF00200FBE76FF00200F8E770B543683D
:105020004E68B0F800C045884A8862451CD10A889D
:10503000AA421CD164464FF0000E0FE053F8040B57
:10504000086001EB8C01013A92B2002AF6D10EF110
:10505000010E1FFA8EFE013CA4B21CB106EB8E01BC
:105060002A46F2E7002070BD6FF00200FBE76FF008
:105070000200F8E708B50B4B1A6842F400721A6098
:105080001A6842F480621A601A6842F480721A60E8
:10509000032000F051FC0F20FCF70AFCFCF7E6FBB4
:1050A000002008BD003C0240034A1168034B1B78F6
:1050B0000B441360704700BF58110020A00000206F
:1050C000014B1868704700BF5811002038B50446DE
:1050D000FFF7F6FF0546B4F1FF3F02D0044B1B7803
:1050E0001C44FFF7EDFF401BA042FAD338BD00BFC0
:1050F000A0000020002800F0A18038B5044690F8F8
:105100002030D3B12268136843F001031360FFF726
:10511000D7FF054623685A6812F0010F10D1FFF738
:10512000CFFF401B0A28F5D9636A43F4003363625A
:10513000052384F82030012038BDFBF739FFE1E773
:105140001A6822F002021A60FFF7BAFF05462368C8
:105150005A6812F0020F0DD0FFF7B2FF401B0A2869
:10516000F5D9636A43F400336362052384F8203081
:105170000120E1E7227E012A3DD01A6822F0800258
:105180001A60637E012B3BD02268136823F0400332
:105190001360A37E012B39D02268136823F020030B
:1051A0001360E37E012B37D02268136843F01003AD
:1051B0001360237F012B35D02268136823F0080386
:1051C0001360637F012B33D02268136823F004033C
:1051D0001360A368E26813432269134362691343AF
:1051E0006268013A21681343CB61002060620123A9
:1051F00084F82030A0E71A6842F080021A60C0E705
:105200002268136843F040031360C2E72268136802
:1052100043F020031360C4E72268136823F01003EF
:105220001360C6E72268136843F008031360C8E7F9
:105230002268136843F004031360CAE70120704733
:1052400090F82030013BDBB2012B05D9436A43F4CF
:10525000802343620120704730B5464BD3F80022CB
:1052600042F00102C3F80022D3F8002222F47C525B
:10527000C3F80022D3F80022486A42EA0022C3F8A9
:1052800000224A6902F01F02012000FA02F2D3F85C
:105290001C026FEA020C20EA0200C3F81C02CB6970
:1052A000C3B9344BD3F80C020CEA0000C3F80C026B
:1052B0008C884869CD6844EA0544483043F830405A
:1052C0008C68088840EA04404C6904F1480E03EBFE
:1052D000CE035860CB69012B1ED08B69002B33D1D4
:1052E0002448D0F804320CEA0303C0F804320B69F6
:1052F0008BBB2048D0F814320CEA0303C0F81432F8
:105300000B6A012B2ED01B4AD2F8003223F0010386
:10531000C2F80032002030BD164BD3F80C02104307
:10532000C3F80C028C8848690D6844EA054448308B
:1053300043F8304088894C698D6840EA054048341C
:1053400003EBC4035860C8E70A48D0F8043213439B
:10535000C0F80432CBE70748D0F814321343C0F842
:105360001432CDE70349D1F81C321343C1F81C3283
:10537000C9E700BF0064004070B5044690F82050B3
:10538000EDB2012D06D0436A43F4002343620125A8
:10539000284670BD022380F820300268136823F08D
:1053A00001031360FFF78CFE064623685B6813F069
:1053B000010F0CD0FFF784FE831B0A2BF5D9636A1B
:1053C00043F400336362052384F82030E0E70025CE
:1053D0006562DDE730B590F820C00468A4680CF180
:1053E000FF3C5FFA8CFCBCF1010F62D814F0E05F67
:1053F00059D0C4F3016C012404FA0CF41C608B68CE
:10540000002B3DD10D68CB68046843EA45550CF18B
:1054100018031B01E55003680C690CF1180E03EB2F
:105420000E135C600B7D012B35D0D17993791B0471
:1054300043EA0163517943EA012314790168234364
:1054400001EB0C11C1F88C31D17893781B0443EA3D
:105450000163517843EA0123117802680B4302EBA0
:105460000C12C2F8883102680CF1180C4FEA0C1CBF
:1054700052F80C3043F0010342F80C3000201DE0DC
:105480004C6843EAC403CC6823430CF1180424019C
:1054900005682B51BFE7036803EB0E13596841F40D
:1054A00080715960C1E7436A43F4001343620120ED
:1054B00004E0436A43F480234362012030BD90F846
:1054C00020C00CF1FF3C5FFA8CFCBCF1010F00F234
:1054D000A58030B451B90468E46814F0030F10D10A
:1054E000436A43F40013436201207EE004682469A8
:1054F00014F0030F05D1436A43F400134362012003
:1055000073E0056801F11B0424012C5904F0040424
:105510009460002C6BD1056801F11B0424012C5907
:10552000640D1460046801F11B0C4FEA0C1C54F864
:105530000C4004F00204D4600468A444DCF8045075
:1055400015F0080F5BD008241461046801F11B0CEE
:1055500004EB0C146468C4F307249461046804EB3E
:105560000C146468240C5461026802EB0112D2F836
:10557000B8211A70026802EB0112D2F8B821C2F306
:1055800007225A70026802EB0112D2F8B821C2F366
:1055900007429A70026802EB0112D2F8B821120E8B
:1055A000DA70026802EB0112D2F8BC211A710268AB
:1055B00002EB0112D2F8BC21C2F307225A71026831
:1055C00002EB0112D2F8BC21C2F307429A710268C1
:1055D00002EB0112D2F8BC21120EDA71C1B90268D5
:1055E000D36843F02003D360002030BC70470568C7
:1055F00001F11B0424012C59E408546092E701F1E5
:105600001B0504EB0514646804F00F0414619CE7A7
:105610000268136943F020031361E5E7436A43F42A
:10562000802343620120704790F82030013BDBB2B9
:10563000012B05D9436A43F480234362012070475C
:10564000026853690B4353610020704770477047ED
:105650007047704770477047704770477047704792
:10566000704770472DE9F84F054603685C69D3F829
:1056700004809F68D3F80CA0D3F81090D3F818B02A
:1056800014F001063BD017F0010616D001229A60F3
:1056900017F0020F08D117F0040F0CD117F008060D
:1056A00006D04FF4805608E0FFF7D0FF002604E054
:1056B000FFF7CFFF01E04FF4006617F4807F0DD0B5
:1056C0002B684FF480729A6017F4007F40F0968048
:1056D00017F4806F00F0968046F4005617F4803F70
:1056E0000DD02B684FF480329A6017F4003F40F0E1
:1056F000938017F4802F00F0938046F4004614F056
:10570000080F07D01AF0100F04D046F400762B686B
:105710001022DA6014F0040F03D01AF0080F40F0E2
:10572000898014F0020F05D02B68DB6813F0030F9B
:1057300040F0878014F0400F07D019F0100F04D00C
:1057400046F480662B6810221A6114F0200F02D0F4
:1057500019F0080F79D114F0100F04D02B681B69D1
:1057600013F0030F78D114F4003F02D018F0100F9B
:1057700076D114F4803F02D018F0080F77D114F4DA
:10578000004F37D018F0040F31D014F4807F04D0CC
:105790001BF0010F01D046F0010614F4007F04D085
:1057A0001BF0020F01D046F0020614F4806F04D003
:1057B0001BF0040F01D046F0040614F4006F16D05D
:1057C0001BF0700B13D0BBF1400F66D056D8BBF165
:1057D000200F5CD0BBF1300F5CD0BBF1100F01D1BA
:1057E00046F008062A68936923F0700393612B68DA
:1057F00004225A60002E56D1BDE8F88F2846FFF7E4
:1058000026FF6BE717F4006F02D046F4804665E789
:105810002846FFF71FFF61E72846FFF719FF6EE7ED
:1058200017F4002F02D046F4803668E72846FFF7C9
:1058300012FF64E72B680822DA602846FFF70CFFA6
:105840006FE72846FBF7D4FD74E72B6808221A613E
:105850002846FFF703FF7EE72846FFF7FEFE82E7B4
:105860002B6810225A602846FFF7F9FE81E72B6863
:1058700008225A602846FFF7F3FE80E7BBF1500F7D
:105880000ED0BBF1600FADD146F48076AAE746F0AA
:105890001006A7E746F02006A4E746F04006A1E779
:1058A00046F080069EE76B6A33436B622846FFF73B
:1058B000D8FEA1E7002807DB00F01F024009012302
:1058C0009340024A42F82030704700BF00E100E0F8
:1058D000002808DB0901C9B200F1604000F5614011
:1058E00080F80013704700F00F000901C9B2014BA6
:1058F0001954704714ED00E000B500F00700C0F146
:10590000070CBCF1040F28BF4FF0040C031D062B3D
:105910000FD9C31E4FF0FF3E0EFA0CF021EA000132
:1059200099400EFA03FE22EA0E0241EA02005DF8F7
:1059300004FB0023EEE70000074AD36823F4E0638A
:105940001B041B0C000200F4E060034343F0BF6340
:1059500043F40033D360704700ED00E010B5044617
:10596000054BD868C0F30220FFF7C6FF014620466A
:10597000FFF7AEFF10BD00BF00ED00E008B5FFF778
:1059800099FF08BD30B405682C6824F480242C608D
:10599000046863608368402B05D0036899600368DE
:1059A000DA6030BC704703689A600368D960F8E732
:1059B00010B40368D9B210390A4AA2FB0142120995
:1059C000094CA25CC2655F2907D96FF30903043350
:1059D0008365806D5DF8044B70476FF30903836541
:1059E000F7E700BFABAAAAAA48D20008836A826977
:1059F00092B9012B0AD0022B02D00BB100207047C4
:105A0000C36A13F0807F28D100207047C36AB3F1C6
:105A1000C07F24D000207047B2F5005F09D0022B70
:105A200025D9032B25D1C36A13F0807F23D1002011
:105A30007047032B03D8DFE803F01404140A002096
:105A40007047C36A13F0807F0DD100207047C36A8E
:105A5000B3F1C07F09D000207047012070470120BA
:105A600070470120704701207047012070470120D6
:105A700070470020704701207047000070B5044651
:105A8000FFF71EFB002C5BD00546022384F835305F
:105A9000002384F834302268136823F00103136074
:105AA00023681A6812F0010F0AD0FFF709FB431BA5
:105AB000052BF5D920236365032084F8350070BDDC
:105AC0001A68204911406268A0680243E0680243F6
:105AD0002069024360690243A0690243E06902430E
